:020000040800F2
:10000000C8090020A5020008A950000839490008C5
:10001000A550000885080008DD6400080000000005
:10002000000000000000000000000000B1570008C0
:10003000D909000800000000A15400080958000870
:10004000BF020008BF020008BF020008BF0200088C
:10005000BF020008BF020008BF020008BF0200087C
:10006000BF020008BF020008BF020008890800089C
:10007000BF020008BF020008BF020008BF0200085C
:10008000BF020008BF020008BF020008BF0200084C
:10009000BF020008BF020008BF020008BF0200083C
:1000A000BF020008BF020008BF020008BF0200082C
:1000B000BF020008BF020008BF020008BF0200081C
:1000C000BF020008BF020008BF020008BF0200080C
:1000D000BF020008BF020008BF020008BF020008FC
:1000E000BF020008BF020008BF020008BF020008EC
:1000F000BF020008BF020008BF020008BF020008DC
:10010000BF020008BF020008BF020008BF020008CB
:10011000BF020008BF02000899580008BF0200088B
:10012000BF020008BF020008BF020008BF020008AB
:10013000BF020008BF020008BF020008BF0200089B
:10014000BF020008BF020008BF020008BF0200088B
:10015000BF020008BF020008BF020008BF0200087B
:10016000BF020008BF020008BF020008BF0200086B
:10017000BF020008BF020008BF020008BF0200085B
:10018000BF020008BF020008BF020008BF0200084B
:10019000BF020008BF020008BF020008BF0200083B
:1001A000BF020008BF020008BF020008BF0200082B
:1001B000BF020008BF020008BF020008BF0200081B
:1001C000BF020008BF020008BF020008BF0200080B
:1001D000BF020008BF02000800F002F800F052F869
:1001E00014A696E8000CB244B344DA4501D100F0FD
:1001F00049F8BAE80F000FA696E83000A5EB040511
:1002000004EB0607AAEB0704A7F101074FEA15154F
:100210004FEA3414A4F10104AC4201D300F032F8E7
:1002200013F0010F18BFFB1A43F0010300F001F8AF
:10023000DBE718473873000058730000103A24BFFA
:1002400078C878C1FAD8520724BF30C830C144BF3B
:1002500004680C6070470000704700000023002411
:1002600000250026103A28BF78C1FBD8520728BFC6
:1002700030C148BF0B6070471FB507F051F91FBD73
:1002800010B510BD00F06CF81146FFF7F5FF06F051
:10029000F3FB00F08AF803B4FFF7F2FF03BC00F0B1
:1002A0008DF800000948804709480047FEE7FEE74F
:1002B000FEE7FEE7FEE7FEE7FEE7FEE7FEE7FEE716
:1002C00004480549054A064B704700008558000858
:1002D000D9010008C8030020C8090020C805002073
:1002E000C80500204FF0000200B51346944696461C
:1002F000203922BFA0E80C50A0E80C50B1F1200139
:10030000BFF4F7AF090728BFA0E80C5048BF0CC0E6
:100310005DF804EB890028BF40F8042B08BF704744
:1003200048BF20F8022B11F0804F18BF00F8012BB6
:10033000704770477047704710B500F009F80068C3
:1003400010BD10B5044600F003F8046010BD0000B5
:1003500000487047380000200048704738000020EF
:100360007546FFF7F9FFAE4605006946534620F093
:100370000700854618B020B5FFF7A2FFBDE8204072
:100380004FF000064FF000074FF000084FF0000B51
:10039000AC46ACE8C009ACE8C009ACE8C009ACE8C0
:1003A000C00921F007018D46704710B50446AFF330
:1003B00000802046BDE81040FFF76DBF01491820BE
:1003C000ABBEFEE7260002007047000080B58AB091
:1003D00008900791002005900798049008980068FD
:1003E00004F042FB02900898006804F0FFFA0190C4
:1003F000029828B9FFE70198002800F0A780FFE7DE
:1004000008980068C0688001002835D5FFE7089883
:10041000407F012830D1FFE70898007F01282BD1C9
:10042000FFE701200490FFE708980068006800F0EB
:1004300040010020B0EB911F19D1FFE70598002182
:10044000CAF2403188420ED3FFE70899C86D40F0E8
:100450001000C8650899086E40F001000866012088
:100460008DF8270076E0059801300590DCE70898C4
:10047000016840200860FFE70498022813D0FFE7D6
:100480000898006804F0F0FA60B1FFE70898006887
:1004900004F0D2FA28B9FFE70898006804F024FBBA
:1004A000FFE7FFE7FFE70498012813D0FFE708986C
:1004B000006804F09BFA60B1FFE70898006804F058
:1004C000BBFA28B9FFE70898006804F097FAFFE73D
:1004D000FFE7FFE704980090022807D0FFE70098A5
:1004E000032806D1FFE70C20039005E008200390C5
:1004F00002E004200390FFE701F000FF0690FFE711
:10050000089800688068039908421ED0FFE701F050
:10051000F5FE0699401A062816D3FFE708980068EA
:100520008068039908420ED0FFE70899C86D40F033
:100530001000C8650899086E40F0010008660120A7
:100540008DF8270006E0FFE7DAE7FFE700208DF8E7
:100550002700FFE79DF827000AB080BD80B582B074
:1005600001900198806A00900098C06D10F0500FC3
:100570004BD1FFE70099C86D40F40070C865009842
:10058000006800680007002821D5FFE70098006890
:1005900004F072FAD0B1FFE700980068C0688004E8
:1005A000002812D4FFE70099C86D20F48070C86558
:1005B0000098C06DC004002806D4FFE70099C86DFC
:1005C00040F00100C865FFE7FFE7FFE719E000988A
:1005D0000068C0688007002812D4FFE70099C86D42
:1005E00020F48070C8650098C06DC004002806D44F
:1005F000FFE70099C86D40F00100C865FFE7FFE71D
:10060000FFE7009800F0DEFE10E00098C06DC00625
:10061000002804D5FFE7009800F0EAFE05E0009806
:10062000406D416B01988847FFE7FFE702B080BD4E
:1006300080B582B001900198806A00900099C86DE1
:1006400040F04000C8650099086E40F0040008665C
:10065000009800F0CDFE02B080BD000080B582B0F1
:1006600001900198806A0090009800F0BDFE02B0F1
:1006700080BD000080B584B002900298006804F04C
:10068000DBF900900298006804F0DEF900284BD0F6
:10069000FFE70098002847D1FFE7029800688068CC
:1006A00000F00D00012809D1FFE70298006804F06E
:1006B00045F902980168032008600DE00299C86DB1
:1006C00040F01000C8650299086E40F0010008660D
:1006D00001208DF80F002BE001F010FE0190FFE7E4
:1006E000029800688068C007E8B1FFE701F006FEE5
:1006F0000199401A032815D3FFE702980068806823
:10070000C00770B1FFE70299C86D40F01000C865DE
:100710000299086E40F00100086601208DF80F0074
:1007200006E0FFE7DCE7FFE700208DF80F00FFE7BA
:100730009DF80F0004B080BD80B586B00490002005
:1007400002900498006804F07FF9002840F092803D
:10075000FFE70498006880683F21C8F20001084262
:100760000ED0FFE70499C86D40F01000C8650499E9
:10077000086E40F00100086601208DF817007DE04A
:100780000498006804F0F4F8049801680120B1F1BD
:10079000A04F01900CD0FFE7049800684FF600715D
:1007A000CAF6FF710844B0FA80F040090190FFE7F3
:1007B0000198C10740F20070C5F2000000291CBF7B
:1007C00040F20030C5F2000004F0F0F84FEA0020DB
:1007D00000281CD5FFE740F20000C2F200000068CC
:1007E000800942F66351C0F23E51A0FB011080091E
:1007F00000EB40010C2000EB81000290FFE7029823
:1008000020B1FFE7029801380290F8E7FFE701F016
:1008100075FD0390FFE7049800680068C00740BBBF
:10082000FFE70498006804F00FF928B9FFE704987F
:10083000006804F09DF8FFE701F060FD0399401A9D
:10084000032815D3FFE7049800680068C00770B953
:10085000FFE70499C86D40F01000C8650499086E60
:1008600040F00100086601208DF8170006E0FFE760
:10087000D1E7FFE700208DF81700FFE79DF817008C
:1008800006B080BDFFE7FEE780B540F2F010C2F28F
:10089000000001F085F980BD84B0039003980068E2
:1008A00040F20741C4F20201884211D8FFE740F646
:1008B0000000C4F2020000900398007808384CF65B
:1008C000CD41CCF6CC41A0FB01100009019012E013
:1008D00040F62000C4F20200009003980078083827
:1008E0004CF6CD41CCF6CC41A0FB0101082000EB39
:1008F00011100190FFE700980290029803994A6C4A
:1009000022F0030210448864039940F68000C4F288
:100910000200C864019800F01F010120884003997B
:10092000086504B07047000082B0019001984068EB
:1009300000F07F000090009940F6FC00C4F2020035
:1009400000EB810001994865019940F64010C4F21E
:10095000020088650098013800F01F0101208840DE
:100960000199C86502B0704784B00390029101926A
:1009700000930398C16C006D48600398406D28B1E6
:10098000FFE70398816DC06D4860FFE70398016C35
:10099000406C00F01F0201209040486000980399CD
:1009A0000968486003988068102809D1FFE701981A
:1009B000039909688860029803990968C86008E08B
:1009C0000298039909688860019803990968C860CA
:1009D000FFE704B0704700007047000081B0EFF3FC
:1009E000108072B60090FFE7FEE7000080B586B089
:1009F0000490039100200190FFE7049890F85800BC
:100A0000012804D1FFE702208DF817005AE004996D
:100A1000012081F85800FFE7FFE70498FFF72AFE5E
:100A20008DF80B009DF80B00D8BBFFE70498C06D54
:100A300040F0020020F488500499C86504980068CA
:100A4000039904F019F9FFE70498006803F0E4FF44
:100A5000F0B1FFE701980130019001984DF6026175
:100A6000C0F20401884212D3FFE70498C06D40F041
:100A7000100020F002000499C865FFE704990020E7
:100A800081F85800FFE701208DF817001AE0DBE736
:100A90000498C06D40F0010020F002000499C86580
:100AA00005E00499C86D40F01000C865FFE7FFE756
:100AB0000499002081F85800FFE79DF80B008DF89D
:100AC0001700FFE79DF8170006B080BD80B5C4B0E1
:100AD0002490239100208DF88B001F902398C068EC
:100AE0000021C4F27F01884201D0FFE700E0FFE768
:100AF000FFE7249890F85800012805D1FFE702206D
:100B00008DF8970000F059BC2499012081F8580015
:100B1000FFE7FFE72498006803F0A6FF002840F0F5
:100B20003884FFE72498006823990A68496803F02D
:100B3000AFFF2498006803F097FF1E902498006888
:100B400003F054FF1D901E98002840F0B881FFE785
:100B50001D98002840F0B381FFE723988068B0F12A
:100B6000004F0ED1FFE724980068239909680022FE
:100B700003F0C8FF249800684FF0004104F06EF8BD
:100B80000CE024980068239A1168926803F0BAFF79
:100B900024980068002104F061F8FFE72398406979
:100BA00024990968C96801F01801890888402190D2
:100BB0002398006904281CD0FFE724980068239933
:100BC0000A680969219B03F0EFFF24980068239AC3
:100BD0001169926904F01AF824980068239A11693F
:100BE000127F013AB2FA82F25209520603F0FAFF7A
:100BF00064E124980068002103F0E8FE400348B94E
:100C0000FFE724980068002103F0E0FEC0F3846051
:100C10001C9018E024980068002103F0D7FE90FA99
:100C2000A0F04290429820B9FFE720208DF80F01F4
:100C300005E04298B0FA80F08DF80F01FFE79DF8CB
:100C40000F011C90FFE71C981B902398006840033D
:100C500030B9FFE723980068C0F384601A9015E06C
:100C60002398006890FAA0F04090409820B9FFE7E0
:100C700020208DF8070105E04098B0FA80F08DF84B
:100C80000701FFE79DF807011A90FFE71B981A99E3
:100C9000884207D1FFE7249800680022114603F03C
:100CA000C9FFFFE724980068012103F08FFE40038D
:100CB00048B9FFE724980068012103F087FEC0F3DC
:100CC0008460199018E024980068012103F07EFEEA
:100CD00090FAA0F03E903E9820B9FFE720208DF8D2
:100CE000FF0005E03E98B0FA80F08DF8FF00FFE7C6
:100CF0009DF8FF001990FFE7199818902398006855
:100D0000400330B9FFE723980068C0F38460179070
:100D100015E02398006890FAA0F03C903C9820B928
:100D2000FFE720208DF8F70005E03C98B0FA80F04E
:100D30008DF8F700FFE79DF8F7001790FFE7189888
:100D40001799884207D1FFE7249800680121002203
:100D500003F070FFFFE724980068022103F036FEDD
:100D6000400348B9FFE724980068022103F02EFEF3
:100D7000C0F38460169018E024980068022103F004
:100D800025FE90FAA0F03A903A9820B9FFE720208B
:100D90008DF8EF0005E03A98B0FA80F08DF8EF009A
:100DA000FFE79DF8EF001690FFE71698159023983F
:100DB0000068400330B9FFE723980068C0F38460FF
:100DC000149015E02398006890FAA0F038903898B5
:100DD00020B9FFE720208DF8E70005E03898B0FA49
:100DE00080F08DF8E700FFE79DF8E7001490FFE73B
:100DF00015981499884207D1FFE7249800680221CA
:100E0000002203F017FFFFE724980068032103F096
:100E1000DDFD400348B9FFE724980068032103F093
:100E2000D5FDC0F38460139018E024980068032176
:100E300003F0CCFD90FAA0F03690369820B9FFE789
:100E400020208DF8DF0005E03698B0FA80F08DF8AC
:100E5000DF00FFE79DF8DF001390FFE71398129083
:100E600023980068400330B9FFE723980068C0F377
:100E70008460119015E02398006890FAA0F03490F7
:100E8000349820B9FFE720208DF8D70005E034988A
:100E9000B0FA80F08DF8D700FFE79DF8D7001190E9
:100EA000FFE712981199884207D1FFE7249800685C
:100EB0000321002203F0BEFEFFE7FFE7FFE72498CF
:100EC000006803F0C1FD002840F04481FFE724984A
:100ED0000068239A1168D26803F030FE2398C06836
:100EE0000021C4F27F01884240F03381FFE724985B
:100EF0000068109023980068400330B9FFE72398FA
:100F00000068C0F384600F9015E02398006890FAA1
:100F1000A0F03290329820B9FFE720208DF8CF0062
:100F200005E03298B0FA80F08DF8CF00FFE79DF829
:100F3000CF000F90FFE70F98013000F01F00092845
:100F40007DD8FFE723980068400330B9FFE7239876
:100F50000068C0F384600E9015E02398006890FA52
:100F6000A0F03090309820B9FFE720208DF8C7001E
:100F700005E03098B0FA80F08DF8C700FFE79DF8E3
:100F8000C7000E90FFE70E98013000F01F008006AA
:100F90000D9023980068400330B9FFE7239800685C
:100FA000C0F384600C9015E02398006890FAA0F0DC
:100FB0002E902E9820B9FFE720208DF8BF0005E085
:100FC0002E98B0FA80F08DF8BF00FFE79DF8BF00C3
:100FD0000C90FFE70D980C99013101F01F020121DF
:100FE000914008430B9023980068400330B9FFE715
:100FF00023980068C0F384600A9015E02398006885
:1010000090FAA0F02C902C9820B9FFE720208DF8C2
:10101000B70005E02C98B0FA80F08DF8B700FFE734
:101020009DF8B7000A90FFE70B980A99013101F08B
:101030001F0101EB410140EA0150099082E0239831
:101040000068400330B9FFE723980068C0F384606C
:10105000089015E02398006890FAA0F02A902A984A
:1010600020B9FFE720208DF8AF0005E02A98B0FAFC
:1010700080F08DF8AF00FFE79DF8AF000890FFE724
:101080000898013000F01F00800607902398006840
:10109000400330B9FFE723980068C0F384600690EE
:1010A00015E02398006890FAA0F02890289820B9BD
:1010B000FFE720208DF8A70005E02898B0FA80F01F
:1010C0008DF8A700FFE79DF8A7000690FFE70798B7
:1010D0000699013101F01F0201219140084305905A
:1010E00023980068400330B9FFE723980068C0F3F5
:1010F0008460049015E02398006890FAA0F0269090
:10110000269820B9FFE720208DF89F0005E026985B
:10111000B0FA80F08DF89F00FFE79DF89F000490E3
:10112000FFE705990498013000F01F0000EB400232
:101130000020CFF6206000EB0250084340F0007022
:101140000990FFE710980999239A926803F0DAFC56
:10115000FFE7FFE72398408848F20801084200F0C3
:101160001781FFE7249801680120B1F1A04F039097
:101170000CD0FFE7249800684FF60071CAF6FF71A3
:101180000844B0FA80F040090390FFE70398C107D4
:1011900040F20070C5F2000000291CBF40F2003090
:1011A000C5F2000003F002FC20902398006840F292
:1011B0000001CCF22131884208D0FFE72398006873
:1011C0001021C9F2C00188425AD1FFE79DF8820080
:1011D0000006002854D4FFE724980068B0F1A04F1F
:1011E00009D0FFE72498006840F20061C5F20001D1
:1011F000884244D1FFE7249801680120B1F1A04F53
:1012000002900CD0FFE7249800684FF60071CAF6F0
:10121000FF710844B0FA80F040090290FFE702989D
:10122000C10740F20070C5F2000000291CBF40F267
:101230000030C5F20000209941F4000103F0A6FC43
:1012400040F20000C2F2000000684FEA901042F63F
:101250006351C0F23E51A0FB01104FEA901000EB29
:1012600040014FF00C0000EB81001F90FFE71F983A
:1012700020B1FFE71F9801381F90F8E7FFE786E0ED
:10128000239800680021CCF2527188423ED1FFE7DA
:101290009DF88300C007C8BBFFE72498006840F2B0
:1012A0000011C5F2000188422FD0FFE724980068A2
:1012B00040F20051C5F20001884226D0FFE7249891
:1012C00001680120B1F1A04F01900CD0FFE72498F4
:1012D00000684FF60071CAF6FF710844B0FA80F05A
:1012E00040090190FFE70198C10740F20070C5F284
:1012F000000000291CBF40F20030C5F20000209918
:1013000041F0807103F042FCFFE73FE02398006862
:101310000021CCF68431884236D1FFE79DF8820067
:101320004006002830D4FFE72498006840F20011FE
:10133000C5F20001884226D0FFE724980168012009
:10134000B1F1A04F00900CD0FFE7249800684FF651
:101350000071CAF6FF710844B0FA80F040090090AD
:10136000FFE70098C10740F20070C5F200000029B5
:101370001CBF40F20030C5F20000209941F480010A
:1013800003F004FCFFE700E0FFE7FFE7FFE7FFE70C
:1013900008E02499C86D40F02000C86501208DF850
:1013A0008B00FFE7FFE72499002081F85800FFE752
:1013B0009DF88B008DF89700FFE79DF8970044B0EB
:1013C00080BD000080B582B001900198006840F2B5
:1013D0000051C5F20001884203D1FFE705F0F6FA9B
:1013E000FFE702B080BD000081B0009001B07047FF
:1013F00081B0009001B0704780B58EB00C90002095
:101400008DF82F0007900C9820B9FFE701208DF888
:101410003700DCE10C98406940B1FFE70C9890F888
:101420002400012801D1FFE7FFE7FFE70C98C06D1A
:1014300050B9FFE70C9800F0CFF90C99002008662E
:101440000C9981F85800FFE70C98006803F0ECFA5B
:1014500028B1FFE70C98006803F07EFAFFE70C98CC
:10146000006803F0F9FAF0B9FFE70C98006803F0A0
:101470008DFA40F20000C2F200000068800942F6D6
:101480006351C0F23E51A0FB01108109022000EB24
:1014900041000790FFE7079820B1FFE70798013860
:1014A0000790F8E7FFE70C98006803F0D5FA70B9E9
:1014B000FFE70C99C86D40F01000C8650C99086EE4
:1014C00040F00100086601208DF82F00FFE70C981E
:1014D000006803F0C9FA09900C98C06DC006002896
:1014E00000F16781FFE70998002840F06281FFE77B
:1014F0000C98C06D40F0020020F480700C99C86513
:101500000C98006803F0A0FA00287CD1FFE70C9843
:1015100001680120B1F1A04F06900CD0FFE70C98B4
:1015200000684FF60071CAF6FF710844B0FA80F007
:1015300040090690FFE70698C10740F20070C5F227
:10154000000000291CBF40F20030C5F2000040F24C
:101550000031C5F20001884210D1FFE74FF0A040F2
:1015600003F072FA049040F20010C5F2000003F09C
:101570006BFA01460498084305901BE040F20040D6
:10158000C5F2000003F060FA029040F20050C5F28C
:10159000000003F059FA014602980843039040F214
:1015A0000060C5F2000003F04FFA014603980843BB
:1015B0000590FFE7059828BBFFE70C98016801201C
:1015C000B1F1A04F01900CD0FFE70C9800684FF6E6
:1015D0000071CAF6FF710844B0FA80F0400901902A
:1015E000FFE70198C10740F20070C5F20000002932
:1015F0001CBF40F20030C5F200000C99496803F0AE
:10160000B7FAFFE7FFE70C994A7FC86B40EA423020
:101610008A68CB681843104391F8241040EA0140CF
:101620000A900C9890F8240001280BD1FFE70C9841
:10163000816A0020CFF6FE7000EB41410A98084312
:101640000A90FFE70C98C06A50B1FFE70C99C86A8E
:10165000096B00F4787001430A9808430A90FFE789
:101660000C980068C06844F20701CFF6F07108409A
:101670000A9908430C990968C8600C9800680069C9
:1016800020F040600C9A1168526B104308610C986E
:10169000006803F0ABF908900998002868D1FFE7CB
:1016A0000898002864D1FFE70C99087F91F838105A
:1016B000800340EA41000A900C980068C06844F238
:1016C000020188430A9908430C990968C8600C987C
:1016D0000069A0B1FFE70C980168086940F4803008
:1016E00008610C980068D0F8C00043F6FF71884389
:1016F0000C9A116812691043C1F8C00011E00C98EF
:101700000168086920F4803008610C980068D0F8FE
:10171000C00043F6FF7188430C990968C1F8C00006
:10172000FFE70C9890F84000012819D1FFE70C98CA
:101730000068006940F2FD7120EA01020C9B196803
:10174000586CD3F848E0D3F84CC040EA0E0040EAA9
:101750000C001B6D1843104340F00100086106E0C7
:101760000C980168086920F001000861FFE7FFE7B5
:101770000C98406901280CD1FFE70C980068006BB9
:1017800020F00F000C9A1168126A013A10430863A6
:1017900006E00C980168086B20F00F000863FFE773
:1017A0000C98C06D40F0010020F002000C99C86553
:1017B00008E00C99C86D40F01000C86501208DF854
:1017C0002F00FFE79DF82F008DF83700FFE79DF809
:1017D00037000EB080BD000080B5A2B0219000207F
:1017E00020901F901E901D901C9007A85421FEF77A
:1017F00079FD2198006840F20051C5F2000188424D
:1018000040F08680FFE74FF4803007904FF00040B3
:10181000199007A800F014FF18B1FFE7FFF7DEF8F2
:10182000FFE7FFE741F24C00C4F20200016841F417
:1018300080410160006800F4804006900698FFE750
:10184000FFE741F24C00C4F20200016841F01001D0
:101850000160006800F0100005900598FFE7FFE7C1
:1018600041F24C00C4F20200016841F00201016043
:10187000006800F0020004900498FFE74FF4414034
:101880001C90032000901D90002002901E9041F2B9
:101890000000C4F600001CA9019100F059FB009A59
:1018A000019902984FF450431C931D921E9040F2F0
:1018B0000040C4F6000000F04BFB029940F2F0102B
:1018C000C2F2000003900822C4F202020260262243
:1018D00042608160C160802202614FF48072426187
:1018E0004FF4806282612022C261016200F004FA3A
:1018F00018B1FFE7FFF772F8FFE7FFE7219840F222
:10190000F011C2F20001416521988862FFE7FFE70C
:1019100022B080BD80B58AB00890079106920898E1
:1019200001680120B1F1A04F03900CD0FFE70898A7
:1019300000684FF60071CAF6FF710844B0FA80F0F3
:1019400040090390FFE70398C10740F20070C5F219
:10195000000000291CBF40F20030C5F2000003F077
:101960002DF804900898006803F07EF8002840F0F5
:10197000CA80FFE7FFE7089890F85800012804D1D3
:10198000FFE702208DF82700C6E00899012081F8C2
:101990005800FFE7FFE70898006840F20061C5F2D1
:1019A000000188420CD0FFE7049848B1FFE7049893
:1019B000052805D0FFE70498092840F09980FFE743
:1019C0000898FEF7B9FE8DF817009DF8170000285B
:1019D00040F08680FFE70898C06D40F4807040F6C4
:1019E000016188430899C8650898006840F20011B1
:1019F000C5F20001884204D1FFE74FF0A0400290F9
:101A000015E00898006840F20051C5F200018842D4
:101A100006D1FFE740F20040C5F20000019003E06C
:101A2000089800680190FFE701980290FFE702988C
:101A300008990968884203D0FFE7049830B9FFE7A6
:101A40000899C86D20F48010C865FFE70898C06D3C
:101A5000C004002806D5FFE70899086E20F00600AC
:101A6000086603E0089900200866FFE70898416DC2
:101A700040F25D50C0F60000C8620898416D40F227
:101A80005D60C0F6000008630898416D40F2316067
:101A9000C0F600004863089801681C200860FFE752
:101AA0000899002081F85800FFE708980168486805
:101AB00040F01000486008980168C86840F00100D4
:101AC000C86008980168406D4031079A069B00F095
:101AD000C1F98DF817000898006802F0F7FF06E0DA
:101AE000FFE70899002081F85800FFE7FFE709E0C9
:101AF00001208DF81700FFE70899002081F85800B1
:101B0000FFE7FFE703E002208DF81700FFE79DF8ED
:101B100017008DF82700FFE79DF827000AB080BD69
:101B200080B584B00290FFE7029890F85800012831
:101B300004D1FFE702208DF80F002DE0029901206B
:101B400081F85800FFE7FFE702980321FEF73EFC0B
:101B50008DF807009DF8070098B9FFE70298FEF797
:101B600089FD8DF807009DF8070048B9FFE7029846
:101B7000C06D40F0010020F488500299C865FFE76D
:101B8000FFE7FFE70299002081F85800FFE79DF882
:101B900007008DF80F00FFE79DF80F0004B080BD2F
:101BA00080B584B003900398006C0068029003989D
:101BB00000680068019002980399496C01F01F01C8
:101BC000C8404007002825D5FFE79DF804004007DE
:101BD00000281FD5FFE703980068006880060028EA
:101BE00007D4FFE703980168086820F00400086044
:101BF000FFE70398016C406C00F01F020420904046
:101C000048600398006B20B1FFE70398016B884799
:101C1000FFE76EE002980399496C01F01F01C8408C
:101C2000800700282FD5FFE79DF8040080070028D3
:101C300029D5FFE7039800680068800600280BD4C8
:101C4000FFE703980168086820F00A00086003991C
:101C5000012081F82500FFE70398016C406C00F03B
:101C60001F02022090404860FFE70399002081F89E
:101C70002400FFE70398C06A20B1FFE70398C16A18
:101C80008847FFE734E002980399496C01F01F018F
:101C9000C8400007002829D5FFE79DF80400000789
:101CA000002823D5FFE703980168086820F00E009C
:101CB00008600398026C406C00F01F01012000FADC
:101CC00001F151600399C863039981F82500FFE78A
:101CD0000399002081F82400FFE70398406B20B1AE
:101CE000FFE70398416B8847FFE700E0FFE7FFE766
:101CF000FFE704B080BD000080B584B00290029878
:101D000020B9FFE701208DF80F009EE002980068DF
:101D100040F20741C4F20201884218D8FFE7029955
:101D200008684FF6F872CBF6FD7210444CF6CD42BF
:101D3000CCF6CC42A0FB02026FF0030000EA920056
:101D4000486402990020C4F20200086418E0029975
:101D500008684FF6F832CBF6FD7210444CF6CD42CF
:101D6000CCF6CC42A0FB02026FF0030000EA920026
:101D70004864029940F20040C4F202000864FFE7A0
:101D80000299022081F825000298006800680190FD
:101D9000019847F6F0718843019002998868D1F85C
:101DA0000CC00B694A6940EA0C00184310438A6969
:101DB0001043CA691043096A01430198084301901E
:101DC00001980299096808600298FEF765FD02987B
:101DD0008068B0F5804F04D1FFE702990020486089
:101DE000FFE702994868896C00F07F00086002985C
:101DF000C16C006D48600298406888B1FFE70298A6
:101E0000406804280CD8FFE70298FEF78DFD029881
:101E1000416D002008600298816DC06D486007E048
:101E2000029900204865029988650299C865FFE714
:101E300002990020C863029A012182F825100299B4
:101E400081F824008DF80F00FFE79DF80F0004B023
:101E500080BD000080B586B004900391029201938A
:101E600000208DF80300FFE7049890F82400012873
:101E700004D1FFE702208DF8170065E004990120E6
:101E800081F82400FFE7FFE7049890F82500012877
:101E90004BD1FFE70499022081F825000499002026
:101EA000C86304980168086820F00100086004987D
:101EB0000399029A019BFEF757FD0498006B38B115
:101EC000FFE704980168086840F00E0008600CE025
:101ED00004980168086820F004000860049801680C
:101EE000086840F00A000860FFE70498806C00680A
:101EF000C003002807D5FFE70498816C086840F408
:101F000080700860FFE70498406D38B1FFE70498DF
:101F1000416D086840F480700860FFE7049801682C
:101F2000086840F00100086009E0FFE7049900201C
:101F300081F82400FFE702208DF80300FFE79DF8F9
:101F400003008DF81700FFE79DF8170006B080BD6D
:101F50008BB00A90099100200890FFE7099800686B
:101F60000899C840002800F0B181FFE7099800688F
:101F7000089A01219140084007900798002800F036
:101F8000A181FFE70998406800F00300012807D00D
:101F9000FFE70998406800F0030002282FD1FFE70F
:101FA0000A988068069008984100032000FA01F121
:101FB0000698884306900998C0680899490000FA75
:101FC00001F106980843069006980A9988600A98D5
:101FD000406806900899012000FA01F106988843AC
:101FE000069009984068C0F30010089900FA01F1C2
:101FF00006980843069006980A994860FFE70998F2
:10200000406800F0030003280CD1FFE709984068FE
:1020100000F0030003281DD1FFE70998806801281C
:1020200018D0FFE70A98C06806900898410003207E
:1020300000FA01F10698884306900998806808998B
:10204000490000FA01F106980843069006980A999B
:10205000C860FFE70998406800F00300022826D115
:10206000FFE70A9808996FF0030202EA5101084459
:10207000006A0690089800F0070081000F2000FA1F
:1020800001F106988843069009980069089901F0C3
:102090000701890000FA01F10698084306900698A6
:1020A0000A99089B02EA530211440862FFE70A9862
:1020B0000068069008984100032000FA01F1069894
:1020C000884306900998406800F003000899490089
:1020D00000FA01F106980843069006980A990860EC
:1020E000099880798007002800F0EB80FFE7FFE780
:1020F00041F26000C4F20200016841F00101016098
:10210000006800F0010005900598FFE7089820F0AE
:1021100003000821C4F2010140580690089800F01D
:10212000030081000F2000FA01F106988843069011
:102130000A98B0F1904F03D1FFE70020049042E0ED
:102140000A9840F20041C4F60001884203D1FFE73B
:102150000120039034E00A9840F60001C4F6000123
:10216000884203D1FFE70220029026E00A9840F659
:102170000041C4F60001884203D1FFE7032001902B
:1021800018E00A9841F20001C4F60001884203D128
:10219000FFE7042000900AE00A9941F20042C4F6E9
:1021A00000020620914208BF05200090FFE700983A
:1021B0000190FFE701980290FFE702980390FFE784
:1021C00003980490FFE70498089901F0030189003F
:1021D00000FA01F10698084306900698089921F044
:1021E00003010822C4F20102885040F20840C4F200
:1021F00001000068069007990698884306900998A0
:102200008079C006002805D5FFE70799069808439E
:102210000690FFE7069840F20841C4F20101086009
:1022200040F20C40C4F2010000680690079906983D
:1022300088430690099880798006002805D5FFE735
:102240000799069808430690FFE7069840F20C416C
:10225000C4F20101086040F20440C4F201000068C9
:102260000690079906988843069009988079800718
:10227000002805D5FFE70799069808430690FFE771
:10228000069840F20441C4F20101086040F20040A7
:10229000C4F20100006806900799069888430690EA
:1022A00009988079C00728B1FFE707990698084385
:1022B0000690FFE7069840F20041C4F20101086071
:1022C000FFE7FFE708980130089047E60BB070473A
:1022D00082B00190ADF802108DF801209DF8010048
:1022E00028B1FFE7BDF802000199886104E0BDF85C
:1022F000020001998862FFE702B0704740F2C430E3
:10230000C2F200000068704740F23000C2F20000E4
:10231000026840F2C431C2F200010868104408604B
:102320007047000080B582B000208DF807000320C0
:1023300000F09AF80F2000F00DF820B1FFE701201F
:102340008DF8070002E000F049F8FFE79DF807006C
:1023500002B080BD80B582B0019000208DF80300EE
:1023600040F23000C2F20000006878B3FFE740F2AC
:102370000000C2F20000006840F23001C2F2000129
:102380000A684FF47A71B1FBF2F1B0FBF1F001F0A1
:10239000D7F9B0B9FFE701980F280DD8FFE70199E9
:1023A0004FF0FF30002200F047F8019840F234016E
:1023B000C2F20001086003E001208DF80300FFE78E
:1023C00003E001208DF80300FFE703E001208DF812
:1023D0000300FFE79DF8030002B080BD80B582B026
:1023E000FFE741F26000C4F20200016841F0010120
:1023F0000160006800F0010001900198FFE7FFE72D
:1024000041F25800C4F20200016841F080510160BD
:10241000006800F0805000900098FFE700F006F997
:1024200002B080BD80B582B08DF807009DF907002D
:1024300004F056F802B080BD80B586B08DF8170064
:102440000491039204F064F802909DF91700019042
:1024500002980499039A02F029FE0146019804F0BB
:102460005FF806B080BD000080B582B00190019891
:1024700004F078F802B080BD85B00390039800287E
:102480005ED1FFE747F20000C4F20000006800F4EC
:10249000C060B0F5806F49D1FFE747F28001C4F218
:1024A0000001086820F48070086047F20002C4F25E
:1024B00000021168012060F34A21116040F200011E
:1024C000C2F200010968322251434DF68362C4F220
:1024D0001B32A1FB022100EB91400290FFE747F283
:1024E0001400C4F200000168002049050029019091
:1024F00006D5FFE70298002818BF01200190FFE7EA
:102500000198C00720B1FFE7029801380290E6E782
:1025100047F21400C4F2000000684005002804D50A
:10252000FFE703208DF813007CE008E047F280010C
:10253000C4F20001086820F480700860FFE76DE0D5
:102540000398B0F5007F5ED1FFE747F20000C4F2C8
:102550000000006800F4C060B0F5806F49D1FFE76B
:1025600047F28001C4F20001086840F480700860FE
:1025700047F20002C4F200021168012060F34A2110
:10258000116040F20001C2F2000109683222514399
:102590004DF68362C4F21B32A1FB022100EB914095
:1025A0000290FFE747F21400C4F200000168002027
:1025B00049050029009006D5FFE70298002818BFBA
:1025C00001200090FFE70098C00720B1FFE70298C4
:1025D00001380290E6E747F21400C4F200000068F8
:1025E0004005002804D5FFE703208DF8130019E00B
:1025F00008E047F28001C4F20001086840F48070EE
:102600000860FFE709E047F20001C4F20001086832
:10261000022262F34A200860FFE7FFE700208DF8FE
:102620001300FFE79DF8130005B0704747F208015B
:10263000C4F20001086840F4804008607047000060
:1026400080B586B0059000208DF80B008DF80A004B
:10265000059880780007002840F1B580FFE700204A
:102660008DF8090041F25800C4F202000068C00071
:10267000002813D4FFE7FFE741F25800C4F202003C
:10268000016841F080510160006800F080500190C5
:102690000198FFE701208DF80900FFE747F20001EC
:1026A000C4F20001086840F480700860FFF726FE5D
:1026B0000390FFE747F20000C4F200000068C00585
:1026C00000280CD4FFE7FFF719FE0399401A0328EE
:1026D00004D3FFE703208DF80B0000E0EAE79DF844
:1026E0000B0000285BD1FFE741F29000C4F202002A
:1026F000006800F4407004900498C8B1FFE70498A3
:102700000599096D884213D0FFE741F29001C4F2A8
:102710000201086820F440700490086840F480309A
:102720000860086820F48030086004980860FFE7BB
:102730009DF81000C007E0B1FFE7FFF7DFFD039051
:10274000FFE741F29000C4F2020000688007002811
:102750000ED4FFE7FFF7D2FD0399401A41F2893109
:10276000884204D3FFE703208DF80B0000E0E8E780
:10277000FFE79DF80B0060B9FFE741F29001C4F25A
:102780000201086820F44070059A126D1043086039
:1027900004E09DF80B008DF80A00FFE704E09DF8C7
:1027A0000B008DF80A00FFE79DF80900012809D108
:1027B000FFE741F25801C4F20201086820F080509E
:1027C0000860FFE7FFE705980078C00760B1FFE702
:1027D00041F28801C4F20201086820F00300059A62
:1027E000526810430860FFE70598007880070028CA
:1027F0000CD5FFE741F28801C4F20201086820F01D
:102800000C00059A926810430860FFE7059800786D
:10281000400700280CD5FFE741F28801C4F202010D
:10282000086820F03000059AD26810430860FFE77E
:1028300005980078000700280CD5FFE741F28801D1
:10284000C4F20201086820F0C000059A1269104322
:102850000860FFE705980078C00600280CD5FFE760
:1028600041F28801C4F20201086820F44070059A20
:10287000526910430860FFE7059800788006002839
:102880000CD5FFE741F28801C4F20201086820F488
:102890004060059A926910430860FFE70598007848
:1028A000400600280CD5FFE741F28801C4F202017E
:1028B000086820F44050059AD26910430860FFE789
:1028C00005980078000600280CD5FFE741F2880142
:1028D000C4F20201086820F44040059A126A1043CD
:1028E0000860FFE705984078C00760B1FFE741F254
:1028F0008801C4F20201086820F44030059A526A47
:1029000010430860FFE705988078800700280CD501
:10291000FFE741F29C01C4F20201086820F00300C5
:10292000059A926A10430860FFE70598407880078F
:1029300000280CD5FFE741F28801C4F202010868C3
:1029400020F44020059AD26A10430860FFE70598FA
:102950004078400700281BD5FFE741F28801C4F208
:102960000201086820F44010059A126B10430860B9
:102970000598006BB0F5801F09D1FFE741F20C010B
:10298000C4F20201086840F480100860FFE7FFE726
:1029900005984078000700281BD5FFE741F2880121
:1029A000C4F20201086820F44000059A526B1043FB
:1029B00008600598406BB0F5800F09D1FFE741F240
:1029C0000C01C4F20201086840F480100860FFE7BF
:1029D000FFE705984078C00600281BD5FFE741F2C5
:1029E0008801C4F20201086820F04070059A926BD9
:1029F000104308600598806BB0F1807F09D1FFE734
:102A000041F20C01C4F20201086840F48010086031
:102A1000FFE7FFE705984078800600281BD5FFE711
:102A200041F28801C4F20201086820F04060059A72
:102A3000D26B104308600598C06BB0F1006F09D1EC
:102A4000FFE741F20C01C4F20201086840F4801073
:102A50000860FFE7FFE705984078400600281BD58F
:102A6000FFE741F28801C4F20201086820F04060EB
:102A7000059A126C104308600598006CB0F1006F65
:102A800009D1FFE741F20C01C4F20201086840F4E9
:102A900080100860FFE7FFE70598407800060028EF
:102AA0001BD5FFE741F28801C4F20201086820F05B
:102AB0004050059A526C104308600598406CB0F184
:102AC000805F09D1FFE741F20C01C4F202010868FE
:102AD00040F480300860FFE7FFE705988078C00782
:102AE000D8B1FFE741F28801C4F20201086820F082
:102AF0004040059A926C104308600598806CB0F1D4
:102B0000804F09D1FFE741F20C01C4F202010868CD
:102B100040F480300860FFE7FFE7059880784007C1
:102B200000281BD5FFE741F29C01C4F202010868AE
:102B300020F44010059AD26C104308600598C06CD0
:102B4000B0F5001F09D1FFE741F20C01C4F2020108
:102B5000086840F480100860FFE7FFE79DF80A006E
:102B600006B080BD80B586B004900391002000902F
:102B7000049820B9FFE701208DF8170081E1039840
:102B800042F20001C4F20201096801F00F0188421B
:102B900016D9FFE742F20000C4F20200016821F0FA
:102BA0000F01039A11430160006800F00F000399C0
:102BB000884204D0FFE701208DF8170061E1FFE7AC
:102BC00004980078C007002800F0A380FFE704986D
:102BD0004068032839D1FFE741F20000C4F2020047
:102BE00000688001002804D4FFE701208DF8170059
:102BF00047E102F057FC019001984BF20141C0F20D
:102C0000C441884220D3FFE741F20800C4F2020029
:102C1000006810F0F00F0AD0FFE7049800788007F2
:102C2000002810D5FFE70498806860B9FFE741F2FB
:102C30000801C4F202010868082262F30710086064
:102C400080200090FFE7FFE738E004984068022802
:102C50000ED1FFE741F20000C4F2020000688003D9
:102C6000002804D4FFE701208DF8170009E10DE0EA
:102C700041F20000C4F2020000684005002804D4BC
:102C8000FFE701208DF81700FBE0FFE700F0FEF8FA
:102C9000019001984BF20141C0F2C44188420CD32B
:102CA000FFE741F20801C4F202010868082262F35A
:102CB0000710086080200090FFE7FFE741F208015D
:102CC000C4F20201086820F00300049A526810431D
:102CD0000860FFF713FB0290FFE741F20800C4F21F
:102CE0000200006800F00C0004994968B0EB810F05
:102CF0000ED0FFE7FFF702FB0299401A41F289313B
:102D0000884204D3FFE703208DF81700B9E0E4E719
:102D1000FFE704980078800700282CD5FFE7049887
:102D200000784007002809D5FFE741F20801C4F206
:102D30000201086840F4E0600860FFE7049800784A
:102D4000000700280BD5FFE741F20801C4F2020199
:102D5000086840F4E06020F460500860FFE741F24A
:102D60000801C4F20201086820F0F000049A926899
:102D7000104308600DE00098802809D1FFE741F278
:102D80000801C4F20201086820F0F0000860FFE7C3
:102D9000FFE7039842F20001C4F20201096801F062
:102DA0000F01884228D2FFE742F20001C4F202017B
:102DB000086820F00F00039A10430860FFF79EFA9E
:102DC0000290FFE742F20000C4F20200006800F047
:102DD0000F00039988420ED0FFE7FFF78FFA0299A0
:102DE000401A41F28931884204D3FFE703208DF86D
:102DF000170046E0E6E7FFE7049800784007002860
:102E00000CD5FFE741F20801C4F20201086820F482
:102E1000E060049AD26810430860FFE704980078E5
:102E2000000700280DD5FFE741F20801C4F20201B6
:102E3000086820F46050049A126940EAC2000860F1
:102E4000FFE700F023F841F20801C4F2020109682B
:102E5000C9B20A0947F25C51C0F60001895C01F071
:102E60001F01C84040F20001C2F20001086040F2B8
:102E70003400C2F200000068FFF76CFA8DF817000A
:102E8000FFE79DF8170006B080BD000086B041F254
:102E90000800C4F20200006800F00C00042806D10B
:102EA000FFE742F20040C0F2F400019069E041F215
:102EB0000800C4F20200006800F00C00082806D1E7
:102EC000FFE742F20040C0F2F400019058E041F206
:102ED0000800C4F20200006800F00C000C284BD17E
:102EE000FFE741F20C00C4F20200016801F00301A7
:102EF00004910068C1B2012000EB11100290049807
:102F00000090022815D0FFE70098032812D1FFE7B0
:102F1000029942F20040C0F2F400B0FBF1F041F23D
:102F20000C01C4F202010968C1F30621484305906F
:102F300011E0FFE7029942F20040C0F2F400B0FB5A
:102F4000F1F041F20C01C4F202010968C1F306215B
:102F500048430590FFE741F20C00C4F2020000680C
:102F600000F0C061022000EB116003900598039906
:102F7000B0FBF1F0019002E000200190FFE7FFE7D5
:102F8000FFE7019806B07047B0B588B00690069884
:102F900020B9FFE701208DF81F00CCE306980078E8
:102FA000C007002800F09B80FFE741F20800C4F250
:102FB0000200006800F00C00049041F20C00C4F222
:102FC0000200006800F00300039004980C2804D16C
:102FD000FFE70398032804D0FFE70498082812D1DC
:102FE000FFE741F20000C4F20200006880030028FD
:102FF00008D5FFE70698406820B9FFE701208DF863
:103000001F0098E36AE0FFE706984068B0F5803F4C
:1030100009D1FFE741F20001C4F20201086840F45F
:103020008030086020E006984068B0F5A02F0DD1F0
:10303000FFE741F20001C4F20201086840F4802079
:103040000860086840F4803008600CE041F200013C
:10305000C4F20201086820F480300860086820F497
:1030600080200860FFE7FFE7FFE706984068D0B1DF
:10307000FFE7FFF743F90590FFE741F20000C4F2D4
:1030800002000068800300280CD4FFE7FFF736F940
:103090000599401A652804D3FFE703208DF81F0027
:1030A00049E3EAE719E0FFF729F90590FFE741F264
:1030B0000000C4F202000068800300280CD5FFE77E
:1030C000FFF71CF90599401A652804D3FFE7032090
:1030D0008DF81F002FE3EAE7FFE7FFE7FFE7069819
:1030E00000788007002840F19F80FFE741F2080048
:1030F000C4F20200006800F00C00049041F20C00E1
:10310000C4F20200006800F00300039004980C2849
:1031100004D1FFE70398022804D0FFE704980428AD
:103120002CD1FFE741F20000C4F202000068400524
:10313000002808D5FFE70698C06820B9FFE70120FE
:103140008DF81F00F7E241F20401C4F202010868A1
:1031500020F0FE40069A126940EA0260086040F2E0
:103160003400C2F200000068FFF7F4F820B1FFE776
:1031700001208DF81F00DEE2FFE754E00698C068EA
:1031800070B3FFE741F20001C4F20201086840F4A5
:1031900080700860FFF7B2F80590FFE741F2000089
:1031A000C4F202000068400500280CD4FFE7FFF7D6
:1031B000A5F80599401A032804D3FFE703208DF8EA
:1031C0001F00B8E2EAE741F20401C4F20201086814
:1031D00020F0FE40069A126940EA0260086021E091
:1031E00041F20001C4F20201086820F48070086016
:1031F000FFF784F80590FFE741F20000C4F20200F7
:103200000068400500280CD5FFE7FFF777F805991F
:10321000401A032804D3FFE703208DF81F008AE239
:10322000EAE7FFE7FFE7FFE70698007800070028D6
:1032300049D5FFE70698406910B3FFE741F29401D2
:10324000C4F20201086840F001000860FFF756F878
:103250000590FFE741F29400C4F202000068800785
:1032600000280CD4FFE7FFF749F80599401A032816
:1032700004D3FFE703208DF81F005CE2EAE721E0BA
:1032800041F29401C4F20201086820F001000860D4
:10329000FFF734F80590FFE741F29400C4F2020012
:1032A0000068800700280CD5FFE7FFF727F805998D
:1032B000401A032804D3FFE703208DF81F003AE2E9
:1032C000EAE7FFE7FFE7069800784007002840F1AB
:1032D000C680FFE700208DF80B0041F25800C4F2D1
:1032E00002000068C000002813D4FFE7FFE741F2A6
:1032F0005800C4F20200016841F08051016000688A
:1033000000F0805001900198FFE701208DF80B003C
:10331000FFE747F20000C4F200000068C005002883
:1033200022D4FFE747F20001C4F20001086840F42C
:1033300080700860FEF7E2FF0590FFE747F20000AB
:10334000C4F200000068C00500280CD4FFE7FEF7B7
:10335000D5FF0599401A032804D3FFE703208DF811
:103360001F00E8E1EAE7FFE7FFE706988068012829
:1033700009D1FFE741F29001C4F20201086840F070
:10338000010008601FE00698806805280DD1FFE75E
:1033900041F29001C4F20201086840F004000860A4
:1033A000086840F0010008600CE041F29001C4F2AE
:1033B0000201086820F001000860086820F004009D
:1033C0000860FFE7FFE7FFE706988068E0B1FFE7E6
:1033D000FEF794FF0590FFE741F29000C4F202006F
:1033E0000068800700280ED4FFE7FEF787FF0599E5
:1033F000401A41F28931884204D3FFE703208DF857
:103400001F0098E1E8E71BE0FEF778FF0590FFE773
:1034100041F29000C4F202000068800700280ED537
:10342000FFE7FEF76BFF0599401A41F289318842A8
:1034300004D3FFE703208DF81F007CE1E8E7FFE7F6
:103440009DF80B00012809D1FFE741F25801C4F2B1
:103450000201086820F080500860FFE7FFE7069847
:1034600000788006002849D5FFE70698806910B3E8
:10347000FFE741F29801C4F20201086840F0010040
:103480000860FEF73BFF0590FFE741F29800C4F2A9
:1034900002000068800700280CD4FFE7FEF72EFF2B
:1034A0000599401A032804D3FFE703208DF81F0075
:1034B00041E1EAE721E041F29801C4F20201086823
:1034C00020F001000860FEF719FF0590FFE741F2C8
:1034D0009800C4F202000068800700280CD5FFE7BE
:1034E000FEF70CFF0599401A032804D3FFE70320D9
:1034F0008DF81F001FE1EAE7FFE7FFE70698C069C4
:10350000002800F01481FFE741F20800C4F2020035
:10351000006800F00C000C2800F0B080FFE706986F
:10352000C06902287CD1FFE741F20001C4F2020128
:10353000086820F080700860FEF7E0FE0590FFE765
:1035400041F20000C4F202000068800100280CD59E
:10355000FFE7FEF7D3FE0599401A032804D3FFE7DF
:1035600003208DF81F00E6E0EAE741F20C01C4F207
:103570000201086848F20C02C0F29F121040DDF808
:1035800018C0DCF82020DCF82450DCF828E0DCF857
:103590002C306FF00F0404EB0514224342EA0E2294
:1035A000DCF8304040F2000ECFF6E07E0EEA045E1A
:1035B000AEF5001E42EA0E02DCF834E04FF07E4C1D
:1035C0000CEA0E6C0CF17E4C42EA0C0242EAC36239
:1035D0001043086041F20002C4F20202106840F099
:1035E00080701060086840F080700860FEF786FE0A
:1035F0000590FFE741F20000C4F20200006880017C
:1036000000280CD4FFE7FEF779FE0599401A03283D
:1036100004D3FFE703208DF81F008CE0EAE72CE0DD
:1036200041F20001C4F20201086820F080700860D5
:10363000FEF764FE0590FFE741F20000C4F20200CD
:103640000068800100280CD5FFE7FEF757FE0599BA
:10365000401A032804D3FFE703208DF81F006AE017
:10366000EAE741F20C01C4F2020108684FF6FC726D
:10367000CFF6EE6210400860FFE757E00698C06999
:10368000012804D1FFE701208DF81F0053E041F22B
:103690000C00C4F2020000680390039800F00300DD
:1036A0000699096A88423BD1FFE7039800F0F000D1
:1036B00006994A6A6FF00F0101EB021188422FD17F
:1036C000FFE7039800F4FE400699896AB0EB012FEA
:1036D00026D1FFE7039800F078400699C96AB0EB5D
:1036E000C16F1DD1FFE7039800F4C00006990A6B73
:1036F0000021CFF6E07101EA0251A1F500118842E4
:103700000ED1FFE7039800F0C06006994A6B4FF0B6
:103710007E4101EA026101F17E41884204D0FFE767
:1037200001208DF81F0006E0FFE7FFE7FFE700201C
:103730008DF81F00FFE79DF81F0008B0B0BD000026
:1037400080B582B00190019802F034F802B080BDDB
:1037500081B0009001B0704781B0009001B0704717
:1037600081B0009001B0704784B0029001910020B8
:103770000090FFE7029890F83C00012804D1FFE791
:1037800002208DF80F008CE00299012081F83C00A6
:10379000FFE7FFE7009820F0FF000199C9680843A0
:1037A0000090009820F440700199896808430090C7
:1037B000009820F4806001994968084300900098BF
:1037C00020F400600199096808430090009820F4F3
:1037D00080500199096908430090009820F4005036
:1037E0000199496908430090009820F480400199AC
:1037F000096B08430090009820F4702001998969B2
:1038000040EA01400090009820F080500199C96979
:10381000084300900298006842F60041C4F201019A
:10382000884212D0FFE70298006843F20041C4F2D8
:103830000101884209D0FFE70298006845F20001C3
:10384000C4F2010188421ED1FFE7009820F4700005
:103850000199896A40EA01500090009820F0807038
:103860000199096A08430090009820F000700199BE
:10387000496A08430090009820F000500199C96AF5
:1038800008430090FFE70098029909684864FFE741
:103890000299002081F83C00FFE700208DF80F001E
:1038A000FFE79DF80F0004B07047000081B0009062
:1038B00001B0704781B0009001B0704781B00090B6
:1038C00001B0704785B003900291FFE7039890F82C
:1038D0003C00012804D1FFE702208DF81300A7E087
:1038E0000399012081F83C00FFE7FFE703990220DC
:1038F00081F83D00039800684068019003980068D3
:10390000806800900398006842F60041C4F201010B
:10391000884212D0FFE70398006843F20041C4F2E6
:103920000101884209D0FFE70398006845F20001D1
:10393000C4F2010188420AD1FFE7019820F4700027
:10394000019002984168019808430190FFE70198AF
:103950004FF68F71CFF6FF51084001900298016831
:1039600001980843019001980399096848600398F9
:10397000006842F60041C4F2010188423CD0FFE7F2
:1039800003980068B0F1804F36D0FFE703980068D5
:1039900040F20041C4F2000188422DD0FFE70398B5
:1039A000006840F60001C4F20001884224D0FFE71D
:1039B0000398006840F60041C4F2000188421BD021
:1039C000FFE70398006843F20041C4F20101884216
:1039D00012D0FFE70398006844F20001C4F201012D
:1039E000884209D0FFE70398006845F20001C4F25D
:1039F000010188420ED1FFE7009820F0800000907E
:103A0000029881680098084300900098039909681B
:103A10008860FFE70399012081F83D00FFE70399E3
:103A2000002081F83C00FFE700208DF81300FFE73D
:103A30009DF8130005B0704780B58AB008900791D3
:103A4000079828B9FFE7089890F8440005901CE013
:103A50000798042805D1FFE7089890F845000490DE
:103A600010E00798082805D1FFE7089890F846006D
:103A7000039004E0089890F847000390FFE703984C
:103A80000490FFE704980590FFE70598012804D00B
:103A9000FFE701208DF827009BE0079828B9FFE792
:103AA0000899022081F844001EE00798042806D1F6
:103AB000FFE70899022081F84500029012E007987C
:103AC000082806D1FFE70899022081F846000190F6
:103AD00005E00899022081F847000190FFE701986E
:103AE0000290FFE70298FFE7089800680799042210
:103AF00001F0E4FF08980168486C40F40040486415
:103B00000898006842F60041C4F2010188423CD0A6
:103B1000FFE708980068B0F1804F36D0FFE70898BB
:103B2000006840F20041C4F2000188422DD0FFE756
:103B30000898006840F60001C4F20001884224D0D1
:103B4000FFE70898006840F60041C4F2000188428F
:103B50001BD0FFE70898006843F20041C4F201015E
:103B6000884212D0FFE70898006844F20001C4F2CE
:103B70000101884209D0FFE70898006845F200017A
:103B8000C4F20101884219D1FFE7089800688068F3
:103B90000721C0F2010108400690069806280CD0C3
:103BA000FFE70698B0F5803F07D0FFE70898016867
:103BB000086840F001000860FFE706E00898016827
:103BC000086840F001000860FFE700208DF827003A
:103BD000FFE79DF827000AB080BD000081B000908B
:103BE00001B0704780B582B00090009820B9FFE71F
:103BF00001208DF8070045E0009890F83D0040B99D
:103C0000FFE70099002081F83C00009800F03EF8A2
:103C1000FFE70099022081F83D00009951F8040B5C
:103C200001F042FE0099012081F84800FFE7009969
:103C3000012081F83E00009981F83F00009981F849
:103C40004000009981F84100009981F842000099F4
:103C500081F84300FFE7FFE70099012081F8440065
:103C6000009981F84500009981F84600009981F893
:103C70004700FFE70099012081F83D0000208DF802
:103C80000700FFE79DF8070002B080BD80B584B053
:103C900003900398006842F60041C4F20101884293
:103CA00010D1FFE7FFE741F26000C4F202000168B3
:103CB00041F400610160006800F400600290029825
:103CC000FFE722E00398006841F20001C4F200011E
:103CD000884219D1FFE7FFE741F25800C4F2020021
:103CE000016841F010010160006800F010000190CF
:103CF0000198FFE73620009000221146FEF79CFB5A
:103D00000098FEF78FFBFFE7FFE704B080BD0000DF
:103D100083B00190019890F83D00012804D0FFE79E
:103D200001208DF80B006CE00199022081F83D0024
:103D30000198006842F60041C4F2010188423CD07B
:103D4000FFE701980068B0F1804F36D0FFE7019897
:103D5000006840F20041C4F2000188422DD0FFE724
:103D60000198006840F60001C4F20001884224D0A6
:103D7000FFE70198006840F60041C4F20001884264
:103D80001BD0FFE70198006843F20041C4F2010133
:103D9000884212D0FFE70198006844F20001C4F2A3
:103DA0000101884209D0FFE70198006845F200014F
:103DB000C4F20101884219D1FFE7019800688068C8
:103DC0000721C0F2010108400090009806280CD09D
:103DD000FFE70098B0F5803F07D0FFE70198016842
:103DE000086840F001000860FFE706E001980168FC
:103DF000086840F001000860FFE700208DF80B0024
:103E0000FFE79DF80B0003B07047000080B586B057
:103E10000490039100208DF80B00FFE7049890F8C0
:103E20003C00012804D1FFE702208DF81700E7E0ED
:103E30000499012081F83C00FFE7FFE70499022084
:103E400081F83D00049800688068019001984FF661
:103E50008871CFF6CE7108400190019820F47F4020
:103E6000019001980499096888600398006800909F
:103E7000002800F0AB80FFE70098102800F0A68033
:103E8000FFE70098202800F0A180FFE70098302885
:103E900000F09C80FFE70098402800F08A80FFE750
:103EA000009850286BD0FFE70098602874D0FFE797
:103EB000009870283FD0FFE70098B0F5805F39D0B8
:103EC000FFE70098B0F5005F4AD0FFE70098B0F533
:103ED000801F7BD0FFE70098B0F1101F76D0FFE77E
:103EE00000982021C0F2100188426FD0FFE70098AF
:103EF0003021C0F21001884268D0FFE700984021CD
:103F0000C0F21001884261D0FFE700985021C0F252
:103F1000100188425AD0FFE700986021C0F21001DA
:103F2000884253D0FFE700987021C0F21001884208
:103F30004CD052E055E004980068039B5A68996899
:103F4000DB6801F0D7FD0498006880680190019853
:103F500040F077000190019804990968886040E07A
:103F600004980068039B5A689968DB6801F0C2FDF9
:103F700004980168886840F48040886031E00498C3
:103F80000068039A5168D26802F0E2F90498006868
:103F9000502101F0C9FD24E004980068039A51689B
:103FA000D26802F033FA04980068602101F0BCFD89
:103FB00017E004980068039A5168D26802F0C8F9C3
:103FC00004980068402101F0AFFD0AE00498006801
:103FD0000399096801F0A8FD03E001208DF80B00AA
:103FE000FFE70499012081F83D00FFE704990020D4
:103FF00081F83C00FFE79DF80B008DF81700FFE704
:104000009DF8170006B080BD81B0009001B07047E8
:1040100080B584B0039003980068C068029003984C
:104020000068006901909DF804008007002824D5ED
:10403000FFE79DF80800800700281DD5FFE70398DB
:1040400001686FF002000861039901200877039866
:1040500000688069800720B1FFE70398FFF7D4FF6D
:1040600006E0039800F0DCF9039800F00DFBFFE791
:10407000039900200877FFE7FFE79DF80400400759
:10408000002825D5FFE79DF80800400700281ED529
:10409000FFE7039801686FF00400086103990220AC
:1040A000087703980068806910F4407F04D0FFE728
:1040B0000398FFF7A9FF06E0039800F0B1F9039811
:1040C00000F0E2FAFFE7039900200877FFE7FFE737
:1040D0009DF804000007002824D5FFE79DF808009C
:1040E000000700281DD5FFE7039801686FF008005E
:1040F000086103990420087703980068C069800765
:1041000020B1FFE70398FFF77FFF06E0039800F078
:1041100087F9039800F0B8FAFFE7039900200877C1
:10412000FFE7FFE79DF80400C006002825D5FFE75C
:104130009DF80800C00600281ED5FFE70398016817
:104140006FF0100008610399082008770398006851
:10415000C06910F4407F04D0FFE70398FFF754FFD5
:1041600006E0039800F05CF9039800F08DFAFFE791
:10417000039900200877FFE7FFE79DF80400C007D8
:1041800078B1FFE79DF80800C00748B1FFE7039842
:1041900001686FF001000861039800F0C5FBFFE7BC
:1041A000FFE7019800F08000802806D0FFE79DF827
:1041B00005008006002810D5FFE79DF808000006DE
:1041C000002809D5FFE7039801686FF402500861E1
:1041D0000398FFF7C1FAFFE7FFE79DF80500C00766
:1041E00080B1FFE79DF808000006002809D5FFE729
:1041F000039801686FF4807008610398FFF7A8FACC
:10420000FFE7FFE79DF804004006002810D5FFE710
:104210009DF808004006002809D5FFE703980168CB
:104220006FF040000861039800F082FBFFE7FFE7B2
:104230009DF804008006002810D5FFE79DF80800CF
:104240008006002809D5FFE7039801686FF0200079
:1042500008610398FFF784FAFFE7FFE79DF806007F
:10426000C006002810D5FFE79DF80A00C006002808
:1042700009D5FFE7039801686FF48010086103987F
:10428000FFF718FBFFE7FFE79DF806008006002810
:1042900010D5FFE79DF80A008006002809D5FFE742
:1042A000039801686FF4001008610398FFF7FEFAA5
:1042B000FFE7FFE79DF806004006002810D5FFE75E
:1042C0009DF80A004006002809D5FFE70398016819
:1042D0006FF4800008610398FFF7F0FAFFE7FFE74B
:1042E0009DF806000006002810D5FFE79DF80A009B
:1042F0000006002809D5FFE7039801686FF4000065
:1043000008610398FFF76AFCFFE7FFE704B080BD90
:1043100080B58EB00D9000200C900B900A90099003
:1043200008900D98006842F60041C4F201018842ED
:1043300073D1FFE7FFE741F24C00C4F202000168CD
:1043400041F004010160006800F004000790079844
:10435000FFE7FFE741F24C00C4F20200016841F0C0
:1043600001010160006800F0010006900698FFE777
:10437000FFE741F24C00C4F20200016841F0020183
:104380000160006800F0020005900598FFE70F202B
:104390000890022001900990002102910A910B914E
:1043A0000C9040F60000C4F60000009008A90491AB
:1043B000FDF7CEFD019A0298049980230893099293
:1043C0000A900B90062003900C904FF09040FDF760
:1043D000BFFD0098DDF804C0029B039A04994FF0DA
:1043E000200ECDF820E0CDF824C00A930B930C9258
:1043F000FDF7AEFD019B029A039804994FF0030C60
:10440000CDF820C009930A920B920C9040F2004024
:10441000C4F60000FDF79CFDFFE70EB080BD000074
:1044200081B0009001B0704780B586B004900391D0
:10443000029200208DF80700FFE7049890F83C00F6
:10444000012804D1FFE702208DF81700C0E004998D
:10445000012081F83C00FFE7FFE702980090142854
:1044600000F2A7800099DFE801F00BA4A4A424A423
:10447000A4A43EA4A4A457A4A4A471A4A4A48A00A0
:1044800004980068039901F067FB04980168886943
:1044900040F00800886104980168886920F00400F1
:1044A00088610398026904980168886910438861EB
:1044B00083E004980068039901F00AFC04980168FD
:1044C000886940F40060886104980168886920F474
:1044D000806088610398026904980168886940EAED
:1044E0000220886169E004980068039901F0BAFC31
:1044F00004980168C86940F00800C8610498016820
:10450000C86920F00400C861039802690498016832
:10451000C8691043C86150E004980068039901F02D
:1045200069FD04980168C86940F40060C861049896
:104530000168C86920F48060C86103980269049822
:104540000168C86940EA0220C86136E00498006842
:10455000039901F019FE04980168086D40F0080005
:10456000086504980168086D20F004000865039848
:10457000026904980168086D104308651DE00498FD
:104580000068039901F072FE04980168086D40F418
:104590000060086504980168086D20F48060086573
:1045A0000398026904980168086D40EA02200865D2
:1045B00003E001208DF80700FFE7FFE704990020E2
:1045C00081F83C00FFE79DF807008DF81700FFE732
:1045D0009DF8170006B080BD80B582B000900098AD
:1045E00020B9FFE701208DF8070045E0009890F81A
:1045F0003D0040B9FFE70099002081F83C00009899
:1046000000F03EF8FFE70099022081F83D00009994
:1046100051F8040B01F048F90099012081F8480095
:10462000FFE70099012081F83E00009981F83F00E2
:10463000009981F84000009981F84100009981F8C3
:104640004200009981F84300FFE7FFE7009901204D
:1046500081F84400009981F84500009981F84600EE
:10466000009981F84700FFE70099012081F83D009B
:1046700000208DF80700FFE79DF8070002B080BD1D
:1046800081B0009001B0704781B0009001B07047D8
:1046900080B590B00E900D910D9828B9FFE70E9857
:1046A00090F83E000B9034E00D98042805D1FFE708
:1046B0000E9890F83F000A9028E00D98082805D140
:1046C000FFE70E9890F8400009901CE00D980C2828
:1046D00005D1FFE70E9890F84100089010E00D9882
:1046E000102805D1FFE70E9890F84200079004E0EB
:1046F0000E9890F843000790FFE707980890FFE7AF
:1047000008980990FFE709980A90FFE70A980B902C
:10471000FFE70B98012804D0FFE701208DF83F0048
:10472000FEE00D9828B9FFE70E99022081F83E00BF
:1047300038E00D98042806D1FFE70E99022081F891
:104740003F0006902CE00D98082806D1FFE70E994F
:10475000022081F8400005901FE00D980C2806D13A
:10476000FFE70E99022081F84100049012E00D98B5
:10477000102806D1FFE70E99022081F8420003902D
:1047800005E00E99022081F843000390FFE70398AB
:104790000490FFE704980590FFE705980690FFE76F
:1047A0000698FFE70E9800680D990122019201F02A
:1047B00069F901980E99096842F60042C4F20102B3
:1047C0009142029038D0FFE70E980168012043F231
:1047D0000042C4F20102914202902DD0FFE70E98F0
:1047E0000168012044F20002C4F2010291420290E9
:1047F00022D0FFE70E980168012044F20042C4F283
:1048000001029142029017D0FFE70E980168012043
:1048100044F60002C4F20102914202900CD0FFE77C
:104820000E9800684BF20001CBF6FE710844B0FA16
:1048300080F040090290FFE70298C00738B1FFE717
:104840000E980168486C40F400404864FFE70E98F9
:10485000006842F60041C4F2010188423CD0FFE703
:104860000E980068B0F1804F36D0FFE70E980068D0
:1048700040F20041C4F2000188422DD0FFE70E98BB
:10488000006840F60001C4F20001884224D0FFE72E
:104890000E98006840F60041C4F2000188421BD027
:1048A000FFE70E98006843F20041C4F2010188421C
:1048B00012D0FFE70E98006844F20001C4F2010133
:1048C000884209D0FFE70E98006845F20001C4F263
:1048D0000101884219D1FFE70E980068806807211E
:1048E000C0F2010108400C900C9806280CD0FFE79C
:1048F0000C98B0F5803F07D0FFE70E980168086874
:1049000040F001000860FFE706E00E9801680868C3
:1049100040F001000860FFE700208DF83F00FFE74E
:104920009DF83F0010B080BD81B0009001B070478D
:1049300081B0009001B07047FFE7FEE781B00090C2
:10494000009880684FF6C071C7F6FF7108400230CA
:104950000099886001B0704781B000900099886824
:104960004FF6C072C5F6FF721040886001B0704704
:1049700081B00090009880684FF6C071C7F6FF7153
:10498000084001300099886001B0704781B0009004
:104990000098806840F080504FF6C071C7F6FF71F4
:1049A00008400099886001B07047000081B0009015
:1049B0000098806800F0E07001B0704781B000900E
:1049C0000098806800F01F0001B0704783B002902B
:1049D00001910298019900EB8100603000900098ED
:1049E000006800F0F84003B07047000081B000900C
:1049F00000988068C0F3C00001B0704781B000909B
:104A0000009880684FF6C071C7F6FF7108402030EB
:104A10000099886001B0704781B00090009880686C
:104A2000C00F01B07047000081B00090009880680E
:104A3000C0F3407001B0704781B00090009880686A
:104A4000C0F3400001B0704781B0009000988068CA
:104A500000F0010001B0704781B0009000988068BC
:104A6000C0F3007001B0704781B00090009880687A
:104A7000C0F3800001B0704781B000900098C0681A
:104A800000F44060B0FA80F0400901B070470000C7
:104A900084B00390029101920398029901F440714D
:104AA00000EB91103030009000980068029901F0FE
:104AB0001F021F21914088430199C1F384619140F5
:104AC00008430099086004B07047000081B000906E
:104AD000009880684FF6C071C7F6FF710840043037
:104AE0000099886001B0704781B00090009880689C
:104AF0004FF6C071C7F6FF7108401030009988600A
:104B000001B0704784B0039002910192039802991A
:104B100001F0007100EBD150143000900098006853
:104B20000299C1F3045207219140884301999140B1
:104B300008430099086004B07047000083B00290F9
:104B4000019100920298D0F8B00001996FF3DF4113
:104B50008843009A02F018034FF6FF72C0F2070272
:104B6000DA40114008440299C1F8B00003B0704720
:104B700082B0019000910198806820F47C10009927
:104B800008430199886002B07047000082B001902C
:104B900000910198806820F0E07000990843019925
:104BA000886002B07047000085B0049003910292C3
:104BB00001930498039900EB810060300090009805
:104BC00000684FF20001C0F2FF310140029800F08E
:104BD000F840019A1043084340F0004000990860F3
:104BE00005B0704784B00390029101920398029936
:104BF00000EB8100603000900098006820F00070A9
:104C0000019908430099086004B0704784B003908C
:104C1000029101920398029900EB810060300090AC
:104C20000098006820F0807001990843009908609E
:104C300004B0704784B003900291019203980299E6
:104C400000EB8100603000900098006820F0004088
:104C5000019908430099086004B0704782B0019040
:104C600000910198406920F00040009908430199A3
:104C7000486102B07047000082B001900091019835
:104C800080684FF6C071C3F6FF710140009800F0D4
:104C90008040084400F100400199886002B07047EC
:104CA00080B58AB000210091099108910791069181
:104CB000059104910391029140F28410C2F2000028
:104CC000019040F20052C5F2000202604FF44032FF
:104CD00042608160C16001610122426104238361FD
:104CE000017741770323036280F824104FF4B46303
:104CF000C3624FF48063036380F83820C16380F897
:104D00004010FCF779FB18B1FFE7FBF767FEFFE700
:104D10002020C1F2F040029006200390072004906A
:104D20000020C4F27F000590042006900020079028
:104D300040F28410C2F2000002A9FBF7C7FE18B1CE
:104D4000FFE7FBF74BFEFFE70820C0F6904002901C
:104D50000C2003900420049040F28410C2F2000062
:104D600002A9FBF7B3FE18B1FFE7FBF737FEFFE739
:104D70000220C0F2304002901220039040F28410D2
:104D8000C2F2000002A9FBF7A1FE18B1FFE7FBF792
:104D900025FEFFE70AB080BD80B584B0FFE741F291
:104DA0004800C4F20200016841F00401016000689B
:104DB00000F0040003900398FFE7FFE741F248008A
:104DC000C4F20200016841F001010160006800F0D6
:104DD000010002900298FFE70B200190002211468B
:104DE000FDF72AFB0198FDF71DFB04B080BD000014
:104DF00080B58EB000200D900C900B900A90099019
:104E0000FFE741F24C00C4F20200016841F02001CA
:104E10000160006800F0200008900898FFE7FFE7B5
:104E200041F24C00C4F20200016841F0040101604B
:104E3000006800F0040007900798FFE7FFE741F2E1
:104E40004C00C4F20200016841F0010101600068F9
:104E500000F0010006900698FFE7FFE741F24C00E2
:104E6000C4F20200016841F002010160006800F034
:104E7000020005900598FFE7FFE741F24C00C4F2FD
:104E80000200016841F010010160006800F01000AC
:104E900004900498FFE740F60000C4F60000039079
:104EA0004FF48051019100220292FDF711FA019A0C
:104EB00002990398099201220A920B910C9109A977
:104EC000FDF746F80EB080BD80B59EB00020019081
:104ED0001D901C901B901A90199018901790169086
:104EE00015901490139012901190109003A83421F3
:104EF000FBF7F8F9019940F25020C2F2000002904D
:104F000042F60042C4F20102026041602022826047
:104F100041F29902C2600161416180218161FEF725
:104F200061FE18B1FFE7FBF759FDFFE74FF4805032
:104F30001A9040F25020C2F200001AA9FEF766FF54
:104F400018B1FFE7FBF74AFDFFE740F25020C2F23D
:104F50000000FFF741FB18B1FFE7FBF73FFDFFE75C
:104F6000002017901890199040F25020C2F20000D3
:104F700017A9FEF7A7FC18B1FFE7FBF72FFDFFE726
:104F800060201090002211921292139214921592A6
:104F9000169240F25020C2F2000010A9FFF744FA26
:104FA00018B1FFE7FBF71AFDFFE740F25020C2F20D
:104FB000000010A90422FFF737FA18B1FFE7FBF74A
:104FC0000DFDFFE740F25020C2F2000010A90822B8
:104FD000FFF72AFA18B1FFE7FBF700FDFFE740F201
:104FE0005020C2F2000010A90C22FFF71DFA18B1E0
:104FF000FFE7FBF7F3FCFFE700200090039004902D
:1050000005906A21069107904FF40051089109908C
:105010000A900B904FF000710C910D900E900F9034
:1050200040F25020C2F2000003A9FEF79DFB18B128
:10503000FFE7FBF7D3FCFFE740F25020C2F200008D
:10504000FFF766F91EB080BD80B584B000210391E2
:105050000291019140F29C20C2F2000041F2000254
:10506000C4F200020260A922426081606322C26031
:105070008161FEF7B7FD18B1FFE7FBF7AFFCFFE773
:10508000202001900020039040F29C20C2F20000FA
:1050900001A9FEF717FC18B1FFE7FBF79FFCFFE73C
:1050A00004B080BDFFE7FEE7FFE7FEE788B00790AA
:1050B00006910592079800F0070004900498C0F14B
:1050C0000700052803D3FFE70420019004E00498BB
:1050D000C0F107000190FFE70198039004980430A5
:1050E000062803D8FFE70020009003E00498033867
:1050F0000090FFE70098029006980399012202FAB7
:1051000001F101390840029B984005999A40013A03
:105110001140084308B0704780B59EB01D908DEDDA
:105120001C0ACDED1B0A8DED1A1A19911D9820B19C
:10513000FFE71D98006808B9FFE767E11D9890ED4B
:10514000010AB7EE001AB4EE410AF1EE10FA01DCE2
:10515000FFE75BE11D98406818909DED180AB6EED8
:10516000001A8DED011A20EE010A8DED170A9DED52
:105170001C0A9DED1B1A30EE010A9DED1A1A30EE45
:10518000010AB0EE081A80EE010A8DED160A9DEDB7
:105190001C0A9DED161A30EE410A8DED150A9DEDA3
:1051A0001B0A9DED161A30EE410A8DED140A9DED95
:1051B0001A0A9DED161A30EE410A8DED130A9DED87
:1051C000150ADDED140A9DED131A12A811A901F0BC
:1051D00021FD9DED011A9DED120A9DED112A30EE83
:1051E000020A20EE010A8DED100A9DED150A9DEDD3
:1051F000101A30EE410A8DED0F0A9DED140A9DED57
:10520000101A30EE410A8DED0E0A9DED130A9DED48
:10521000101A30EE410A8DED0D0A9DED0F0AB0EE29
:10522000C00A8DED0C0A9DED0E0AB0EEC00A8DEDA0
:105230000B0A9DED0D0AB0EEC00A8DED0A0A0C981E
:1052400009909DED0B0A9DED091AB4EE410AF1EEAD
:1052500010FA03DDFFE70B980990FFE79DED0A0ABE
:105260009DED091AB4EE410AF1EE10FA03DDFFE7F5
:105270000A980990FFE74FF07E5008909DED090ACB
:105280009DED171AB4EE410AF1EE10FA2BDDFFE79F
:105290009DED090A9FED5E1AB4EE410AF1EE10FA97
:1052A00021DDFFE79DED170A9DED091A80EE010A49
:1052B0008DED080A9DED081A9DED0F0A20EE010AFA
:1052C0008DED0F0A9DED081A9DED0E0A20EE010AE4
:1052D0008DED0E0A9DED081A9DED0D0A20EE010AD6
:1052E0008DED0D0AFFE79DED0F0A9DED181A80EE7A
:1052F000010AB6EE001A30EE010A8DED070A9DEDA7
:105300000E0A9DED182A80EE020A30EE010A8DED9C
:10531000060A9DED0D0A9DED182A80EE020A30EE78
:10532000010A8DED050A9DED070A1D98D0ED050ACD
:1053300090ED061A01F022FB8DED070A9DED060A9D
:105340001D98D0ED050A90ED061A01F017FB8DEDC2
:10535000060A9DED050A1D98D0ED050A90ED061A86
:1053600001F00CFB8DED050A9DED070A1D98006A02
:1053700001F03AFB04909DED060A1D98006A01F0C9
:1053800033FB03909DED050A1D98006A01F02CFB8C
:10539000029004981D9909680968486303981D994B
:1053A00009680968886302981D9909680968C863D3
:1053B000199858B3FFE71999002008601C981999AB
:1053C00048601B98199988601A981999C8601098B4
:1053D000199908610F98199948610E98199988616F
:1053E0000D981999C8610798199908620698199932
:1053F000486205981999886204981999C8620398B7
:1054000019990863029819994863FFE71EB080BD97
:10541000BD378635B0B584B00390029101920398F0
:1054200030B1FFE7029818B1FFE7019808B9FFE72C
:1054300020E0029803990860039901980268436884
:10544000D0F808C0D0F80CE0046945698D614C6162
:10545000C1F810E0C1F80CC08B604A608069C86177
:10546000039900204862039800F006F8039801F0C1
:105470003FFCFFE704B0B0BD81B00090009820B1C0
:10548000FFE70098006808B9FFE706E000980068A9
:105490000068C06A00990862FFE701B07047000029
:1054A0007047000086B041F20C00C4F202000168AF
:1054B00001F0030104910068C1B2012000EB11105A
:1054C000029004980090022815D0FFE70098032866
:1054D00012D1FFE7029942F20040C0F2F400B0FBA3
:1054E000F1F041F20C01C4F202010968C1F3062196
:1054F0004843059011E0FFE7029942F20040C0F2F4
:10550000F400B0FBF1F041F20C01C4F202010968B1
:10551000C1F3062148430590FFE741F20C00C4F2B5
:105520000200006800F0C061022000EB11600390EF
:1055300005980399B0FBF1F00190019806B070470F
:1055400086B005900491059818B1FFE7049808B952
:10555000FFE79AE0059900200090086005994860EF
:10556000059988600599C8600599086105994861A1
:10557000059988630599C86305990864049991EDB4
:10558000001A91ED012A91ED020A30EE000A20EE98
:10559000020A20EE010A8DED030A049991ED001A2A
:1055A00091ED010A20EE010A20EE000A8DED020ABB
:1055B0009DED031AB1EE000A31EE001A9DED022AAC
:1055C00031EE021A8DED011A9DED031A9DED012AAF
:1055D00081EE021A059981ED061A0599C8619DEDC3
:1055E000031AB1EE411A9DED012A81EE021A0598C7
:1055F00080ED081A049890ED021A9DED022A21EE22
:10560000021A9DED012A81EE021A059880ED091A11
:10561000049890ED021A31EE011A9DED022A21EE56
:10562000021A9DED012A81EE021A059880ED0A1AF0
:10563000049890ED021A9DED022A21EE021A9DEDCA
:10564000012A81EE021A059880ED0B1A9DED021ACF
:1056500031EE011ABAEE002A31EE021A9DED012A4E
:1056600081EE021A059880ED0C1A9DED031A30EEBA
:10567000410A9DED021A30EE010A9DED011A80EEFD
:10568000010A059880ED0D0AFFE706B0704700009B
:1056900088B007908DED060A0591079818B1FFE7CD
:1056A000059808B9FFE780E00798009090ED060A9A
:1056B0009DED065A90ED071A90ED006A90ED014AB3
:1056C00090ED023A90ED032A21EE061A20EE050A2B
:1056D00030EE011A90ED080A20EE040A30EE010ABD
:1056E00090ED0C1A21EE031A30EE410A90ED0D1ADE
:1056F00021EE021A30EE410A8DED040A079801905E
:1057000090ED090A9DED065A90ED0A1A90ED006A97
:1057100090ED014A90ED043A90ED052A21EE061A2B
:1057200020EE050A30EE011A90ED0B0A20EE040A75
:1057300030EE010A90ED0C1A21EE031A30EE410A08
:1057400090ED0D1A21EE021A30EE410A8DED030A9A
:105750009DED060A9DED041A30EE410A8DED020A18
:10576000079908684860069807990860079988684B
:10577000C860049807998860079908694861039888
:105780000799086104980799886303980799C86383
:105790000298079908640498059908600398059988
:1057A0004860029805998860FFE708B070470000DC
:1057B0007047000080B582B0009000980138B0F1C9
:1057C000807F03D3FFE70120019019E000980138A2
:1057D0004EF21401CEF2000108604FF0FF300F21AD
:1057E00000F09EFE4EF21801CEF20001002008608B
:1057F0004EF21002CEF20002072111600190FFE785
:10580000019802B080BD000080B5FCF77DFD80BD31
:1058100080B594B006A800903821FAF763FD002007
:1058200005900490039002900190FCF725FE0098EB
:10583000022106914FF48072099240220A920D9142
:105840000E9104220F9255221092119112911391F0
:10585000FDF79AFB18B1FFE7FBF7C0F8FFE70F2051
:10586000019003200290002003900490059001A86D
:105870000421FDF777F918B1FFE7FBF7AFF8FFE771
:1058800014B080BD4EF68851CEF20001086840F495
:10589000700008607047000080B540F29C20C2F2A2
:1058A0000000FEF7B5FB80BD83B002900191029825
:1058B00000680090029842F60041C4F2010188425B
:1058C0002DD0FFE70298B0F1804F28D0FFE7029873
:1058D00040F20041C4F20001884220D0FFE7029864
:1058E00040F60001C4F20001884218D0FFE7029898
:1058F00040F60041C4F20001884210D0FFE7029850
:1059000043F20041C4F20101884208D0FFE7029847
:1059100045F20001C4F2010188420AD1FFE7009874
:1059200020F07000009001984168009808430090B2
:10593000FFE7029842F60041C4F20101884245D0D7
:10594000FFE70298B0F1804F40D0FFE7029840F2A5
:105950000041C4F20001884238D0FFE7029840F6C7
:105960000001C4F20001884230D0FFE7029840F6FF
:105970000041C4F20001884228D0FFE7029843F2B8
:105980000041C4F20101884220D0FFE7029844F2AE
:105990000001C4F20101884218D0FFE7029844F2E6
:1059A0000041C4F20101884210D0FFE7029844F69A
:1059B0000001C4F20101884208D0FFE7029845F2D5
:1059C0000001C4F2010188420AD1FFE7009820F4E7
:1059D000407000900198C168009808430090FFE76C
:1059E000009820F0800001994969084300900198CF
:1059F00080680299C86201980068029988620298DA
:105A000042F60041C4F20101884228D0FFE7029823
:105A100043F20041C4F20101884220D0FFE702981E
:105A200044F20001C4F20101884218D0FFE7029855
:105A300044F20041C4F20101884210D0FFE702980D
:105A400044F60001C4F20101884208D0FFE7029841
:105A500045F20001C4F20101884205D1FFE7019837
:105A6000006902990863FFE70299086840F00400A2
:105A7000086002990120486100980299086003B00B
:105A80007047000084B0039002910192029800F0E8
:105A90001F01012088400090009A0399086A9043F2
:105AA00008620198029901F01F0100FA01F20399BE
:105AB000086A1043086204B07047000084B0039085
:105AC00002910192029800F00F010420884000909A
:105AD000009A0399086A904308620198029901F0BC
