:020000040800F2
:10000000886E00208502000859720008556A0008B1
:1000100055720008790A0008D9860008000000001F
:100020000000000000000000000000007D790008D2
:10003000A5220008000000006D760008D5790008B0
:100040009F0200089F0200089F0200089F0200080C
:100050009F0200089F0200089F0200089F020008FC
:100060009F0200089F0200089F0200087D0A000806
:100070009F0200089F0200089F0200089F020008DC
:100080009F0200089F0200089F0200089F020008CC
:100090009F0200089F0200089F0200089F020008BC
:1000A0009F0200089F0200089F0200089F020008AC
:1000B0009F0200089F0200089F0200089F0200089C
:1000C0009F0200089F0200089F0200089F0200088C
:1000D0009F0200089F0200089F0200089F0200087C
:1000E0009F0200089F0200089F0200089F0200086C
:1000F0009F0200089F0200089F0200089F0200085C
:100100009F0200089F0200089F0200089F0200084B
:100110009F0200089F0200086D7A00087D7A00089F
:100120009F0200089F0200089F0200089F0200082B
:100130009F0200089F0200089F0200089F0200081B
:100140009F0200089F0200089F0200089F0200080B
:100150009F0200089F0200089F0200089F020008FB
:100160009F0200089F0200089F0200089F020008EB
:100170009F0200089F0200089F0200089F020008DB
:100180009F0200089F0200089F0200089F020008CB
:100190009F0200089F0200089F0200089F020008BB
:1001A0009F0200089F0200089F0200089F020008AB
:1001B0009F0200089F0200089F0200089F0200089B
:1001C0009F0200089F0200089F0200089F0200088B
:1001D0009F0200089F02000800F002F800F040F8BB
:1001E0000AA090E8000C82448344AAF10107DA4592
:1001F00001D100F035F8AFF2090EBAE80F0013F0A4
:10020000010F18BFFB1A43F00103184730A200008A
:1002100050A20000103A24BF78C878C1FAD852071B
:1002200024BF30C830C144BF04680C607047000070
:100230000023002400250026103A28BF78C1FBD8EF
:10024000520728BF30C148BF0B6070471FB50AF086
:10025000CFF80FBC00F014F80FB41FBD10B510BDDF
:1002600000F06EF81146FFF7F1FF09F00DF900F00C
:100270008CF803B4FFF7F2FF03BC00F08FF8000026
:1002800000F0A3B80948804709480047FEE7FEE7A9
:10029000FEE7FEE7FEE7FEE7FEE7FEE7FEE7FEE736
:1002A00004480549054A064B70470000597A000882
:1002B000D901000888680020886E0020886A002024
:1002C000886A00204FF0000200B513469446964617
:1002D000203922BFA0E80C50A0E80C50B1F1200159
:1002E000BFF4F7AF090728BFA0E80C5048BF0CC007
:1002F0005DF804EB890028BF40F8042B08BF704765
:1003000048BF20F8022B11F0804F18BF00F8012BD6
:10031000704770477047704710B500F009F80068E3
:1003200010BD10B5044600F003F8046010BD0000D5
:10033000004870477000002000487047700000209F
:100340007546FFF7F9FFAE4605006946534620F0B3
:100350000700854618B020B5FFF7A2FFBDE8204092
:100360004FF000064FF000074FF000084FF0000B71
:10037000AC46ACE8C009ACE8C009ACE8C009ACE8E0
:10038000C00921F007018D46704710B50446AFF350
:1003900000802046BDE81040FFF76BBF01491820E0
:1003A000ABBEFEE7260002000246C91C21F0030195
:1003B000D2E900031B1A8B4201D20020704701448E
:1003C000C91D21F00701116070472DE9F34F83B07B
:1003D00000274FF48074BA4603A821468DF80070B8
:1003E000FFF7E2FF5FEA000801D100F083F8214641
:1003F000404600F070F8060009D04FF0010B45466A
:10040000C14616F8014B8FB15C2C16D01CE008F1E8
:1004100008004146C8F800000020C8F80400D8F8D9
:1004200000402070012005B0BDE8F08F222C01D0E3
:10043000272C0FD12746BA462CE03078222807D047
:100440005C2805D0272803D0BC4203D1002721E037
:10045000761C04464CB12FB9202C06D0A4F109001B
:10046000042802D905F8014BCBE74D4502D1BAF17A
:10047000000F0FD052464946002005F8010B684690
:10048000AFF300809DF8000070B14D464FF0000AB8
:100490000BF1010B002CB4D14FEA8B0103A8FFF73D
:1004A00083FF040002D004E0A946EFE7002000F03B
:1004B00021F800204246C4F8008005E012F8011B34
:1004C00011B9401C44F82020AA42F7D3002144F877
:1004D00020102146A7E71CB50446CDE90001694676
:1004E0001520ABBE08B100201CBD20461CBD7047C6
:1004F0007047704710B500F009F8BDE81040AFF341
:100500000080002801D0FFF749BF704710B50128CF
:1005100005D0002103A000F021F8012010BD09A1A1
:10052000F8E7000053494752544D454D3A204F7566
:1005300074206F662068656170206D656D6F7279DB
:10054000000000003A2048656170206D656D6F7293
:100550007920636F727275707465640070B50546BA
:100560000C460A2000E06D1C00F011F835B1287827
:100570000028F8D102E0641C00F009F814B12078DA
:100580000028F8D1BDE870400A20AFF3008008B51C
:1005900069468DF800000320ABBE08BD80B58AB067
:1005A000089007910020059007980490089800682B
:1005B00006F0E8FA02900898006806F0A5FA0190A3
:1005C0000298002805D1FFE70198002800F0AB80D1
:1005D000FFE708980068C0688001002835D5FFE76C
:1005E0000898407F012830D1FFE70898007F012854
:1005F0002BD1FFE701200490FFE70898006800680E
:1006000000F040000021B1EB901F19D1FFE70598E1
:100610000021CAF2403188420ED3FFE70898C16D2D
:1006200041F01001C1650898016E41F001010166B9
:1006300001208DF827007AE0059801300590DCE76D
:100640000898006840210160FFE70498022815D04F
:10065000FFE70898006806F095FA00280DD0FFE73C
:100660000898006806F076FA002805D1FFE7089898
:10067000006806F0C7FAFFE7FFE7FFE704980128E4
:1006800015D0FFE70898006806F03EFA00280DD064
:10069000FFE70898006806F05DFA002805D1FFE73B
:1006A0000898006806F038FAFFE7FFE7FFE70498CC
:1006B0000228009007D0FFE70098032806D1FFE743
:1006C0000C20039005E00820039002E00420039032
:1006D000FFE703F091FD0690FFE708980068806847
:1006E000039908421ED0FFE703F086FD0699401AE1
:1006F000062816D3FFE70898006880680399084227
:100700000ED0FFE70898C16D41F01001C16508984F
:10071000016E41F00101016601208DF8270006E01D
:10072000FFE7DAE7FFE700208DF82700FFE79DF8F5
:1007300027000AB080BD000080B584B00390039804
:10074000806A02900298C06D10F0500F4CD1FFE704
:100750000298C16D41F40071C1650298006800689B
:100760000007002822D5FFE70298006806F012FA79
:1007700000281AD0FFE702980068C06880040028AB
:1007800012D4FFE70298C16D21F48071C16502980F
:10079000C06DC004002806D4FFE70298C16D41F087
:1007A0000101C165FFE7FFE7FFE719E00298006874
:1007B000C0688007002812D4FFE70298C16D21F4B9
:1007C0008071C1650298C06DC004002806D4FFE79F
:1007D0000298C16D41F00101C165FFE7FFE7FFE746
:1007E000029802F045FD13E00298C06DC006002893
:1007F00004D5FFE7029802F051FD08E00298406D31
:10080000406B03990190084601998847FFE7FFE78D
:1008100004B080BD80B582B001900198806A0090DC
:100820000098C16D41F04001C1650098016E41F032
:1008300004010166009802F031FD02B080BD0000A5
:1008400080B582B001900198806A0090009802F013
:1008500021FD02B080BD000080B584B002900298F6
:10086000006806F077F900900298006806F07AF9BF
:1008700000284DD0FFE70098002849D1FFE70298F3
:100880000068806800F00D00012809D1FFE7029898
:10089000006806F0E1F802980068032101600DE0AD
:1008A0000298C16D41F01001C1650298016E41F0DE
:1008B0000101016601208DF80F002DE003F09CFC82
:1008C0000190FFE7029800688068C00700281ED0EA
:1008D000FFE703F091FC0199401A032816D3FFE7C4
:1008E000029800688068C00700280ED0FFE70298D1
:1008F000C16D41F01001C1650298016E41F0010126
:10090000016601208DF80F0006E0FFE7DAE7FFE758
:1009100000208DF80F00FFE79DF80F0004B080BDA8
:1009200080B586B00490002002900498006806F01C
:1009300019F9002840F09780FFE704980068806864
:100940003F21C8F2000108420ED0FFE70498C16DB4
:1009500041F01001C1650498016E41F0010101668A
:1009600001208DF8170082E00498006806F08EF8E8
:10097000049800680121B0F1A04F01910CD0FFE76D
:10098000049800684FF60071CAF6FF710844B0FA87
:1009900080F040090190FFE70198C00740F2007124
:1009A000C5F2000100281CBF40F20031C5F2000171
:1009B000084606F089F84FEA002000281DD5FFE719
:1009C00040F20000C2F200000068800942F6635164
:1009D000C0F23E51A0FB0101890901EB41010C224B
:1009E00002EB81010291FFE70298002804D0FFE7A3
:1009F000029801380290F7E7FFE703F0FDFB039050
:100A0000FFE7049800680068C00700282AD1FFE7C4
:100A10000498006806F0A6F8002805D1FFE70498BE
:100A2000006806F033F8FFE703F0E6FB0399401A8D
:100A3000032816D3FFE7049800680068C007002861
:100A40000ED1FFE70498C16D41F01001C165049813
:100A5000016E41F00101016601208DF8170006E0EA
:100A6000FFE7CEE7FFE700208DF81700FFE79DF8CE
:100A7000170006B080BD0000FFE7FEE780B546F234
:100A80006460C2F2000002F0F7FF80BD84B0039002
:100A90000398006840F20741C4F20201884211D86D
:100AA000FFE740F60000C4F20200009003980078CF
:100AB00008384CF6CD41CCF6CC41A0FB0101090928
:100AC000019112E040F62000C4F202000090039869
:100AD000007808384CF6CD41CCF6CC41A0FB0101A2
:100AE000082202EB11110191FFE700980290029891
:100AF00003994A6C22F0030210448864039840F67C
:100B00008001C4F20201C164019800F01F000121BC
:100B100001FA00F00399086504B0704782B00190B3
:100B20000198406800F07F000090009840F6FC01BA
:100B3000C4F2020101EB800001994865019840F67A
:100B40004011C4F2020181650098013800F01F00D5
:100B5000012101FA00F00199C86502B07047000058
:100B600084B003900291019200930398C16C006DD0
:100B700048600398406D002805D0FFE70398816D19
:100B8000C06D4860FFE70398016C406C00F01F00E7
:100B9000012202FA00F04860009803990968486051
:100BA00003988068102809D1FFE701980399096824
:100BB0008860029803990968C86008E00298039960
:100BC00009688860019803990968C860FFE704B064
:100BD0007047000082B08DED000A9DED000AB5EE71
:100BE000400AF1EE10FA07DAFFE79DED000AB1EED8
:100BF000400A8DED010A02E000980190FFE79DEDAB
:100C0000010A02B07047000080B58CB00B908DEDEA
:100C10000A0ACDED090A8DED081A0791069205938F
:100C20000B9800280CD0FFE70798002808D0FFE7B2
:100C30000698002804D0FFE70598002801D1FFE7B7
:100C4000C2E00B98D0F8480504900B9890F8240067
:100C5000002803D1FFE700200490FFE70B98D0F8AD
:100C60005415B0F81C05814216D2FFE70B9800F22C
:100C7000545191ED000AB8EE400AB0F81C0501EE9F
:100C8000100AB8EE411A80EE010A9DED041A21EE19
:100C9000000A8DED040AFFE79DED040ADFED4B0A23
:100CA000B7EE001A00F06AFA8DED040A9DED040A11
:100CB0000B9800F24C5090ED001AB4EE410AF1EEA0
:100CC00010FA06DDFFE74BF21770C3F651200390D0
:100CD00005E041F26F20C3F683300390FFE70B98E5
:100CE00090ED000A9DED031A31EE001A80EE010A24
:100CF0008DED020A9DED020A9FED341AB7EE002A2F
:100D0000F0EE410A8DED011AB0EE421A8DED002A87
:100D100000F034FA8DED020A9DED020A9DED041AF1
:100D20000B9800F24C5090ED002A31EE421A20EE62
:100D3000010A32EE000A80ED000A0B9800F24C50D6
:100D400090ED000ADDED010A9DED001A00F016FAA3
:100D50000B9800F24C5080ED000A9DED0A0A0B98AA
:100D600000F24C5090ED001A079890ED002A32EEF8
:100D7000402A21EE021A30EE010A80ED000A9DEDB4
:100D8000090A0B9800F24C5090ED001A069890ED6D
:100D9000002A32EE402A21EE021A30EE010A80EDDE
:100DA000000A9DED080A0B9800F24C5090ED001AD5
:100DB000059890ED002A32EE402A21EE021A30EE1C
:100DC000010A80ED000AFFE70CB080BD00000000C2
:100DD00086B00490039102920193049800280CD0ED
:100DE000FFE70398002808D0FFE70298002804D006
:100DF000FFE70198002804D1FFE700208DF81700D5
:100E000094E000208DF80300039890ED000A049808
:100E100090ED041AB4EE410AF1EE10FA08DDFFE796
:100E2000049800690399086001208DF803001AE016
:100E3000039890ED000A049890ED041AB1EE411A5F
:100E4000B4EE410AF1EE10FA0CDAFFE7049890EDE7
:100E5000040AB1EE400A039880ED000A01208DF8E3
:100E60000300FFE7FFE7029890ED000A049890ED79
:100E7000041AB4EE410AF1EE10FA08DDFFE7049817
:100E800000690299086001208DF803001AE00298B9
:100E900090ED000A049890ED041AB1EE411AB4EEF8
:100EA000410AF1EE10FA0CDAFFE7049890ED040A1B
:100EB000B1EE400A029880ED000A01208DF803008F
:100EC000FFE7FFE7019890ED000A049890ED041AFF
:100ED000B4EE410AF1EE10FA08DDFFE7049800696C
:100EE0000199086001208DF803001AE0019890ED47
:100EF000000A049890ED041AB1EE411AB4EE410ACA
:100F0000F1EE10FA0CDAFFE7049890ED040AB1EE66
:100F1000400A019880ED000A01208DF80300FFE7E8
:100F2000FFE79DF803008DF81700FFE79DF8170015
:100F300006B0704785B004900498002801D1FFE7FF
:100F4000C9E00498806A03900498C06A02900498EB
:100F5000006B01909DED030A9DED021AB0EE082A88
:100F600021EE021A30EE410A049880ED450A9DED0B
:100F7000030A9DED021A30EE410A9DED011A31EE91
:100F8000011A30EE410A049880ED460A9DED030AED
:100F90009DED021A30EE410A9DED011A30EE410A34
:100FA000049880ED470A9DED030A9DED021A30EE8C
:100FB000410A049880ED480A9DED030A9DED021A4E
:100FC00030EE410A9DED011A30EE010A049880EDE1
:100FD000490A9DED030A9DED021A30EE410A9DED8E
:100FE000011A31EE011A30EE010A049880ED4A0A26
:100FF00003980499C1F82C019DED030A9DED021A96
:1010000030EE010A9DED011A31EE011A30EE410A6F
:10101000049880ED4C0A9DED030A9DED021A30EE16
:10102000010A9DED011A30EE410A049880ED4D0A47
:101030009DED030A9DED021A30EE010A049880ED41
:101040004E0A9DED030A9DED021A30EE010A9DED58
:10105000011A30EE010A049880ED4F0A9DED030A53
:101060009DED021A30EE010A9DED011A31EE011AD2
:1010700030EE010A049880ED500A9DED030A9DEDC3
:10108000021A21EE021A30EE010A049880ED510A8C
:1010900000200090FFE700980C281CD8FFE7049878
:1010A000009900EB810090ED450AB7EE001AB4EE0E
:1010B000410AF1EE10FA09DAFFE70498009900EB13
:1010C00081004FF07E51C0F81411FFE7FFE7009850
:1010D00001300090DFE705B07047000086B00A4697
:1010E00003468DED040ACDED030AADF80A00ADF814
:1010F00008109DED030AB5EE400AF1EE10FA05DC8A
:10110000FFE7BDF80A00ADF8160032E09DED040AD5
:101110009DED031A80EE010AB6EE001A30EE010AC8
:101120008DED010A9DED010ABDF80A0001EE100ADD
:10113000B8EE411AB4EE410AF1EE10FA05DAFFE713
:10114000BDF80A00ADF8160013E09DED010ABCEEF3
:10115000C00A8DED000A0098BDF80810884204D935
:10116000FFE7BDF808000090FFE70098ADF8160013
:10117000FFE7BDF8160006B07047000084B08DEDA3
:10118000020ACDED010A8DED001A9DED020A9DEDDA
:10119000011AB4EE410AF1EE10FA03DAFFE7019802
:1011A00003900FE09DED020A9DED001AB4EE410A96
:1011B000F1EE10FA03DDFFE70098039002E00298D9
:1011C0000390FFE79DED030A04B0704780B58EB031
:1011D00003A90D9081ED090A0D980028019101D114
:1011E000FFE787E10D98002180F8A4150D9880F89D
:1011F000A5150D98D0F85415B0F81C25B0F81A05AF
:1012000010440530814201D8FFE773E10D98B0F832
:101210001805ADF82E00BDF82E000D99B1F81A157D
:10122000884209DBFFE7BDF82E000D99B1F81A15C9
:10123000401AADF82E0009E0BDF82E000D99B1F866
:101240001A15401A8030ADF82E00FFE70D98BDF852
:101250002E1000EB8100D0F898020A90019890EDD2
:10126000090A90ED071A30EE410A80ED060A0D9941
:1012700091ED000A9FEDA01A30EE011A80EE010AEE
:1012800080ED050A90ED050A9FED9C1AB4EE410A27
:10129000F1EE10FA06DDFFE74CF6CD40C3F64C50F8
:1012A0000890FFE7019890ED050A90ED061A21EEEF
:1012B000011A0D9901F5A66191ED002A31EE421A4D
:1012C00020EE010A32EE000A81ED000A90ED050AD7
:1012D00090ED091A21EE011A0D9901F2345191EDA8
:1012E000002A31EE421A20EE010A32EE000A81EDA8
:1012F000000A90ED050A90ED071A21EE011A0D99EA
:1013000001F5A76191ED002A31EE421A20EE010AA3
:1013100032EE000A81ED000A0D9901F5A66191ED0A
:10132000000AB5EE400AF1EE10FA05DAFFE70D9873
:101330000021C0F83015FFE70D9800F2345090ED11
:10134000000AB5EE400AF1EE10FA05DAFFE70D9853
:101350000021C0F83415FFE70D9800F5A76090ED67
:10136000000AB5EE400AF1EE10FA05DAFFE70D9833
:101370000021C0F83815FFE70D9800F5A66090ED44
:10138000000A08F05BFF019880ED040A0D9901F254
:10139000345191ED000A08F051FF019880ED030AE5
:1013A0000D9901F5A76191ED000A08F047FF01983A
:1013B00080ED020A90ED040A90ED031AB6EE002AC1
:1013C00031EE021A80EE010A80ED010A00218DF84B
:1013D0000B100D9991F82510002930D0FFE70D98DA
:1013E000BDF82E10084490F89804002827D1FFE794
:1013F000019890ED030AB7EE001AB4EE410AF1EE3F
:1014000010FA1CDDFFE7019890ED020AB7EE001A12
:10141000B4EE410AF1EE10FA11DDFFE70D9800F588
:10142000A96090ED000A9FED361AB4EE410AF1EE84
:1014300010FA04DDFFE701208DF80B00FFE79DF8AF
:101440000B0000283CD0FFE7019890ED060A90EDD4
:10145000071A20EE010A21EE011AB1EE002A31EE40
:10146000021A80EE010A80ED000A90ED000ADFED1D
:10147000250A9FED251AFFF781FE019880ED000AED
:1014800090ED000A9FED211A20EE010A0D9901F559
:10149000A46191ED001A31EE000A81ED000A0D9968
:1014A00001F5A46191ED000ADFED190AB7EE041A07
:1014B000FFF764FE0D9800F5A46080ED000AFFE7D9
:1014C0000D98012180F8A41507980D99C1F86405BD
:1014D00006980D99C1F8680505980D99C1F86C0535
:1014E00004980D99C1F870059DF80B000D9981F8CD
:1014F000A505FFE70EB080BD6F12833BCDCC4C3D00
:10150000CDCC4C3ECDCCCCBDCDCCCC3D0AD7A33C34
:10151000CDCC4C3F80B586B08DED050ACDED040AEB
:101520008DED031A9DED050AFFF754FB8DED020AC0
:101530009DED040AFFF74EFB8DED010A9DED030AB8
:10154000FFF748FB8DED000A9DED010A9DED021AA3
:10155000B4EE410AF1EE10FA03DDFFE701980290C4
:10156000FFE79DED000A9DED021AB4EE410AF1EE8F
:1015700010FA03DDFFE700980290FFE79DED020AF5
:1015800006B080BD80B584B003908DED020A03984B
:10159000002801D1FFE734E000200190FFE7019827
:1015A0000C2829D8FFE70398019900EB810090ED02
:1015B000450A9FED151A20EE010A9DED021A20EE54
:1015C000010A8DED000A9DED000A08F0C7FC0398A2
:1015D000019900EB810080ED860A9DED000A08F07C
:1015E00065FD0398019900EB810080ED930AFFE708
:1015F000019801300190D2E702980399C1F8500593
:10160000FFE704B080BD00BFDB0FC94080B584B0E8
:101610008DED030ACDED020A8DED011A9DED030A51
:1016200020EE000A9DED021A21EE011A30EE010AA9
:101630009DED011A21EE011A30EE010A9FED031A09
:1016400020EE010A08F0FAFD04B080BDABAAAA3E64
:1016500080B584B002A9039081ED000A03980028A8
:10166000009101D1FFE730E000208DF807000398DA
:10167000D0F85405012804D8FFE701208DF80700B1
:10168000FFE7009890ED000A039901F5AA6191ED3A
:10169000001A30EE410AFFF79DFA9FED0D1AB4EEE5
:1016A000410AF1EE10FA04DDFFE701208DF8070092
:1016B000FFE79DF80700002807D0FFE7039800998F
:1016C00091ED000AFFF75EFFFFE704B080BD00BFA9
:1016D000BD37063587B006900698002801D1FFE790
:1016E0007BE000200590FFE705980C2875D8FFE700
:1016F0000698059900EB8100D0F8480104900698FF
:10170000059900EB8100D0F87C0103909DED040A5F
:101710000698059900EB810090ED6C1A90ED792AFE
:1017200020EE010A9DED031A21EE021A30EE410A65
:101730008DED020A9DED030A0698059900EB8100E4
:1017400090ED6C1A90ED792A20EE010A9DED041AB5
:1017500021EE021A30EE010A8DED010A069890F88A
:1017600054054006002825D1FFE79DED020A20EE32
:10177000000A9DED011A21EE011A30EE010ABEEEBB
:10178000001A20EE010AB7EE081A30EE010A8DEDBC
:10179000000A9DED000A9DED021A21EE000A8DED72
:1017A000020A9DED000A9DED011A21EE000A8DED61
:1017B000010AFFE702980699059A01EB8201C1F838
:1017C000480101980699059A01EB8201C1F87C0154
:1017D000FFE705980130059086E707B070470000E5
:1017E00080B5B0B02F908DED2E0A2D912C922B93B9
:1017F0002F9800280CD0FFE72D98002808D0FFE78D
:101800002C98002804D0FFE72B98002801D1FFE78F
:1018100013E32F9800F22C5090ED000A30EE000AEE
:10182000B0EE081A31EE400A8DED2A0A9DED2A0A23
:10183000F6EE080AB1EE001AFFF7A0FC8DED2A0AB9
:101840002F9800F22C5090ED000A9FEDAF1A20EE79
:10185000010A9FEDAE1A30EE010A8DED290A4BF612
:101860009570C3F2D63028902F9890ED010A00F5BC
:10187000A56090ED001A30EE010A8DED270A9DED6E
:10188000270AB5EE400AF1EE10FA03DAFFE700206E
:101890002790FFE72F989DED270AFFF7D9FE00203C
:1018A00025902A9926912F9991ED2A0A9DED281AC3
:1018B00030EE010A8DED190A9DED190A2F99D1ED2F
:1018C000070A91ED081A0290FFF758FC8DED190AEE
:1018D0002F9890ED0F0A9DED251A31EE000A8DED3F
:1018E000250A9DED190A9DED261A31EE000A8DEDAF
:1018F000260A01201A9002981B90FFE71B980C28DB
:1019000074D8FFE72F981B9900EB8100D0F84801AD
:1019100018902F981B9900EB8100D0F87C0117904C
:101920002F981A9900EB810090ED2A0A9DED291A53
:1019300030EE010A8DED160A2F981A9900EB8100FE
:1019400090ED2B0A9DED291A30EE010A8DED150A56
:101950009DED160A2F98D0ED070A90ED081AFFF7B3
:101960000DFC8DED160A9DED150A2F98D0ED070A96
:1019700090ED081AFFF702FC8DED150A9DED180A8F
:101980002F981A9900EB810090ED0F1A90ED102A14
:1019900020EE010A9DED171A21EE021A30EE010A1F
:1019A0009DED251A31EE000A8DED250A9DED180AF0
:1019B00020EE000A9DED161A20EE010A9DED171A81
:1019C00021EE011A9DED152A21EE021A30EE010AD0
:1019D0009DED261A31EE000A8DED260A1A98023086
:1019E0001A90FFE71B9801301B9087E79DED260AB0
:1019F0009FED471AB4EE410AF1EE10FA06DAFFE75E
:101A00004BF6CC40C2F68C302690FFE79DED2E0AB7
:101A10009DED251A30EE410A8DED240A9DED260A32
:101A2000B7EE001A81EE000A8DED230A2F9890ED93
:101A30002A0A9DED282A30EE020A8DED140A9DED4A
:101A4000140A2F98D0ED070A90ED082A8DED011A9F
:101A5000B0EE421AFFF792FB8DED140A9DED140AC9
:101A60009DED231A20EE010A8DED130A9DED130A58
:101A70009DED241A20EE010A2F9890ED0F1A31EEF9
:101A8000000A80ED0F0A2F9890ED0F0AF8EE080A71
:101A9000B0EE081AFFF772FB2F9880ED0F0A9DED4C
:101AA000130A9DED011A31EE400A9DED142A20EE35
:101AB000020A8DED120A9DED120A2F98D0ED070A49
:101AC00090ED081AFFF75AFB2F9880ED2A0A0020A4
:101AD0002290219020902F99D1F880121F912F9958
:101AE000D1F884121E912F99D1F888121D912F9947
:101AF000D1F88C121C9101211A911B90FFE71B98C1
:101B00000C2800F2758105E0A69BC43A17B7D138BE
:101B1000CCBC8C2B2F981B9900EB8100D0F848018E
:101B200011902F981B9900EB8100D0F87C01109048
:101B30002F981A9900EB810090ED2A0A9DED291A41
:101B400030EE010A8DED0F0A2F981A9900EB8100F3
:101B500090ED2B0A9DED291A30EE010A8DED0E0A4B
:101B60009DED0F0A2F98D0ED070A90ED081AFFF7A8
:101B700005FB8DED0F0A9DED0E0A2F98D0ED070A9B
:101B800090ED081AFFF7FAFA8DED0E0A9DED0F0A97
:101B90009DED111A20EE010A9DED231A20EE010A97
:101BA0008DED0D0A9DED0D0A9DED241A20EE010A22
:101BB0002F981A9900EB810090ED0F1A31EE000A70
:101BC00080ED0F0A9DED0D0A9DED111A20EE010A20
:101BD000B7EE001A31EE400A9DED0F2A20EE020A00
:101BE0008DED0B0A9DED0B0A2F98D0ED070A90EDB5
:101BF000082A8DED001AB0EE421AFFF7BFFA2F98AF
:101C00001A9900EB810080ED2A0A9DED0E0A9DEDE8
:101C1000101A20EE010A9DED231A20EE010A8DED27
:101C20000C0A9DED0C0A9DED241A20EE010A2F9856
:101C30001A9900EB810090ED101A31EE000A80ED48
:101C4000100A9DED0C0A9DED101A20EE010A9DED83
:101C5000001A31EE400A9DED0E2A20EE020A8DEDAB
:101C60000B0A9DED0B0A2F98D0ED070A90ED081A8C
:101C7000FFF784FA2F981A9900EB810080ED2B0A68
:101C80002F981A9900EB8100C06B04902F981A9935
:101C900000EB8100006C03909DED110A2F981B99B9
:101CA00000EB810090ED861A90ED932A20EE010A58
:101CB0009DED101A21EE021A30EE410A8DED0A0A4E
:101CC0009DED100A2F981B9900EB810090ED861A6C
:101CD00090ED932A20EE010A9DED111A21EE021AD1
:101CE00030EE010A8DED090A9DED0A0A9DED1F1ADD
:101CF00020EE010A9DED091A9DED1E2A21EE021A21
:101D000030EE410A8DED080A9DED090A9DED1F1A7E
:101D100020EE010A9DED0A1A9DED1E2A21EE021AFF
:101D200030EE010A8DED070A9DED0A0A9DED1D1AA0
:101D300020EE010A9DED091A9DED1C2A21EE021AE2
:101D400030EE410A8DED060A9DED090A9DED1D1A42
:101D500020EE010A9DED0A1A9DED1C2A21EE021AC1
:101D600030EE010A8DED050A9DED0A0A9DED041A7B
:101D700020EE010A9DED091A9DED032A21EE021ABB
:101D800030EE010A9DED221A31EE000A8DED220A95
:101D90009DED080A9DED041A20EE010A9DED071A3B
:101DA0009DED032A21EE021A30EE010A9DED211A63
:101DB00031EE000A8DED210A9DED060A9DED041A13
:101DC00020EE010A9DED051A9DED032A21EE021A6F
:101DD00030EE010A9DED201A31EE000A8DED200A49
:101DE0001A9802301A90FFE71B9801301B9086E684
:101DF0002F9800F5A46090ED000A9DED221A20EEC8
:101E0000010A2D9880ED000A2F9800F5A46090ED4E
:101E1000000A9DED211A20EE010A2C9880ED000A9F
:101E20002F9800F5A46090ED000A9DED201A20EE99
:101E3000010A2B9880ED000AFFE730B080BD00005A
:101E400080B592B011908DED100ACDED0F0A8DED99
:101E50000E1A1198002801D1FFE770E11198D0F80F
:101E6000540502280ED3FFE79DED100A119890ED5E
:101E7000001A90EDA42A30EE420A80EE010A8DEDA0
:101E80000D0A02E000200D90FFE7119890ED000A86
:101E90009FEDAC1A30EE011A80EE010A8DED0C0AAE
:101EA0009DED0C0A9FEDA81AB7EE002AF0EE410A4C
:101EB0008DED041AB0EE421A8DED032AFFF75EF99C
:101EC0008DED0C0A9DED0C0A9DED0D1A119890ED0B
:101ED000A52A31EE421A20EE010A32EE000A80ED08
:101EE000A50A10981199C1F890029DED100ADDED38
:101EF0000F0A9DED0E1AFFF789FB8DED0B0A9DED84
:101F0000100ADDED0F0A9DED0E1AFFF703FB8DEDB4
:101F10000A0A119890EDA50AFEF75CFE8DED090AFC
:101F2000119890ED000A9FED891A30EE011A80EEAB
:101F3000010A8DED080A9DED080ADDED040A9DED0C
:101F4000031AFFF71BF98DED080A9DED080A9DEDB8
:101F50000B1A119800F23C5090ED002A31EE421A13
:101F600020EE010A32EE000A80ED000A9DED080A1B
:101F70009DED0A1A119800F5A86090ED002A31EE47
:101F8000421A20EE010A32EE000A80ED000A9DEDB1
:101F9000080A9DED091A119800F2445090ED002AAC
:101FA00031EE421A20EE010A32EE000A80ED000AFC
:101FB000119800F5A86090ED000AB1EE061AB4EE93
:101FC000410AF1EE10FA11DDFFE7119800F23C50E2
:101FD00090ED000AB0EE0C1AB4EE410AF1EE10FAE0
:101FE00004DDFFE74FF07E5007902FE0119800F5D9
:101FF000A86090ED000AB0EE0C1AB4EE410AF1EEC2
:1020000010FA1DDAFFE7119800F23C5090ED000A3B
:102010009FED4F1AB4EE410AF1EE10FA10DAFFE725
:10202000119800F2445090ED000A9FED4A1AB4EE68
:10203000410AF1EE10FA03DAFFE70020079004E00E
:102040001198D0F848050790FFE7FFE79DED070AD4
:10205000119800F5A96090ED001AB4EE410AF1EE76
:1020600010FA06DDFFE741F26F20C3F683200690E9
:1020700005E04CF6CD40C3F6CC400690FFE7119842
:1020800090ED000A9DED061A31EE001A80EE010A6D
:102090008DED050A9DED050A9FED2B1AB7EE002A7E
:1020A000F0EE410A8DED021AB0EE421A8DED012AD2
:1020B000FFF764F88DED050A9DED050A9DED071A01
:1020C000119800F5A96090ED002A31EE421A20EE39
:1020D000010A32EE000A80ED000A119800F5A960AD
:1020E00090ED000ADDED020A9DED011AFFF746F8BA
:1020F000119800F5A96080ED000A119800F5A9611A
:1021000091ED000A9FED141A20EE010A9FED131ABB
:1021100030EE010A00F22C5080ED000A119800F216
:102120002C5090ED000AF0EE410A9DED011AFFF7E8
:1021300025F8119800F22C5080ED000AFFE712B04C
:1021400080BD00BF52499D39000000006F12033B63
:10215000CDCC0C4000001644CDCC4C3FCDCC4C3EF9
:1021600081B000900098002801D1FFE797E0009827
:1021700090ED000AB5EE400AF1EE10FA07DCFFE739
:1021800000984BF21771C3F651110160FFE70098F8
:1021900090ED010AB5EE400AF1EE10FA04DAFFE71D
:1021A000009800214160FFE7009890ED040AB5EE29
:1021B000400AF1EE10FA06DCFFE700980021C4F2B5
:1021C000A0210161FFE7009890ED050AB5EE400AF5
:1021D000F1EE10FA04DAFFE7009800214161FFE711
:1021E000009890ED060AB5EE400AF1EE10FA06DC12
:1021F000FFE700980021C4F2C8218161FFE7009841
:1022000090ED070AB5EE400AF1EE10FA07DCFFE7A1
:1022100000984CF67741C3F22B21C161FFE700988B
:1022200090ED070A90ED081AB4EE401AF1EE10FA9C
:1022300006DCFFE700980021C4F2FA310162FFE7F3
:10224000009890ED0A0AB5EE400AF1EE10FA06DCAD
:10225000FFE700980021C4F248218162FFE700985F
:1022600090ED0B0AB5EE400AF1EE10FA07DCFFE73D
:1022700000984DF65701C4F20C11C162FFE70098B7
:1022800090ED0C0AB5EE400AF1EE10FA07DCFFE71C
:1022900000984CF6CD41C3F64C610163FFE701B0F5
:1022A000704700007047000082B00090009800283E
:1022B00003D1FFE70020019004E0009800F25C5099
:1022C0000190FFE7019802B07047000081B00090D4
:1022D0000098002801D1FFE754E000984BF21771F5
:1022E000C3F651110160009843F6BD21C3F64711B2
:1022F000416000980021C4F2C811816000984FF03D
:102300007E51C16000980021C4F2A02101610098B3
:102310004DF20A71C3F6A341416100980021C4F255
:10232000C821816100984CF67741C3F22B21C1612D
:1023300000980021C4F2FA3101620098012180F86E
:102340002410009880F8251000980021C4F248213C
:10235000816200984DF65701C4F20C11C1620098D9
:102360004CF6CD41C3F64C610163009840F69221D2
:10237000C4F206014163009840F69221CCF20601B6
:102380008163FFE701B0704710B596B015901491C6
:102390001598002801D1FFE725E105A8FFF796FF72
:1023A0001498002828D0FFE71498016842688368D1
:1023B000D0F80CC0D0F810E044690A94CDF824E0BD
:1023C000CDF820C00793069205918169C269036A1E
:1023D000D0F824C0D0F828E0C46A1094CDF83CE0CE
:1023E000CDF838C00D930C920B91016B426B806B52
:1023F000139012921191FFE705A8FFF7B1FE15980F
:102400004FF4B561FDF75EFF15980599069A079B95
:10241000DDF820C0DDF824E00A9C4461C0F810E03B
:10242000C0F80CC08360426001600B990C9A0D9B50
:10243000DDF838C0DDF83CE0109CC462C0F828E04C
:10244000C0F824C00362C26181611199129A139B82
:102450008363426301631598D0ED000A90ED010A91
:1024600001207E210190FEF739FE1599A1F81A0589
:102470001598D0ED000A90ED050A4EF660210198FE
:10248000FEF72CFE1599A1F81C0515980021A0F85F
:10249000181515984FF07E52C0F820251598C0F8F1
:1024A00024151598C0F8281515984FF07C52C0F8DF
:1024B0002C250491FFE704981A2812D8FFE71598F5
:1024C000049900EB81000021C16315988169049A89
:1024D00000EB8200C0F8A810FFE7049801300490D8
:1024E000E9E71598FEF726FD00200390FFE7039823
:1024F0000C2838D8FFE71598039900EB810191ED7E
:10250000450A9FED3A1A20EE010A90ED001A20EEDE
:10251000010A8DED020A1598039900EB81004FF036
:102520007E51C0F848111598039900EB81000021F5
:10253000C0F87C119DED020A07F010FD1598039973
:1025400000EB810080ED6C0A9DED020A07F0AEFD04
:102550001598039900EB810080ED790AFFE7039855
:1025600001300390C3E7159890ED0D0A07F0F6FCD3
:10257000159880EDA00A159890ED0D0A07F096FDCC
:10258000159880EDA10A159890ED0E0A07F0E6FC6B
:10259000159880EDA20A159890ED0E0A07F086FDB9
:1025A000159880EDA30A15980021CBF68071C0F82C
:1025B0005015159890ED010A00F5A56191ED001AEE
:1025C00030EE010AFEF7DEFF1598B0F81A15A0F8F4
:1025D00060151598B0F81C15A0F862151598012122
:1025E00080F85815FFE716B010BD00BFDB0FC940DB
:1025F00080B590B00DF1300C0F908CED020ACCED4F
:10260000010A8CED001A0B910A9209930F98002889
:10261000CDF810C006D0FFE70F9890F858050028B5
:1026200019D1FFE70B98002804D0FFE70E980B990B
:102630000860FFE70A98002804D0FFE70D980A9980
:102640000860FFE70998002804D0FFE70C98099973
:102650000860FFE7D5E00F98D0F854150131C0F8B5
:1026600054150F98049991ED020AD1ED010A91EDEC
:10267000001AFFF7E5FB0F98049991ED020AFEF7A7
:10268000A5FD0F98049991ED020A08AA07AB0DF178
:10269000180C114603921A4602936346CDF804C003
:1026A000FFF79EF80F98049991ED020AD1ED010A07
:1026B00091ED001A0399029A019BFEF7A5FA0F9873
:1026C0000399029A019BFEF783FB8DF81700089887
:1026D0000F99B1F8182501EB8201C1F898029DF815
:1026E00017000F99B1F81825114481F898040F9834
:1026F000B0F818150131A0F818150F98B0F81805A2
:10270000802805D3FFE70F980021A0F81815FFE7F0
:102710000F98D0F85415C0F85C150F98B0F81A153A
:10272000A0F860150F98B0F81C15A0F862150F9866
:10273000D0F82015C0F874150F98D0F82415C0F8FB
:1027400078150F98D0F82815C0F87C150F98D0F898
:102750002C15C0F880150F98D0F84815C0F88415CE
:102760000F98D0F84C15C0F888150F98D0F83C1584
:10277000C0F88C150F98D0F84015C0F890150F9838
:10278000D0F84415C0F8941508980F99C1F8980529
:1027900007980F99C1F89C0506980F99C1F8A005F4
:1027A0009DF817000F9981F8A6050F9800F24C517B
:1027B00091ED000A9FED141A0021B4EE410AF1EEEA
:1027C00010FAC8BF012180F8A7150B98002804D083
:1027D000FFE708980B990860FFE70A98002804D0E3
:1027E000FFE707980A990860FFE70998002804D0D6
:1027F000FFE7069809990860FFE70F98FEF76AFF60
:10280000FFE710B080BD00BF9A99193E81B0EFF389
:10281000108072B60090FFE7FEE7000080B586B03A
:102820000490039100200190FFE7049890F858006D
:10283000012804D1FFE702208DF817005CE004981E
:10284000012180F85810FFE7FFE70498FEF704F82D
:102850008DF80B009DF80B0000283CD1FFE7049891
:10286000C06D40F0020020F488500499C8650498B7
:102870000068039904F090FAFFE70498006804F0F8
:1028800059F900281ED0FFE7019801300190019806
:102890004DF60261C0F20401884212D3FFE70498AA
:1028A000C06D40F0100020F002000499C865FFE7F9
:1028B0000498002180F85810FFE701208DF81700D8
:1028C0001AE0DAE70498C06D40F0010020F0020041
:1028D0000499C86505E00498C16D41F01001C16517
:1028E000FFE7FFE70498002180F85810FFE79DF804
:1028F0000B008DF81700FFE79DF8170006B080BDAC
:1029000080B5CEB02E902D9100208DF8B300299087
:102910002D98C0680021C4F27F01884201D0FFE7F2
:1029200000E0FFE7FFE72E9890F85800012805D156
:10293000FFE702208DF8BF0000F096BC2E98012121
:1029400080F85810FFE7FFE72E98006804F01AF9A6
:10295000002840F07584FFE72E9800682D990A68DA
:10296000496804F023F92E98006804F00BF92890C8
:102970002E98006804F0C8F827902898002840F0A6
:10298000D281FFE72798002840F0CD81FFE72D98FE
:102990008068B0F1004F0ED1FFE72E9800682D99A6
:1029A0000968002204F03CF92E9800684FF00041BD
:1029B00004F0E4F90FE02E9800682D990A68896800
:1029C00026911146269A04F02BF92E9800680021D2
:1029D00004F0D4F9FFE72D9840692E990968C96879
:1029E00001F01801890888402B902D98006904286F
:1029F00022D0FFE72E9800682D990A6809692B9B61
:102A000004F062F92E9800682D990A698969259168
:102A10001146259A04F08AF92E9800682D990A69C2
:102A2000097F0139B1FA81F149094906249111461A
:102A3000249A04F067F975E12E980068002104F0EB
:102A400053F84003002809D1FFE72E9800680021C1
:102A500004F04AF8C0F38460239019E02E980068CF
:102A6000002104F041F890FAA0F03090309800284E
:102A700004D1FFE720208DF8C70005E03098B0FAB8
:102A800080F08DF8C700FFE79DF8C7002390FFE7AF
:102A900023982D99096849030029229006D1FFE760
:102AA0002D980068C0F38460219016E02D9800688E
:102AB00090FAA0F032903298002804D1FFE720204D
:102AC0008DF8CF0005E03298B0FA80F08DF8CF0095
:102AD000FFE79DF8CF002190FFE7219822998142DE
:102AE00008D1FFE72E98006800212091209A04F079
:102AF00031F9FFE72E980068012103F0F5FF40034C
:102B0000002809D1FFE72E980068012103F0ECFFAF
:102B1000C0F384601F9019E02E980068012103F033
:102B2000E3FF90FAA0F034903498002804D1FFE736
:102B300020208DF8D70005E03498B0FA80F08DF8A9
:102B4000D700FFE79DF8D7001F90FFE71F982D994A
:102B50000968490300291E9006D1FFE72D980068F7
:102B6000C0F384601D9016E02D98006890FAA0F0E4
:102B700036903698002804D1FFE720208DF8DF003A
:102B800005E03698B0FA80F08DF8DF00FFE79DF899
:102B9000DF001D90FFE71D981E99814207D1FFE7D6
:102BA0002E9800680121002204F0D4F8FFE72E9847
:102BB0000068022103F098FF4003002809D1FFE7D5
:102BC0002E980068022103F08FFFC0F384601C90F0
:102BD00019E02E980068022103F086FF90FAA0F019
:102BE00038903898002804D1FFE720208DF8E700BE
:102BF00005E03898B0FA80F08DF8E700FFE79DF81F
:102C0000E7001C90FFE71C982D99096849030029EB
:102C10001B9006D1FFE72D980068C0F384601A90DE
:102C200016E02D98006890FAA0F03A903A980028A3
:102C300004D1FFE720208DF8EF0005E03A98B0FAC4
:102C400080F08DF8EF00FFE79DF8EF001A90FFE7A6
:102C50001A981B99814207D1FFE72E98006802213C
:102C6000002204F077F8FFE72E980068032103F0B4
:102C70003BFF4003002809D1FFE72E98006803219D
:102C800003F032FFC0F38460199019E02E980068B9
:102C9000032103F029FF90FAA0F04A904A980028F7
:102CA00004D1FFE720208DF82F0105E04A98B0FA03
:102CB00080F08DF82F01FFE79DF82F011990FFE7B5
:102CC00019982D99096849030029189006D1FFE742
:102CD0002D980068C0F38460179016E02D98006866
:102CE00090FAA0F04C904C98002804D1FFE72020E7
:102CF0008DF8370105E04C98B0FA80F08DF8370177
:102D0000FFE79DF837011790FFE717981899814260
:102D100007D1FFE72E9800680321002204F01AF87B
:102D2000FFE7FFE7FFE72E98006803F01BFF00288E
:102D300040F05B81FFE72E9800682D990A68C9680A
:102D400016911146169A03F087FF2D98C06800214E
:102D5000C4F27F01884240F04781FFE72E98006867
:102D60002D99096849030029159006D1FFE72D9890
:102D70000068C0F38460149016E02D98006890FA03
:102D8000A0F048904898002804D1FFE720208DF853
:102D9000270105E04898B0FA80F08DF82701FFE799
:102DA0009DF827011490FFE71498013000F01F00F0
:102DB000092800F28580FFE72D980068400300286D
:102DC00006D1FFE72D980068C0F38460139016E0E9
:102DD0002D98006890FAA0F046904698002804D1FB
:102DE000FFE720208DF81F0105E04698B0FA80F03B
:102DF0008DF81F01FFE79DF81F011390FFE713985F
:102E0000013000F01F0080062D9909684903002950
:102E1000129006D1FFE72D980068C0F384601190EE
:102E200016E02D98006890FAA0F04490449800288D
:102E300004D1FFE720208DF8170105E04498B0FA8F
:102E400080F08DF81701FFE79DF817011190FFE75B
:102E50001198013000F01F00012101FA00F01299D1
:102E600008432D9A12685203002A109006D1FFE7FA
:102E70002D980068C0F384600F9016E02D980068CC
:102E800090FAA0F042904298002804D1FFE7202059
:102E90008DF80F0105E04298B0FA80F08DF80F012F
:102EA000FFE79DF80F010F90FFE70F98013000F04A
:102EB0001F0000EB4000109941EA00500E9089E09D
:102EC0002D9800684003002806D1FFE72D98006880
:102ED000C0F384600D9016E02D98006890FAA0F081
:102EE00040904098002804D1FFE720208DF807018A
:102EF00005E04098B0FA80F08DF80701FFE79DF8F3
:102F000007010D90FFE70D98013000F01F008006CB
:102F10002D990968490300290C9006D1FFE72D98E7
:102F20000068C0F384600B9016E02D98006890FA5A
:102F3000A0F03E903E98002804D1FFE720208DF8B5
:102F4000FF0005E03E98B0FA80F08DF8FF00FFE743
:102F50009DF8FF000B90FFE70B98013000F01F0079
:102F6000012101FA00F00C9908432D9A12685203CE
:102F7000002A0A9006D1FFE72D980068C0F384600C
:102F8000099016E02D98006890FAA0F03C903C98CB
:102F9000002804D1FFE720208DF8F70005E03C98D9
:102FA000B0FA80F08DF8F700FFE79DF8F700099080
:102FB000FFE70998013000F01F0000EB40000021FE
:102FC000CFF6206101EB00500A99084340F00070F1
:102FD0000E90FFE70E982D998A681599089008467B
:102FE000089903F01DFEFFE7FFE72D98408848F29F
:102FF0000801084200F02381FFE72E9800680121B4
:10300000B0F1A04F07910CD0FFE72E9800684FF663
:103010000071CAF6FF710844B0FA80F040090790C9
:10302000FFE70798C00740F20071C5F200010028D1
:103030001CBF40F20031C5F20001084603F044FD18
:103040002A902D98006840F20001CCF2213188428C
:1030500008D0FFE72D9800681021C9F2C00188420E
:103060005ED1FFE79DF8AA000006002858D4FFE7CC
:103070002E980068B0F1A04F09D0FFE72E980068A5
:1030800040F20061C5F20001884248D1FFE72E9866
:1030900000680121B0F1A04F06910CD0FFE72E98F7
:1030A00000684FF60071CAF6FF710844B0FA80F06C
:1030B00040090690FFE70698C00740F20071C5F28C
:1030C000000100281CBF40F20031C5F200012A981F
:1030D00040F4000005900846059903F0E7FD40F232
:1030E0000000C2F2000000684FEA901042F66351FF
:1030F000C0F23E51A0FB01014FEA911101EB4101E9
:103100004FF00C0202EB81012991FFE7299800287A
:1031100004D0FFE7299801382990F7E7FFE78DE011
:103120002D9800680021CCF25271884242D1FFE70D
:103130009DF8AB00C00700283CD1FFE72E9800683F
:1031400040F20011C5F20001884232D0FFE72E980C
:10315000006840F20051C5F20001884229D0FFE723
:103160002E9800680121B0F1A04F04910CD0FFE728
:103170002E9800684FF60071CAF6FF710844B0FA45
:1031800080F040090490FFE70498C00740F2007106
:10319000C5F2000100281CBF40F20031C5F2000159
:1031A0002A9840F0807003900846039903F07EFD52
:1031B000FFE742E02D9800680021CCF68431884278
:1031C00039D1FFE79DF8AA004006002833D4FFE775
:1031D0002E98006840F20011C5F20001884229D003
:1031E000FFE72E9800680121B0F1A04F02910CD0AA
:1031F000FFE72E9800684FF60071CAF6FF71084489
:10320000B0FA80F040090290FFE70298C00740F250
:103210000071C5F2000100281CBF40F20031C5F268
:1032200000012A9840F4800001900846019903F0BB
:103230003DFDFFE700E0FFE7FFE7FFE7FFE708E00E
:103240002E98C16D41F02001C16501208DF8B300B9
:10325000FFE7FFE72E98002180F85810FFE79DF860
:10326000B3008DF8BF00FFE79DF8BF004EB080BDF2
:1032700080B582B001900198006840F20051C5F21B
:103280000001884203D1FFE705F080FFFFE702B0AD
:1032900080BD000081B0009001B0704781B0009007
:1032A00001B0704780B58EB00C9000208DF82F00D3
:1032B00007900C98002804D1FFE701208DF8370013
:1032C000E8E10C984069002808D0FFE70C9890F8D6
:1032D0002400012801D1FFE7FFE7FFE70C98C06D4C
:1032E00000280AD1FFE70C9800F0D8F90C980021CB
:1032F00001660C9880F85810FFE70C98006803F0FE
:1033000021FC002805D0FFE70C98006803F0B2FB11
:10331000FFE70C98006803F02DFC00281FD1FFE7A1
:103320000C98006803F0C0FB40F20000C2F20000FD
:103330000068800942F66351C0F23E51A0FB0101D2
:103340008909022202EB41010791FFE70798002853
:1033500004D0FFE7079801380790F7E7FFE70C98DC
:10336000006803F007FC00280ED1FFE70C98C16D40
:1033700041F01001C1650C98016E41F00101016638
:1033800001208DF82F00FFE70C98006803F0FAFB8E
:1033900009900C98C06DC006002800F16D81FFE710
:1033A0000998002840F06881FFE70C98C06D40F054
:1033B000020020F480700C99C8650C98006803F036
:1033C000D1FB002840F08180FFE70C9800680121C4
:1033D000B0F1A04F06910CD0FFE70C9800684FF6B3
:1033E0000071CAF6FF710844B0FA80F040090690F7
:1033F000FFE70698C00740F20071C5F200010028FF
:103400001CBF40F20031C5F2000140F20030C5F2AD
:103410000000814210D1FFE74FF0A04003F0A2FB73
:1034200040F20011C5F200010590084603F09AFB36
:103430000599084304901BE040F20040C5F20000EB
:1034400003F090FB40F20051C5F2000103900846E2
:1034500003F088FB0399084340F20062C5F20002C2
:103460000290104603F07EFB029908430490FFE7A8
:103470000498002828D1FFE70C9800680121B0F1DA
:10348000A04F01910CD0FFE70C9800684FF6007137
:10349000CAF6FF710844B0FA80F040090190FFE7D6
:1034A0000198C00740F20071C5F2000100281CBF5E
:1034B00040F20031C5F200010C98406800900846C7
:1034C000009903F0E5FBFFE7FFE70C98417FC26B33
:1034D00042EA41318268C3681943114390F82400DD
:1034E00041EA00400A900C9890F8240001280BD182
:1034F000FFE70C98806A0021CFF6FE7101EB404097
:103500000A9908430A90FFE70C98C06A00280AD07D
:10351000FFE70C98C16A006B01F4787108430A99BF
:1035200008430A90FFE70C980068C06844F207015E
:10353000CFF6F07108400A9908430C990968C860F1
:103540000C980068006920F040600C990A68496B8B
:10355000084310610C98006803F0D6FA08900998A7
:10356000002868D1FFE70898002864D1FFE70C988D
:10357000017F90F83800890341EA40000A900C98D6
:103580000068C06844F2020188430A9908430C9914
:103590000968C8600C980069002814D0FFE70C98EF
:1035A0000068016941F4803101610C980068D0F82D
:1035B000C00043F6FF7188430C990A680969084303
:1035C000C2F8C00011E00C980068016921F4803154
:1035D00001610C980068D0F8C00043F6FF71884381
:1035E0000C990968C1F8C000FFE70C9890F84000FA
:1035F000012818D1FFE70C980068006940F2FD71BE
:1036000088430C990A684B6CD1F848C0D1F84CE05B
:1036100043EA0C0343EA0E03096D1943084340F0E3
:103620000100106106E00C980068016921F00101B9
:103630000161FFE7FFE70C98406901280CD1FFE723
:103640000C980068006B20F00F000C990A68096A5A
:1036500001390843106306E00C980068016B21F003
:103660000F010163FFE70C98C06D40F0010020F0EE
:1036700002000C99C86508E00C98C16D41F010017A
:10368000C16501208DF82F00FFE79DF82F008DF810
:103690003700FFE79DF837000EB080BD80B5A2B0BF
:1036A0002190002020901F901E901D901C9007A834
:1036B0005421FCF707FE2198006840F20051C5F242
:1036C0000001884240F08980FFE74FF48030079086
:1036D0004FF00040199007A800F03EFF002803D0EB
:1036E000FFE7FFF793F8FFE7FFE741F24C00C4F272
:1036F0000200016841F480410160006800F48040EC
:1037000006900698FFE7FFE741F24C00C4F2020082
:10371000016841F010010160006800F010000590A0
:103720000598FFE7FFE741F24C00C4F20200016890
:1037300041F002010160006800F00200049004986A
:10374000FFE74FF441401C9003201D9000211E9183
:1037500041F20002C4F600021CAB03901046029135
:103760001946019300F068FB4FF450401C900398F9
:103770001D9002991E9140F20040C4F6000001998C
:1037800000F05AFB46F26460C2F200000821C4F265
:10379000020101602621416002998160C16080229E
:1037A00002614FF4807242614FF480628261202294
:1037B000C261016200F010FA002803D0FFE7FFF7B2
:1037C00025F8FFE7FFE7219846F26461C2F20001A5
:1037D000416521988862FFE7FFE722B080BD0000C5
:1037E00080B58AB008900791069208980068012178
:1037F000B0F1A04F03910CD0FFE7089800684FF696
:103800000071CAF6FF710844B0FA80F040090390D5
:10381000FFE70398C00740F20071C5F200010028DD
:103820001CBF40F20031C5F20001084603F054F914
:1038300004900898006803F0A5F9002840F0CC80B7
:10384000FFE7FFE7089890F85800012804D1FFE748
:1038500002208DF82700C8E00898012180F8581050
:10386000FFE7FFE70898006840F20061C5F2000139
:1038700088420DD0FFE70498002809D0FFE704989C
:10388000052805D0FFE70498092840F09A80FFE753
:103890000898FDF745F88DF817009DF817000028E7
:1038A00040F08780FFE70898C06D40F4807040F6D4
:1038B000016188430899C8650898006840F20011C2
:1038C000C5F20001884204D1FFE74FF0A04002900A
:1038D00015E00898006840F20051C5F200018842E6
:1038E00006D1FFE740F20040C5F20000019003E07E
:1038F000089800680190FFE701980290FFE702989E
:1039000008990968884204D0FFE70498002806D186
:10391000FFE70898C16D21F48011C165FFE70898A1
:10392000C06DC004002806D5FFE70898016E21F09D
:103930000601016603E0089800210166FFE7089888
:10394000406D40F23971C0F60001C1620898406DC7
:1039500040F64101C0F6000101630898406D40F651
:103960001501C0F600014163089800681C21016040
:10397000FFE70898002180F85810FFE708980068D2
:10398000416841F01001416008980068C16841F049
:103990000101C16008980168406D4031079A069B9B
:1039A00000F0CAF98DF817000898006803F01CF9B8
:1039B00006E0FFE70898002180F85810FFE7FFE7CE
:1039C00009E001208DF81700FFE70898002180F832
:1039D0005810FFE7FFE703E002208DF81700FFE72C
:1039E0009DF817008DF82700FFE79DF827000AB023
:1039F00080BD000080B584B00290FFE7029890F887
:103A00005800012804D1FFE702208DF80F002FE0B5
:103A10000298012180F85810FFE7FFE70298032180
:103A2000FCF7BCFD8DF807009DF80700002814D1B5
:103A3000FFE70298FCF710FF8DF807009DF80700DC
:103A4000002809D1FFE70298C06D40F0010020F482
:103A500088500299C865FFE7FFE7FFE70298002159
:103A600080F85810FFE79DF807008DF80F00FFE77A
:103A70009DF80F0004B080BD80B584B0039003981A
:103A8000006C00680290039800680068019002983A
:103A90000399496C01F01F01C8404007002827D551
:103AA000FFE79DF804004007002821D5FFE70398B1
:103AB000006800688006002807D4FFE703980068C4
:103AC000016821F004010160FFE70398016C406C7C
:103AD00000F01F00042202FA00F048600398006B17
:103AE000002804D0FFE70398016B8847FFE771E0E7
:103AF00002980399496C01F01F01C8408007002813
:103B000031D5FFE79DF80400800700282BD5FFE79B
:103B1000039800680068800600280BD4FFE703982C
:103B20000068016821F00A0101600398012180F812
:103B30002510FFE70398016C406C00F01F00022283
:103B400002FA00F04860FFE70398002180F8241093
:103B5000FFE70398C06A002804D0FFE70398C16A12
:103B60008847FFE735E002980399496C01F01F018F
:103B7000C840000700282AD5FFE79DF80400000789
:103B8000002824D5FFE703980068016821F00E01A2
:103B900001600398016C406C00F01F00012202FAE2
:103BA00000F048600398C263039880F82520FFE77F
:103BB0000398002180F82410FFE70398406B002849
:103BC00004D0FFE70398416B8847FFE700E0FFE779
:103BD000FFE7FFE704B080BD80B584B00290029893
:103BE000002804D1FFE701208DF80F009FE0029824
:103BF000006840F20741C4F20201884218D8FFE78A
:103C0000029801684FF6F872CBF6FD7211444CF63B
:103C1000CD42CCF6CC42A1FB02126FF0030303EAC3
:103C20009202426402980022C4F20202026418E086
:103C3000029801684FF6F832CBF6FD7211444CF64B
:103C4000CD42CCF6CC42A1FB02126FF0030303EA93
:103C500092024264029840F20042C4F202020264FC
:103C6000FFE70298022180F825100298006800689A
:103C70000190019847F6F07188430190029881689D
:103C8000C2680369D0F814C01143194341EA0C011A
:103C900082691143C2691143006A084301990843CC
:103CA000019001980299096808600298FCF7EEFEFD
:103CB00002988068B0F5804F04D1FFE70298002198
:103CC0004160FFE702984168806C01F07F0101606C
:103CD0000298C16C006D486002984068002811D0BD
:103CE000FFE70298406804280CD8FFE70298FCF729
:103CF00015FF0298406D002101600298816DC06D32
:103D0000486007E0029800214165029881650298A9
:103D1000C165FFE702980021C1630298012280F883
:103D20002520029880F824108DF80F10FFE79DF8E9
:103D30000F0004B080BD000080B586B004900391F0
:103D40000292019300208DF80300FFE7049890F899
:103D50002400012804D1FFE702208DF8170067E056
:103D60000498012180F82410FFE7FFE7049890F8F9
:103D7000250001284DD1FFE70498022180F8251085
:103D800004980021C16304980068016821F00101D2
:103D9000016004980399029A019BFCF7E1FE0498E4
:103DA000006B002807D0FFE704980068016841F025
:103DB0000E0101600CE004980068016821F0040124
:103DC000016004980068016841F00A010160FFE7A2
:103DD0000498806C0068C003002807D5FFE70498AA
:103DE000806C016841F480710160FFE70498406DC8
:103DF000002807D0FFE70498406D016841F4807106
:103E00000160FFE704980068016841F0010101606A
:103E100009E0FFE70498002180F82410FFE7022062
:103E20008DF80300FFE79DF803008DF81700FFE70A
:103E30009DF8170006B080BD8BB00A900991002054
:103E40000890FFE7099800680899C840002800F02A
:103E5000B781FFE7099800680899012202FA01F189
:103E6000084007900798002800F0A681FFE709980E
:103E7000406800F00300012807D0FFE70998406878
:103E800000F0030002282FD1FFE70A98806806900F
:103E900008984000032101FA00F0069921EA000089
:103EA00006900998C0680899490088400699084317
:103EB000069006980A9988600A98406806900898C3
:103EC000012101FA00F0069921EA00000690099804
:103ED0004068C0F30010089988400699084306908E
:103EE00006980A994860FFE70998406800F00300C7
:103EF00003280CD1FFE70998406800F0030003286D
:103F00001DD1FFE709988068012818D0FFE70A98BB
:103F1000C068069008984000032101FA00F0069955
:103F200021EA0000069009988068089949008840B5
:103F300006990843069006980A99C860FFE7099811
:103F4000406800F00300022826D1FFE70A9808998C
:103F50006FF0030202EA51010844006A06900898D3
:103F600000F0070080000F2101FA00F0069921EA15
:103F70000000069009980069089901F0070189007E
:103F8000884006990843069006980A99089B02EA19
:103F9000530211440862FFE70A98006806900898E7
:103FA0004000032101FA00F0069921EA0000069082
:103FB0000998406800F00300089949008840069974
:103FC0000843069006980A99086009988079800746
:103FD000002800F0F080FFE7FFE741F26000C4F244
:103FE0000200016841F001010160006800F0010079
:103FF00005900598FFE7089820F003000821C4F217
:10400000010140580690089800F0030080000F213D
:1040100001FA00F0069921EA000006900A98B0F132
:10402000904F03D1FFE70020049042E00A9840F24D
:104030000041C4F60001884203D1FFE7012003904C
:1040400034E00A9840F60001C4F60001884203D12A
:10405000FFE70220029026E00A9840F60041C4F6ED
:104060000001884203D1FFE70320019018E00A987D
:1040700041F20001C4F60001884203D1FFE70420A9
:1040800000900AE00A9841F20041C4F600010622BD
:10409000884208BF05220092FFE700980190FFE7E1
:1040A00001980290FFE702980390FFE703980490BD
:1040B000FFE70498089901F00301890088400699F8
:1040C000084306900698089921F003010822C4F2DB
:1040D0000102885040F20840C4F2010000680690D6
:1040E0000798069921EA0000069009988079C00691
:1040F000002805D5FFE70798069908430690FFE7D3
:10410000069840F20841C4F20101086040F20C40F8
:10411000C4F20100006806900798069921EA0000A1
:104120000690099880798006002805D5FFE7079852
:10413000069908430690FFE7069840F20C41C4F246
:104140000101086040F20440C4F2010000680690DA
:104150000798069921EA000006900998807980075F
:10416000002805D5FFE70798069908430690FFE762
:10417000069840F20441C4F20101086040F2004098
:10418000C4F20100006806900798069921EA000031
:10419000069009988079C007002805D0FFE70798A6
:1041A000069908430690FFE7069840F20041C4F2E2
:1041B00001010860FFE7FFE708980130089041E639
:1041C0000BB0704782B013468C460190ADF80210D8
:1041D0008DF801209DF80100002805D0FFE7BDF80B
:1041E00002000199886104E0BDF80200019988622B
:1041F000FFE702B07047000046F68400C2F20000FC
:104200000068704740F26400C2F20000006846F6A1
:104210008401C2F200010A6810440860704700007F
:1042200080B582B000208DF80700032000F0A6F8CA
:104230000F2000F00FF8002804D0FFE701208DF8D0
:10424000070002E000F04CF8FFE79DF8070002B01D
:1042500080BD000080B582B0019000208DF8030081
:1042600040F26400C2F200000068002830D0FFE78E
:1042700040F20000C2F20000006840F26401C2F2A5
:10428000000109684FF47A72B2FBF1F1B0FBF1F072
:1042900001F0EEF9002816D1FFE701980F280DD89C
:1042A000FFE701994FF0FF30002200F049F8019834
:1042B00040F26801C2F20001086003E001208DF8BD
:1042C0000300FFE703E001208DF80300FFE703E0B0
:1042D00001208DF80300FFE79DF8030002B080BDC8
:1042E00080B582B0FFE741F26000C4F202000168CD
:1042F00041F001010160006800F0010001900198A7
:10430000FFE7FFE741F25800C4F20200016841F004
:1043100080510160006800F0805000900098FFE735
:1043200000F010F902B080BD80B582B001468DF872
:1043300007009DF90700009104F0D0F902B080BD9C
:1043400080B588B003468DF81F000691059203934F
:1043500004F0DEF904909DF91F000499069A059B6C
:104360000290084611461A4602F078FF0299019021
:104370000846019904F0D4F908B080BD80B582B038
:104380000190019804F0EEF902B080BD85B0039071
:10439000039800285FD1FFE747F20000C4F2000055
:1043A000006800F4C060B0F5806F4AD1FFE747F2C3
:1043B0008000C4F20000016821F48071016047F2BE
:1043C0000000C4F200000168012262F34A2101608A
:1043D00040F20000C2F200000068322148434DF66E
:1043E0008361C4F21B31A0FB010102EB91410291F8
:1043F000FFE747F21400C4F2000000680021400506
:104400000028019106D5FFE70298002818BF012077
:104410000190FFE70198C007002804D0FFE7029849
:1044200001380290E5E747F21400C4F2000000688A
:104430004005002804D5FFE703208DF813007DE038
:1044400008E047F28000C4F20000016821F48071A6
:104450000160FFE76EE00398B0F5007F5FD1FFE7F2
:1044600047F20000C4F20000006800F4C060B0F53C
:10447000806F4AD1FFE747F28000C4F20000016874
:1044800041F48071016047F20000C4F2000001684D
:10449000012262F34A21016040F20000C2F20000F2
:1044A0000068322148434DF68361C4F21B31A0FB02
:1044B000010102EB91410291FFE747F21400C4F2BF
:1044C00000000068002140050028009106D5FFE7A4
:1044D0000298002818BF01200090FFE70098C0074D
:1044E000002804D0FFE7029801380290E5E747F280
:1044F0001400C4F2000000684005002804D5FFE75E
:1045000003208DF8130019E008E047F28000C4F2A0
:104510000000016841F480710160FFE709E047F2A3
:104520000000C4F200000168022262F34A21016027
:10453000FFE7FFE700208DF81300FFE79DF8130069
:1045400005B0704747F20800C4F20000016841F46A
:10455000804101607047000080B586B00590002062
:104560008DF80B008DF80A00059880780007002868
:1045700040F1B880FFE700208DF8090041F25800B3
:10458000C4F202000068C000002813D4FFE7FFE770
:1045900041F25800C4F20200016841F0805101600C
:1045A000006800F0805001900198FFE701208DF82D
:1045B0000900FFE747F20000C4F20000016841F47F
:1045C00080710160FFF718FE0390FFE747F20000DB
:1045D000C4F200000068C00500280CD4FFE7FFF714
:1045E0000BFE0399401A032804D3FFE703208DF83C
:1045F0000B0000E0EAE79DF80B0000285ED1FFE722
:1046000041F29000C4F20200006800F4407004908F
:104610000498002819D0FFE704980599096D88428D
:1046200013D0FFE741F29000C4F20200016821F4C8
:1046300040710491016841F480310160016821F406
:104640008031016004990160FFE79DF81000C00708
:1046500000281CD0FFE7FFF7CFFD0390FFE741F2F2
:104660009000C4F202000068800700280ED4FFE723
:10467000FFF7C2FD0399401A41F28931884204D301
:10468000FFE703208DF80B0000E0E8E7FFE79DF867
:104690000B0000280CD1FFE741F29000C4F20200A9
:1046A000016821F44071059A126D1143016004E024
:1046B0009DF80B008DF80A00FFE704E09DF80B0061
:1046C0008DF80A00FFE79DF80900012809D1FFE7EE
:1046D00041F25800C4F20200016821F080510160EB
:1046E000FFE7FFE705980078C00700280CD0FFE738
:1046F00041F28800C4F20200016821F00301059A2A
:10470000526811430160FFE7059800788007002890
:104710000CD5FFE741F28800C4F20200016821F0E5
:104720000C01059A926811430160FFE70598007833
:10473000400700280CD5FFE741F28800C4F20200D0
:10474000016821F03001059AD26811430160FFE74A
:1047500005980078000700280CD5FFE741F2880093
:10476000C4F20200016821F0C001059A12691143E8
:104770000160FFE705980078C00600280CD5FFE728
:1047800041F28800C4F20200016821F44071059AE8
:10479000526911430160FFE7059800788006002800
:1047A0000CD5FFE741F28800C4F20200016821F451
:1047B0004061059A926911430160FFE7059800780E
:1047C000400600280CD5FFE741F28800C4F2020041
:1047D000016821F44051059AD26911430160FFE755
:1047E00005980078000600280CD5FFE741F2880004
:1047F000C4F20200016821F44041059A126A114393
:104800000160FFE705984078C00700280CD0FFE75B
:1048100041F28800C4F20200016821F44031059A97
:10482000526A11430160FFE70598807880070028ED
:104830000CD5FFE741F29C00C4F20200016821F0B0
:104840000301059A926A11430160FFE705984078D9
:10485000800700280CD5FFE741F28800C4F202006F
:10486000016821F44021059AD26A11430160FFE7F3
:1048700005984078400700281BD5FFE741F28800E3
:10488000C4F20200016821F44011059A126B114331
:1048900001600598006BB0F5801F09D1FFE741F278
:1048A0000C00C4F20200016841F480110160FFE7CE
:1048B000FFE705984078000700281BD5FFE741F285
:1048C0008800C4F20200016821F44001059A526B8D
:1048D000114301600598406BB0F5800F09D1FFE7E7
:1048E00041F20C00C4F20200016841F48011016041
:1048F000FFE7FFE705984078C00600281BD5FFE7D3
:1049000041F28800C4F20200016821F04071059A6A
:10491000926B114301600598806BB0F1807F09D1E3
:10492000FFE741F20C00C4F20200016841F480117B
:104930000160FFE7FFE705984078800600281BD557
:10494000FFE741F28800C4F20200016821F04061F3
:10495000059AD26B114301600598C06BB0F1006FEE
:1049600009D1FFE741F20C00C4F20200016841F4F2
:1049700080110160FFE7FFE70598407840060028B6
:104980001BD5FFE741F28800C4F20200016821F064
:104990004061059A126C114301600598006CB0F1FA
:1049A000006F09D1FFE741F20C00C4F20200016878
:1049B00041F480110160FFE7FFE7059840780006A9
:1049C00000281BD5FFE741F28800C4F2020001680D
:1049D00021F04051059A526C114301600598406CDA
:1049E000B0F1805F09D1FFE741F20C00C4F2020090
:1049F000016841F480310160FFE7FFE705988078A6
:104A0000C00700281BD0FFE741F28800C4F2020073
:104A1000016821F04041059A926C114301600598AC
:104A2000806CB0F1804F09D1FFE741F20C00C4F275
:104A30000200016841F480310160FFE7FFE705985B
:104A40008078400700281BD5FFE741F29C00C4F2A4
:104A50000200016821F44011059AD26C11430160F3
:104A60000598C06CB0F5001F09D1FFE741F20C00BA
:104A7000C4F20200016841F480110160FFE7FFE722
:104A80009DF80A0006B080BD80B586B00490039101
:104A9000002000900498002804D1FFE701208DF841
:104AA000170082E1039842F20001C4F20201096892
:104AB00001F00F01884216D9FFE742F20000C4F26C
:104AC0000200016821F00F01039A114301600068A0
:104AD00000F00F000399884204D0FFE701208DF811
:104AE000170062E1FFE704980078C007002800F093
:104AF000A480FFE70498406803283AD1FFE741F219
:104B00000000C4F2020000688001002804D4FFE71E
:104B100001208DF8170048E102F0AAFD01900198EC
:104B20004BF20141C0F2C441884221D3FFE741F278
:104B30000800C4F20200006810F0F00F0BD0FFE78D
:104B4000049800788007002811D5FFE70498806852
:104B500000280CD1FFE741F20800C4F2020001680E
:104B6000082262F30711016080200090FFE7FFE751
:104B700038E00498406802280ED1FFE741F20000B7
:104B8000C4F2020000688003002804D4FFE701207B
:104B90008DF8170009E10DE041F20000C4F20200B7
:104BA00000684005002804D4FFE701208DF81700B5
:104BB000FBE0FFE700F0FEF8019001984BF20141A5
:104BC000C0F2C44188420CD3FFE741F20800C4F2AE
:104BD00002000168082262F3071101608020009042
:104BE000FFE7FFE741F20800C4F20200016821F08C
:104BF0000301049A526811430160FFF7FDFA029025
:104C0000FFE741F20800C4F20200006800F00C0067
:104C100004994968B0EB810F0ED0FFE7FFF7ECFA7B
:104C20000299401A41F28931884204D3FFE70320F8
:104C30008DF81700B9E0E4E7FFE7049800788007F3
:104C400000282CD5FFE7049800784007002809D5F4
:104C5000FFE741F20800C4F20200016841F4E0619C
:104C60000160FFE704980078000700280BD5FFE7F4
:104C700041F20800C4F20200016841F4E06121F44D
:104C800060510160FFE741F20800C4F202000168D0
:104C900021F0F001049A9268114301600DE0009840
:104CA000802809D1FFE741F20800C4F20200016840
:104CB00021F0F0010160FFE7FFE7039842F20001F5
:104CC000C4F20201096801F00F01884228D2FFE70F
:104CD00042F20000C4F20200016821F00F01039AC1
:104CE00011430160FFF788FA0290FFE742F20000EB
:104CF000C4F20200006800F00F00039988420ED051
:104D0000FFE7FFF779FA0299401A41F289318842A8
:104D100004D3FFE703208DF8170046E0E6E7FFE73E
:104D200004980078400700280CD5FFE741F20800FE
:104D3000C4F20200016821F4E061049AD2681143D0
:104D40000160FFE704980078000700280DD5FFE711
:104D500041F20800C4F20200016821F46051049A93
:104D6000126941EAC2010160FFE700F023F841F255
:104D70000801C4F202010968C9B209094AF22C42C9
:104D8000C0F60002515C01F01F01C84040F2000172
:104D9000C2F20001086040F26800C2F20000006840
:104DA000FFF758FA8DF81700FFE79DF8170006B0D7
:104DB00080BD000086B041F20800C4F20200006825
:104DC00000F00C00042806D1FFE742F20040C0F2D8
:104DD000F400019069E041F20800C4F202000068AA
:104DE00000F00C00082806D1FFE742F20040C0F2B4
:104DF000F400019058E041F20800C4F2020000689B
:104E000000F00C000C284BD1FFE741F20C00C4F27B
:104E10000200016801F0030104910068C0B20121A1
:104E200001EB1010029004980228009015D0FFE7C3
:104E30000098032812D1FFE7029842F20041C0F225
:104E4000F401B1FBF0F041F20C01C4F20201096877
:104E5000C1F306214843059011E0FFE7029842F2B2
:104E60000041C0F2F401B1FBF0F041F20C01C4F2D8
:104E700002010968C1F3062148430590FFE741F2AA
:104E80000C00C4F20200006800F0C060022101EBD7
:104E90001060039005980399B0FBF1F0019002E0D7
:104EA00000200190FFE7FFE7FFE7019806B0704799
:104EB000B0B588B006900698002804D1FFE701201D
:104EC0008DF81F00D0E306980078C007002800F096
:104ED0009D80FFE741F20800C4F20200006800F084
:104EE0000C00049041F20C00C4F20200006800F0D3
:104EF0000300039004980C2804D1FFE703980328CB
:104F000004D0FFE70498082813D1FFE741F200001E
:104F1000C4F2020000688003002809D5FFE7069864
:104F20004068002804D1FFE701208DF81F009BE3B3
:104F30006BE0FFE706984068B0F5803F09D1FFE7D6
:104F400041F20000C4F20200016841F480310160C6
:104F500020E006984068B0F5A02F0DD1FFE741F2A0
:104F60000000C4F20200016841F480210160016880
:104F700041F4803101600CE041F20000C4F2020013
:104F8000016821F480310160016821F48021016011
:104F9000FFE7FFE7FFE70698406800281AD0FFE721
:104FA000FFF72AF90590FFE741F20000C4F2020082
:104FB0000068800300280CD4FFE7FFF71DF905996E
:104FC000401A652804D3FFE703208DF81F004BE348
:104FD000EAE719E0FFF710F90590FFE741F200005A
:104FE000C4F202000068800300280CD5FFE7FFF739
:104FF00003F90599401A652804D3FFE703208DF8CB
:105000001F0031E3EAE7FFE7FFE7FFE706980078D4
:105010008007002840F1A280FFE741F20800C4F2B7
:105020000200006800F00C00049041F20C00C4F291
:105030000200006800F00300039004980C2804D1DB
:10504000FFE70398022804D0FFE7049804282ED134
:10505000FFE741F20000C4F20200006840050028AA
:1050600009D5FFE70698C068002804D1FFE70120B2
:105070008DF81F00F8E241F20400C4F2020001685A
:1050800021F0FE41069A126941EA0261016040F294
:105090006800C2F200000068FFF7DCF8002804D0C6
:1050A000FFE701208DF81F00DEE2FFE755E00698DC
:1050B000C06800282ED0FFE741F20000C4F20200D1
:1050C000016841F480710160FFF796F80590FFE7F1
:1050D00041F20000C4F202000068400500280CD430
:1050E000FFE7FFF789F80599401A032804D3FFE783
:1050F00003208DF81F00B7E2EAE741F20400C4F292
:105100000200016821F0FE41069A126941EA02613B
:10511000016021E041F20000C4F20200016821F4C4
:1051200080710160FFF768F80590FFE741F2000029
:10513000C4F202000068400500280CD5FFE7FFF725
:105140005BF80599401A032804D3FFE703208DF884
:105150001F0089E2EAE7FFE7FFE7FFE7069800782C
:10516000000700284AD5FFE706984069002822D0AA
:10517000FFE741F29400C4F20200016841F001012E
:105180000160FFF739F80590FFE741F29400C4F29F
:1051900002000068800700280CD4FFE7FFF72CF816
:1051A0000599401A032804D3FFE703208DF81F0058
:1051B0005AE2EAE721E041F29400C4F202000168F9
:1051C00021F001010160FFF717F80590FFE741F2B8
:1051D0009400C4F202000068800700280CD5FFE7A5
:1051E000FFF70AF80599401A032804D3FFE70320C4
:1051F0008DF81F0038E2EAE7FFE7FFE7069800783E
:105200004007002840F1C780FFE700208DF80B0021
:1052100041F25800C4F202000068C000002813D414
:10522000FFE7FFE741F25800C4F20200016841F0D5
:1052300080510160006800F0805001900198FFE704
:1052400001208DF80B00FFE747F20000C4F20000D8
:105250000068C005002822D4FFE747F20000C4F22E
:105260000000016841F480710160FEF7C5FF059000
:10527000FFE747F20000C4F200000068C005002804
:105280000CD4FFE7FEF7B8FF0599401A032804D3B2
:10529000FFE703208DF81F00E6E1EAE7FFE7FFE7FD
:1052A00006988068012809D1FFE741F29000C4F216
:1052B0000200016841F0010101601FE0069880686A
:1052C00005280DD1FFE741F29000C4F20200016809
:1052D00041F004010160016841F0010101600CE04E
:1052E00041F29000C4F20200016821F00101016066
:1052F000016821F004010160FFE7FFE7FFE706987E
:10530000806800281CD0FFE7FEF776FF0590FFE7D6
:1053100041F29000C4F202000068800700280ED419
:10532000FFE7FEF769FF0599401A41F2893188428B
:1053300004D3FFE703208DF81F0095E1E8E71BE0A9
:10534000FEF75AFF0590FFE741F29000C4F2020019
:105350000068800700280ED5FFE7FEF74DFF05998E
:10536000401A41F28931884204D3FFE703208DF8C7
:105370001F0079E1E8E7FFE79DF80B00012809D15C
:10538000FFE741F25800C4F20200016821F08051A9
:105390000160FFE7FFE706980078800600284AD5FD
:1053A000FFE706988069002822D0FFE741F29800C5
:1053B000C4F20200016841F001010160FEF71CFF28
:1053C0000590FFE741F29800C4F2020000688007F0
:1053D00000280CD4FFE7FEF70FFF0599401A0328B9
:1053E00004D3FFE703208DF81F003DE1EAE721E049
:1053F00041F29800C4F20200016821F0010101604D
:10540000FEF7FAFE0590FFE741F29800C4F20200B1
:105410000068800700280CD5FFE7FEF7EDFE059930
:10542000401A032804D3FFE703208DF81F001BE177
:10543000EAE7FFE7FFE70698C069002800F010815F
:10544000FFE741F20800C4F20200006800F00C001F
:105450000C2800F0AC80FFE70698C069022878D1DC
:10546000FFE741F20000C4F20200016821F0807100
:105470000160FEF7C1FE0590FFE741F20000C4F2B3
:1054800002000068800100280CD5FFE7FEF7B4FE9B
:105490000599401A032804D3FFE703208DF81F0065
:1054A000E2E0EAE741F20C00C4F20200016848F2CF
:1054B0000C02C0F29F121140069A136AD2F824C05F
:1054C000D2F828E0D46A6FF00F0505EB0C1C43EA14
:1054D0000C0343EA0E23D2F830C040F2000ECFF6A0
:1054E000E07E0EEA0C5CACF5001C43EA0C03526B48
:1054F0004FF07E4C0CEA026202F17E421A4342EA0D
:10550000C4621143016041F20001C4F202010A6861
:1055100042F080720A60016841F080710160FEF71C
:105520006BFE0590FFE741F20000C4F20200006844
:10553000800100280CD4FFE7FEF75EFE0599401AB3
:10554000032804D3FFE703208DF81F008CE0EAE76F
:105550002CE041F20000C4F20200016821F08071E9
:105560000160FEF749FE0590FFE741F20000C4F23A
:1055700002000068800100280CD5FFE7FEF73CFE22
:105580000599401A032804D3FFE703208DF81F0074
:105590006AE0EAE741F20C00C4F2020001684FF64B
:1055A000FC72CFF6EE6211400160FFE757E006980B
:1055B000C069012804D1FFE701208DF81F0053E0E6
:1055C00041F20C00C4F2020000680390039800F05E
:1055D00003000699096A88423BD1FFE7039800F06F
:1055E000F0000699496A6FF00F0202EB0111884240
:1055F0002FD1FFE7039800F4FE400699896AB0EBCB
:10560000012F26D1FFE7039800F078400699C96A78
:10561000B0EBC16F1DD1FFE7039800F4C0000699FD
:10562000096B0022CFF6E07202EA0151A1F50011E8
:1056300088420ED1FFE7039800F0C0600699496BDD
:105640004FF07E4202EA016101F17E41884204D0BE
:10565000FFE701208DF81F0006E0FFE7FFE7FFE707
:1056600000208DF81F00FFE79DF81F0008B0B0BDB7
:1056700080B582B00190019802F082F902B080BD3D
:1056800081B0009001B0704781B0009001B07047C8
:1056900081B0009001B0704784B002900191002069
:1056A0000090FFE7029890F83C00012804D1FFE742
:1056B00002208DF80F008CE00298012180F83C1048
:1056C000FFE7FFE7009820F0FF000199C968084351
:1056D0000090009820F44070019989680843009078
:1056E000009820F480600199496808430090009870
:1056F00020F400600199096808430090009820F4A4
:1057000080500199096908430090009820F40050E6
:105710000199496908430090009820F4804001995C
:10572000096B08430090009820F470200199896962
:1057300040EA01400090009820F080500199C9692A
:10574000084300900298006842F60041C4F201014B
:10575000884212D0FFE70298006843F20041C4F289
:105760000101884209D0FFE70298006845F2000174
:10577000C4F2010188421ED1FFE7009820F47000B6
:105780000199896A40EA01500090009820F08070E9
:105790000199096A08430090009820F0007001996F
:1057A000496A08430090009820F000500199C96AA6
:1057B00008430090FFE70098029909684864FFE7F2
:1057C0000298002180F83C10FFE700208DF80F00C0
:1057D000FFE79DF80F0004B07047000081B0009013
:1057E00001B0704781B0009001B0704781B0009067
:1057F00001B0704785B003900291FFE7039890F8DD
:105800003C00012804D1FFE702208DF81300A7E037
:105810000398012180F83C10FFE7FFE7039802217D
:1058200080F83D1003980068406801900398006874
:10583000806800900398006842F60041C4F20101BC
:10584000884212D0FFE70398006843F20041C4F297
:105850000101884209D0FFE70398006845F2000182
:10586000C4F2010188420AD1FFE7019820F47000D8
:10587000019002984068019908430190FFE7019860
:105880004FF68F71CFF6FF510840019002980068E3
:1058900001990843019001980399096848600398A9
:1058A000006842F60041C4F2010188423CD0FFE7A3
:1058B00003980068B0F1804F36D0FFE70398006886
:1058C00040F20041C4F2000188422DD0FFE7039866
:1058D000006840F60001C4F20001884224D0FFE7CE
:1058E0000398006840F60041C4F2000188421BD0D2
:1058F000FFE70398006843F20041C4F201018842C7
:1059000012D0FFE70398006844F20001C4F20101DD
:10591000884209D0FFE70398006845F20001C4F20D
:10592000010188420ED1FFE7009820F0800000902E
:1059300002988068009908430090009803990968CC
:105940008860FFE70398012180F83D10FFE7039886
:10595000002180F83C10FFE700208DF81300FFE7DE
:105960009DF8130005B0704780B58AB00890079184
:105970000798002805D1FFE7089890F844000590A3
:105980001CE00798042805D1FFE7089890F8450027
:10599000049010E00798082805D1FFE7089890F8D0
:1059A0004600039004E0089890F847000390FFE752
:1059B00003980490FFE704980590FFE705980128F5
:1059C00004D0FFE701208DF827009CE0079800280D
:1059D00005D1FFE70898022180F844101EE00798DF
:1059E000042806D1FFE70898022180F845100291AB
:1059F00012E00798082806D1FFE70898022180F8EE
:105A00004610019105E00898022180F847100191A5
:105A1000FFE701980290FFE70298FFE70898006807
:105A20000799042202F03CF908980068416C41F49F
:105A3000004141640898006842F60041C4F2010147
:105A400088423CD0FFE708980068B0F1804F36D01C
:105A5000FFE70898006840F20041C4F20001884264
:105A60002DD0FFE70898006840F60001C4F200015D
:105A7000884224D0FFE70898006840F60041C4F24D
:105A8000000188421BD0FFE70898006843F20041FC
:105A9000C4F20101884212D0FFE70898006844F27E
:105AA0000001C4F20101884209D0FFE708980068AC
:105AB00045F20001C4F20101884219D1FFE70898BC
:105AC000006880680721C0F201010840069006982E
:105AD00006280CD0FFE70698B0F5803F07D0FFE717
