:020000040800F2
:10000000183200208502000899740008956C0008D9
:1000100095740008790A0008A18500080000000016
:10002000000000000000000000000000B57800089B
:100030003527000800000000A57500080D790008AC
:100040009F0200089F0200089F0200089F0200080C
:100050009F0200089F0200089F0200089F020008FC
:100060009F0200089F0200089F0200087D0A000806
:100070009F0200089F0200089F0200089F020008DC
:100080009F0200089F0200089F0200089F020008CC
:100090009F0200089F0200089F0200089F020008BC
:1000A0009F0200089F0200089F0200089F020008AC
:1000B0009F0200089F0200089F0200089F0200089C
:1000C0009F0200089F0200089F0200089F0200088C
:1000D0009F0200089F0200089F0200089F0200087C
:1000E0009F0200089F0200089F0200089F0200086C
:1000F0009F0200089F0200089F0200089F0200085C
:100100009F0200089F0200089F0200089F0200084B
:100110009F0200089F020008A5790008B579000831
:100120009F0200089F0200089F0200089F0200082B
:100130009F0200089F0200089F0200089F0200081B
:100140009F0200089F0200089F0200089F0200080B
:100150009F0200089F0200089F0200089F020008FB
:100160009F0200089F0200089F0200089F020008EB
:100170009F0200089F0200089F0200089F020008DB
:100180009F0200089F0200089F0200089F020008CB
:100190009F0200089F0200089F0200089F020008BB
:1001A0009F0200089F0200089F0200089F020008AB
:1001B0009F0200089F0200089F0200089F0200089B
:1001C0009F0200089F0200089F0200089F0200088B
:1001D0009F0200089F02000800F002F800F040F8BB
:1001E0000AA090E8000C82448344AAF10107DA4592
:1001F00001D100F035F8AFF2090EBAE80F0013F0A4
:10020000010F18BFFB1A43F0010318471C950000AB
:100210003C950000103A24BF78C878C1FAD852073C
:1002200024BF30C830C144BF04680C607047000070
:100230000023002400250026103A28BF78C1FBD8EF
:10024000520728BF30C148BF0B6070471FB509F087
:100250001FFA0FBC00F014F80FB41FBD10B510BD8D
:1002600000F06EF81146FFF7F1FF08F04DFC00F0CA
:100270008CF803B4FFF7F2FF03BC00F08FF8000026
:1002800000F0A3B80948804709480047FEE7FEE7A9
:10029000FEE7FEE7FEE7FEE7FEE7FEE7FEE7FEE736
:1002A00004480549054A064B70470000917900084B
:1002B000D9010008182C002018320020182E002028
:1002C000182E00204FF0000200B5134694469646C3
:1002D000203922BFA0E80C50A0E80C50B1F1200159
:1002E000BFF4F7AF090728BFA0E80C5048BF0CC007
:1002F0005DF804EB890028BF40F8042B08BF704765
:1003000048BF20F8022B11F0804F18BF00F8012BD6
:10031000704770477047704710B500F009F80068E3
:1003200010BD10B5044600F003F8046010BD0000D5
:10033000004870473000002000487047300000201F
:100340007546FFF7F9FFAE4605006946534620F0B3
:100350000700854618B020B5FFF7A2FFBDE8204092
:100360004FF000064FF000074FF000084FF0000B71
:10037000AC46ACE8C009ACE8C009ACE8C009ACE8E0
:10038000C00921F007018D46704710B50446AFF350
:1003900000802046BDE81040FFF76BBF01491820E0
:1003A000ABBEFEE7260002000246C91C21F0030195
:1003B000D2E900031B1A8B4201D20020704701448E
:1003C000C91D21F00701116070472DE9F34F83B07B
:1003D00000274FF48074BA4603A821468DF80070B8
:1003E000FFF7E2FF5FEA000801D100F083F8214641
:1003F000404600F070F8060009D04FF0010B45466A
:10040000C14616F8014B8FB15C2C16D01CE008F1E8
:1004100008004146C8F800000020C8F80400D8F8D9
:1004200000402070012005B0BDE8F08F222C01D0E3
:10043000272C0FD12746BA462CE03078222807D047
:100440005C2805D0272803D0BC4203D1002721E037
:10045000761C04464CB12FB9202C06D0A4F109001B
:10046000042802D905F8014BCBE74D4502D1BAF17A
:10047000000F0FD052464946002005F8010B684690
:10048000AFF300809DF8000070B14D464FF0000AB8
:100490000BF1010B002CB4D14FEA8B0103A8FFF73D
:1004A00083FF040002D004E0A946EFE7002000F03B
:1004B00021F800204246C4F8008005E012F8011B34
:1004C00011B9401C44F82020AA42F7D3002144F877
:1004D00020102146A7E71CB50446CDE90001694676
:1004E0001520ABBE08B100201CBD20461CBD7047C6
:1004F0007047704710B500F009F8BDE81040AFF341
:100500000080002801D0FFF749BF704710B50128CF
:1005100005D0002103A000F021F8012010BD09A1A1
:10052000F8E7000053494752544D454D3A204F7566
:1005300074206F662068656170206D656D6F7279DB
:10054000000000003A2048656170206D656D6F7293
:100550007920636F727275707465640070B50546BA
:100560000C460A2000E06D1C00F011F835B1287827
:100570000028F8D102E0641C00F009F814B12078DA
:100580000028F8D1BDE870400A20AFF3008008B51C
:1005900069468DF800000320ABBE08BD80B58AB067
:1005A000089007910020059007980490089800682B
:1005B00006F008FC02900898006806F0C5FB019060
:1005C0000298002805D1FFE70198002800F0AB80D1
:1005D000FFE708980068C0688001002835D5FFE76C
:1005E0000898407F012830D1FFE70898007F012854
:1005F0002BD1FFE701200490FFE70898006800680E
:1006000000F040000021B1EB901F19D1FFE70598E1
:100610000021CAF2403188420ED3FFE70898C16D2D
:1006200041F01001C1650898016E41F001010166B9
:1006300001208DF827007AE0059801300590DCE76D
:100640000898006840210160FFE70498022815D04F
:10065000FFE70898006806F0B5FB00280DD0FFE71B
:100660000898006806F096FB002805D1FFE7089877
:10067000006806F0E7FBFFE7FFE7FFE704980128C3
:1006800015D0FFE70898006806F05EFB00280DD043
:10069000FFE70898006806F07DFB002805D1FFE71A
:1006A0000898006806F058FBFFE7FFE7FFE70498AB
:1006B0000228009007D0FFE70098032806D1FFE743
:1006C0000C20039005E00820039002E00420039032
:1006D000FFE704F0D5F80690FFE708980068806807
:1006E000039908421ED0FFE704F0CAF80699401AA1
:1006F000062816D3FFE70898006880680399084227
:100700000ED0FFE70898C16D41F01001C16508984F
:10071000016E41F00101016601208DF8270006E01D
:10072000FFE7DAE7FFE700208DF82700FFE79DF8F5
:1007300027000AB080BD000080B584B00390039804
:10074000806A02900298C06D10F0500F4CD1FFE704
:100750000298C16D41F40071C1650298006800689B
:100760000007002822D5FFE70298006806F032FB58
:1007700000281AD0FFE702980068C06880040028AB
:1007800012D4FFE70298C16D21F48071C16502980F
:10079000C06DC004002806D4FFE70298C16D41F087
:1007A0000101C165FFE7FFE7FFE719E00298006874
:1007B000C0688007002812D4FFE70298C16D21F4B9
:1007C0008071C1650298C06DC004002806D4FFE79F
:1007D0000298C16D41F00101C165FFE7FFE7FFE746
:1007E000029803F089F813E00298C06DC006002853
:1007F00004D5FFE7029803F095F808E00298406DF1
:10080000406B03990190084601998847FFE7FFE78D
:1008100004B080BD80B582B001900198806A0090DC
:100820000098C16D41F04001C1650098016E41F032
:1008300004010166009803F075F802B080BD000065
:1008400080B582B001900198806A0090009803F012
:1008500065F802B080BD000080B584B002900298B7
:10086000006806F097FA00900298006806F09AFA7D
:1008700000284DD0FFE70098002849D1FFE70298F3
:100880000068806800F00D00012809D1FFE7029898
:10089000006806F001FA02980068032101600DE08B
:1008A0000298C16D41F01001C1650298016E41F0DE
:1008B0000101016601208DF80F002DE003F0E0FF3B
:1008C0000190FFE7029800688068C00700281ED0EA
:1008D000FFE703F0D5FF0199401A032816D3FFE77D
:1008E000029800688068C00700280ED0FFE70298D1
:1008F000C16D41F01001C1650298016E41F0010126
:10090000016601208DF80F0006E0FFE7DAE7FFE758
:1009100000208DF80F00FFE79DF80F0004B080BDA8
:1009200080B586B00490002002900498006806F01C
:1009300039FA002840F09780FFE704980068806843
:100940003F21C8F2000108420ED0FFE70498C16DB4
:1009500041F01001C1650498016E41F0010101668A
:1009600001208DF8170082E00498006806F0AEF9C7
:10097000049800680121B0F1A04F01910CD0FFE76D
:10098000049800684FF60071CAF6FF710844B0FA87
:1009900080F040090190FFE70198C00740F2007124
:1009A000C5F2000100281CBF40F20031C5F2000171
:1009B000084606F0A9F94FEA002000281DD5FFE7F8
:1009C00040F20000C2F200000068800942F6635164
:1009D000C0F23E51A0FB0101890901EB41010C224B
:1009E00002EB81010291FFE70298002804D0FFE7A3
:1009F000029801380290F7E7FFE703F041FF039008
:100A0000FFE7049800680068C00700282AD1FFE7C4
:100A10000498006806F0C6F9002805D1FFE704989D
:100A2000006806F053F9FFE703F02AFF0399401A24
:100A3000032816D3FFE7049800680068C007002861
:100A40000ED1FFE70498C16D41F01001C165049813
:100A5000016E41F00101016601208DF8170006E0EA
:100A6000FFE7CEE7FFE700208DF81700FFE79DF8CE
:100A7000170006B080BD0000FFE7FEE780B542F634
:100A8000F010C2F2000003F03BFB80BD84B0039085
:100A90000398006840F20741C4F20201884211D86D
:100AA000FFE740F60000C4F20200009003980078CF
:100AB00008384CF6CD41CCF6CC41A0FB0101090928
:100AC000019112E040F62000C4F202000090039869
:100AD000007808384CF6CD41CCF6CC41A0FB0101A2
:100AE000082202EB11110191FFE700980290029891
:100AF00003994A6C22F0030210448864039840F67C
:100B00008001C4F20201C164019800F01F000121BC
:100B100001FA00F00399086504B0704782B00190B3
:100B20000198406800F07F000090009840F6FC01BA
:100B3000C4F2020101EB800001994865019840F67A
:100B40004011C4F2020181650098013800F01F00D5
:100B5000012101FA00F00199C86502B07047000058
:100B600084B003900291019200930398C16C006DD0
:100B700048600398406D002805D0FFE70398816D19
:100B8000C06D4860FFE70398016C406C00F01F00E7
:100B9000012202FA00F04860009803990968486051
:100BA00003988068102809D1FFE701980399096824
:100BB0008860029803990968C86008E00298039960
:100BC00009688860019803990968C860FFE704B064
:100BD0007047000082B08DED000A9DED000AB5EE71
:100BE000400AF1EE10FA07DAFFE79DED000AB1EED8
:100BF000400A8DED010A02E000980190FFE79DEDAB
:100C0000010A02B07047000080B58AB009900891CF
:100C10000792099842F25061405806909DED060AED
:100C20009FED6F1AB4EE410AF1EE10FA03DAFFE716
:100C300000200690FFE79DED060A9FED6A1AB4EECC
:100C4000410AF1EE10FA04DDFFE74FF07E50069006
:100C5000FFE7099890F82400002803D1FFE700205F
:100C60000690FFE79DED060A099842F25461084498
:100C700090ED001AB4EE410AF1EE10FA06DDFFE73E
:100C800041F26F20C3F68320059005E041F26F200A
:100C9000C3F683300590FFE7099890ED000A9DEDBB
:100CA000051A31EE001A80EE010A8DED040A9DED61
:100CB000040A9FED4D1AB7EE002AF0EE410A8DEDC1
:100CC000021AB0EE421A8DED012A00F025FD8DEDDD
:100CD000040A099842F25461084490ED000A9DED1F
:100CE000041A9DED062A32EE402A21EE021A30EE59
:100CF000010A80ED000A0998084490ED000ADDED34
:100D0000020A9DED011A009100F006FD0998009974
:100D1000084480ED000A099842F24462104490EDC4
:100D2000000AB0EE0C1AB4EE410AF1EE10FA30DA15
:100D3000FFE7099800F5195090ED000A9FED2B1A76
:100D4000B4EE410AF1EE10FA23DAFFE7099842F215
:100D50004861084490ED000A9FED251AB4EE410A5F
:100D6000F1EE10FA15DAFFE7099842F250610844F3
:100D700090ED000A9FED1A1AB4EE410AF1EE10FA56
:100D800006DAFFE7099842F2546100224250FFE779
:100D9000FFE700200390FFE7039802281ED8FFE733
:100DA0000898039900EB810090ED000A099842F23F
:100DB0005462104490ED001A079800EB810090ED0A
:100DC000002A32EE402A21EE021A30EE010A80EDAE
:100DD000000AFFE7039801300390DDE70AB080BD09
:100DE000CDCC4C3D48E17A3F00000000CDCC0C401A
:100DF0000000164480B586B00590059842F2246143
:100E0000084490ED000AF6EE080A9FED2F1A0391B0
:100E100000F082FC05980399084480ED000A0598CB
:100E200042F22862104490ED000ADFED280A9FED9F
:100E3000281A029200F070FC05980299084480ED8F
:100E4000000A059890ED010AB6EE001A20EE010A9C
:100E50008DED040A9DED040A059890ED001A31EE1F
:100E6000011AB4EE410AF1EE10FA08DAFFE705982C
:100E700090ED000A30EE000A8DED040AFFE79DEDCB
:100E8000040A9FED141AB4EE410AF1EE10FA06DDE1
:100E9000FFE741F26F20C3F683100490FFE7059847
:100EA00042F22C61084490ED000A9DED041AF1EE27
:100EB000410A019100F030FC05980199084480ED49
:100EC000000A06B080BD00BF6666A63F00000000B5
:100ED000CDCC0C3F6F12833984B003900291002077
:100EE0008DF803000190FFE7019802283FD8FFE743
:100EF0000298019900EB810090ED000A039890EDB3
:100F0000041AB4EE410AF1EE10FA0ADDFFE7039885
:100F100000690299019A41F8220001208DF803002E
:100F200020E00298019900EB810090ED000A0398FF
:100F300090ED041AB1EE411AB4EE410AF1EE10FA46
:100F40000FDAFFE7039890ED040AB1EE400A029829
:100F5000019900EB810080ED000A01208DF803006B
:100F6000FFE7FFE7FFE7019801300190BCE79DF83C
:100F7000030004B07047000080B58AB009908DED81
:100F8000080A09989DED080A01F076FA09984FF0D1
:100F90007E51C0F8981E099841F234028150012018
:100FA000069000200790FFE70798322862D8FFE7F5
:100FB0000998079900EB8100D0F8D00905900998AD
:100FC000079900EB8100D0F89C0A049009980799D2
:100FD00000EB8100D0F8000D03900998079900EB11
:100FE0008100D0F8CC0D02909DED050A9DED031A0D
:100FF00020EE010A9DED041A9DED022A21EE021A4F
:1010000030EE410A8DED010A9DED040A9DED031AB3
:1010100020EE010A9DED051A9DED022A21EE021A2D
:1010200030EE010A8DED000A05980999069A01EB48
:101030008201C1F8980E04980999069A01EB820181
:10104000C1F89C0E01980999069A01EB820141F2C0
:101050003402885000980999069A01EB820141F206
:1010600038028850069802300690FFE70798013052
:10107000079099E70AB080BD80B5A4B0DDF898C0AC
:101080002390229121922093239842F230610844C8
:1010900090ED000AB8EE081A20EE010AB1EE001A2F
:1010A00030EE010A8DED1F0A2398084490ED000AE6
:1010B0009FEDE01A20EE010A9FEDDF1A30EE010AE3
:1010C0008DED1E0A2398084490ED000A9FEDDB1A6F
:1010D00020EE010A9FEDDA1A30EE010A8DED1D0AAD
:1010E0002398084490ED000A9FEDD61A20EE010ADD
:1010F0009FEDD51A30EE010A8DED1C0A23980844A5
:1011000090ED000A9FEDD11A20EE010A9FEDD01A52
:1011100030EE010A8DED1B0A239890ED000A9DED3B
:101120001C1A31EE001A80EE010A8DED1A0A23987E
:1011300090ED000A9DED1B1A31EE001A80EE010AB7
:101140008DED190A9DED1A0A9FEDC21AB7EE002A1D
:10115000F0EE410A8DED061AB0EE421ACDF814C039
:1011600004918DED032A00F0D7FA8DED1A0A9DED5A
:10117000190ADDED060A9DED031A00F0CDFA8DED9A
:10118000190A239842F22861014491ED000A04995A
:10119000084490ED001AB5EE002A21EE021A30EE56
:1011A000010A8DED180A9DED180AB6EE081ADDED5C
:1011B000060A00F0B1FA8DED180A239842F2506148
:1011C000084490ED000A9FEDA41AB4EE410AF1EE36
:1011D00010FA03DAFFE7002018901FE0239842F28C
:1011E0005061084490ED000A9FED9C1AB4EE410A4C
:1011F000F1EE10FA11DAFFE79DED180A239842F29A
:101200005061084490ED001A9FED942A81EE021A75
:1012100020EE010A8DED180AFFE7FFE7239842F25E
:10122000246140581790239890ED010A42F22C61F6
:10123000084490ED001A30EE010A8DED160A9DED7E
:10124000160AB5EE400AF1EE10FA03DAFFE70020C5
:101250001690FFE723989DED160AFFF78DFE239861
:1012600042F23061014491ED000A9FED7D1A20EEBB
:10127000010A30EE010A90ED041A20EE010A8DED0C
:10128000150A00201490FFE71498022800F2EF815D
:10129000FFE72298149950F8210012900020139033
:1012A000FFE71398662853D8FFE71398002819D151
:1012B000FFE7239814994FF4CE7201FB0201139AB1
:1012C00001EB820101F2FC4191ED000A9DED1D1A36
:1012D00030EE010A00EB820041F2D011084480EDAB
:1012E000000A18E0239814994FF4CE7201FB020112
:1012F000139A01EB820101F2FC4191ED000A9DED90
:101300001E1A30EE010A00EB820041F2D0110844AF
:1013100080ED000AFFE72398139900EB810141F269
:10132000D012114491ED000AD0ED070A90ED081A91
:10133000029200F0F1F92398139900EB81000299D1
:10134000084480ED000AFFE7139801301390A8E7E6
:10135000002011901390FFE7139866281ED8FFE72E
:101360002398139900EB810202F6986292ED000A2D
:10137000149A4FF4CE7302FB030000EB810090ED52
:101380000A1A20EE010A9DED111A31EE000A8DEDC8
:10139000110AFFE7139801301390DDE79DED120A63
:1013A0009DED111A30EE410A8DED100A1F980F9035
:1013B00000201390FFE7139866281CD8FFE72398B6
:1013C000139900EB810000F6986191ED000A20EE80
:1013D000000A41F2D011084490ED001A20EE010AF3
:1013E0009DED0F1A31EE000A8DED0F0AFFE71398FD
:1013F00001301390DFE79DED0F0A9FED9E1AB4EECA
:10140000410AF1EE10FA06DAFFE74BF6CC40C2F6DD
:101410008C300F90FFE79DED0F0AB7EE001A81EEBA
:10142000000A8DED0E0A00201390FFE7139866283E
:1014300074D817E0FBEDEB3A17B75139BD37863654
:10144000BD3786357333DCB952491D3AC2642ABAB6
:10145000FAED6B3A00000000CDCCCC3D9A99993E54
:10146000CDCC4C3E2398139900EB810041F2D01172
:10147000421892ED000A00F6986090ED001A20EEF6
:10148000010A9DED0E1A20EE010A8DED080A23983F
:10149000149A4FF4CE7302FB0300139A00EB820000
:1014A00090ED0A0A9DED081A9DED102A21EE021A10
:1014B00030EE010A80ED0A0A9DED080A2398139A7E
:1014C00000EB820000F6986292ED001A20EE010A0D
:1014D000B7EE001A31EE400A084490ED001A20EEF3
:1014E000010A8DED070A9DED070A2398D0ED070A42
:1014F00090ED081A019300F00FF923981499019ABE
:1015000001FB0200139900EB810000F2FC4080ED2A
:10151000000AFFE713980130139087E700200D9031
:101520001390FFE7139866281FD8FFE723981399B5
:1015300000EB810241F234031A4492ED000A149A3E
:101540004FF4CE7302FB030000EB810090ED0A1A0A
:1015500020EE010A9DED0D1A31EE000A8DED0D0A07
:10156000FFE7139801301390DCE710980C90239854
:10157000149900EB810041F26C3140580B90239894
:10158000149A00EB8200084490ED000A9DED1A1AAF
:101590009DED0C2A32EE402A21EE021A30EE010AAD
:1015A00080ED000A2398149A00EB82020A4492ED1F
:1015B000000A9DED0B1A30EE410A90ED001A80EE04
:1015C000010A8DED0A0A2398149A00EB820041F279
:1015D0007832104490ED000A9DED191A9DED0A2A0B
:1015E00032EE402A21EE021A30EE010A80ED000AA6
:1015F0002398149B00EB8300014491ED000A9DEDBC
:10160000161A104490ED002A21EE021A30EE010A5B
:101610008DED090A9DED090A9DED151AF1EE410ABD
:1016200000F07AF88DED090A0D982099149A41F886
:10163000220009982699149A41F822009DED170A74
:101640009DED0D1A20EE010A9DED181A9DED092A57
:1016500021EE021A30EE010A2198149900EB810064
:1016600080ED000AFFE71498013014900CE624B0D6
:1016700080BD00BFCCBC8C2B86B00A4603468DEDE6
:10168000040ACDED030AADF80A00ADF808109DED8F
:10169000030AB5EE400AF1EE10FA05DCFFE7BDF8EB
:1016A0000A00ADF8160032E09DED040A9DED031A24
:1016B00080EE010AB6EE001A30EE010A8DED010A45
:1016C0009DED010ABDF80A0001EE100AB8EE411ABC
:1016D000B4EE410AF1EE10FA05DAFFE7BDF80A00B0
:1016E000ADF8160013E09DED010ABCEEC00A8DEDC9
:1016F000000A0098BDF80810884204D9FFE7BDF839
:1017000008000090FFE70098ADF81600FFE7BDF86D
:10171000160006B07047000084B08DED020ACDEDD2
:10172000010A8DED001A9DED020A9DED011AB4EE3D
:10173000410AF1EE10FA03DAFFE7019803900FE097
:101740009DED020A9DED001AB4EE410AF1EE10FA89
:1017500003DDFFE70098039002E002980390FFE7A3
:101760009DED030A04B0704780B5AEB02D902C916A
:101770002D9842F2AC61002242542D9842F2AD61A4
:1017800042542D9842F21C61405AADF8AE00BDF8AB
:10179000AE002D9942F21E62895A88420ADBFFE7A9
:1017A000BDF8AE002D9942F21E62895A401AADF87A
:1017B000AE000AE0BDF8AE002D9942F21E62895AD1
:1017C000401A8030ADF8AE00FFE72D9842F25C6120
:1017D000415842F22062825A42F21E63C05A1044BB
:1017E0000530814201D8FFE79DE32D9842F2AC61BC
:1017F0000122425400201D901C901B902A90FFE76C
:101800002A98022868D8FFE72D982A9900EB4120F2
:10181000BDF8AE2000EB820041F29C32805827AA2E
:1018200042F821002D982A9900EB4120BDF8AE30F6
:1018300000EB830041F69C13C05824AB43F8210011
:101840002D982A9900EB4120BDF8AE3000EB8300C3
:1018500041F69C73C05821AB43F821002C982A997B
:1018600000EB810090ED000A02EB810090ED001A80
:1018700030EE410A1EA800EB810181ED000A2A9991
:1018800000EB810090ED000A20EE000A9DED1D1A8C
:1018900031EE000A8DED1D0A2C982A9900EB81008B
:1018A00090ED000A20EE000A9DED1C1A31EE000AB0
:1018B0008DED1C0A2A9802EB800090ED000A20EEC4
:1018C000000A9DED1B1A31EE000A8DED1B0AFFE7A1
:1018D0002A9801302A9093E72D9890ED000A9FED09
:1018E000D91A30EE011A80EE010A8DED1A0A9DED2B
:1018F0001A0A9FEDD51AB4EE410AF1EE10FA06DD90
:10190000FFE74CF6CD40C3F64C501A90FFE72D98F8
:1019100042F23461084490ED000A9DED1A1A9DEDE3
:101920001D2A9FEDCA3A22EE032A32EE402A21EE0A
:10193000021A30EE010A80ED000A2D9842F2386258
:10194000104490ED000A9DED1A1A9DED1C2A22EE1E
:10195000032A32EE402A21EE021A30EE010A80ED0F
:10196000000A2D9842F23C62104490ED000A9DED71
:101970001A1A9DED1B2A22EE032A32EE402A21EE8E
:10198000021A30EE010A80ED000A2D98084490ED0D
:10199000000AB5EE400AF1EE10FA06DAFFE72D98DC
:1019A00042F2346100224250FFE72D9842F2386142
:1019B000084490ED000AB5EE400AF1EE10FA06DA9E
:1019C000FFE72D9842F2386100224250FFE72D9840
:1019D00042F23C61084490ED000AB5EE400AF1EE97
:1019E00010FA06DAFFE72D9842F23C6100224250DD
:1019F000FFE72D9842F23461084490ED000A07F0A9
:101A00006DFD8DED190A2D9842F23861084490ED74
:101A1000000A07F063FD8DED180A2D9842F23C6133
:101A2000084490ED000A07F059FD8DED170A18984B
:101A300016909DED170A9DED161AB4EE410AF1EECF
:101A400010FA03DDFFE717981690FFE79DED190ADE
:101A50009DED161AB6EE002A31EE021A80EE010A4A
:101A60008DED150A2C9890ED000AD0ED010A90ED4D
:101A7000021A00F079FA8DED140A189813909DED72
:101A8000140A9DED131AB4EE410AF1EE10FA03DDCB
:101A9000FFE714981390FFE72D98BDF8AE100844A7
:101AA00042F29C51405C8DF84B0000208DF83700CD
:101AB0009DED130AB7EE001AB4EE410AF1EE10FAEA
:101AC00031DDFFE79DF84B0000282CD1FFE79DEDAD
:101AD000190AB6EE001AB4EE410AF1EE10FA22DD50
:101AE000FFE79DED150A9FED5A1AB4EE410AF1EE9B
:101AF00010FA18DDFFE72D9842F25061084490ED8E
:101B0000000A9FED541AB4EE410AF1EE10FA0ADB16
:101B1000FFE72D9890F82500002804D0FFE701206A
:101B20008DF83700FFE79DED190ABEEE001A30EE82
:101B3000010AB1EE021A80EE010A8DED110A9DED47
:101B4000150A9FED451A30EE010A9FED441A80EE0A
:101B5000010A8DED100A9DED110A9FED411AB7EEB5
:101B6000002AF0EE410A8DED031AB0EE421A8DED17
:101B7000022AFFF7D1FD8DED110A9DED100ADDED72
:101B8000030A9DED021AFFF7C7FD8DED100A1198AB
:101B90000F909DED100A9DED0F1AB4EE410AF1EE83
:101BA00010FA03DDFFE710980F90FFE79DED130A91
:101BB000B7EE001AB4EE410AF1EE10FA13DDFFE7BA
:101BC0009DF84B0000280ED1FFE72D9842F250619E
:101BD000084490ED000A9FEDD51AB4EE410AF1EEEB
:101BE00010FA03DAFFE700200F90FFE79DED130ADC
:101BF000B7EE001AB4EE410AF1EE10FA0CDCFFE782
:101C00002D9890ED000A9FEDCC1A30EE011A80EE6F
:101C1000010A8DED0E0A0BE02D9890ED000A9FED64
:101C2000C51A30EE011A80EE010A8DED0E0AFFE7AB
:101C30009DED0E0A9FEDC11AB4EE410AF1EE10FAC5
:101C400016DD0FE0A69B443BCDCC4C3DABAAAA3E93
:101C50008FC2F53C9A99193E8FC2F5BC90C2F53DF2
:101C6000000000004DF20A70C3F6A3400E90FFE79B
:101C70002D9842F23061084490ED000A9DED0E1A55
:101C80009DED0F2A32EE402A21EE021A30EE010AB3
:101C900080ED000A2D98084490ED000ADFEDA40ABB
:101CA000B7EE001A0191FFF737FD2D98019908440E
:101CB00080ED000A9DF83700002800F01681FFE74C
:101CC00000200C900B900A900990089007902A90A1
:101CD000FFE72A98022868D8FFE72A981EA901EB97
:101CE000800292ED000A24AA02EB800090ED001A17
:101CF00020EE010A9DED0C1A31EE000A8DED0C0A62
:101D00002A9802EB800090ED000A20EE000A9DED7B
:101D10000B1A31EE000A8DED0B0A2A9801EB8002B6
:101D200092ED000A21AA02EB800090ED001A20EE4D
:101D3000010A9DED0A1A31EE000A8DED0A0A2A9871
:101D400002EB800090ED000A20EE000A9DED091ADA
:101D500031EE000A8DED090A2A9801EB800191ED20
:101D6000000A2D9901EB800041F29031084490ED7A
:101D7000001A20EE010A9DED081A31EE000A8DEDE1
:101D8000080A2D982A9A00EB8200084490ED000A78
:101D900020EE000A9DED071A31EE000A8DED070ACC
:101DA000FFE72A9801302A9093E79DED0B0A9FEDFB
:101DB000641AB4EE410AF1EE10FA2BDDFFE79DED57
:101DC0000C0A9DED0B1A9FED5F2A31EE021A80EE90
:101DD000010A8DED060A9DED060ADFED5B0A9FED17
:101DE0005B1AFFF799FC8DED060A2D9842F22461EB
:101DF000084490ED000A9DED0E1A9FED552A21EE44
:101E0000021A9DED062A21EE021A30EE010A80ED3B
:101E1000000AFFE79DED090A9FED491AB4EE410A59
:101E2000F1EE10FA2BDDFFE79DED0A0A9DED091A90
:101E30009FED442A31EE021A80EE010A8DED050A6B
:101E40009DED050AFDEE000AB5EE001AFFF764FCF1
:101E50008DED050A2D9842F22861084490ED000AA4
:101E60009DED0E1A9FED3B2A21EE021A9DED052AEB
:101E700021EE021A30EE010A80ED000AFFE79DED27
:101E8000070A9FED351AB4EE410AF1EE10FA2BDD88
:101E9000FFE79DED080A9DED071A9FED2A2A31EE16
:101EA000021A80EE010A8DED040A9DED040ADFEDB1
:101EB0002B0A9FED2B1AFFF72FFC8DED040A2D98AE
:101EC00042F22C61084490ED000A9DED0E1A9FED40
:101ED000252A21EE021A9DED042A21EE021A30EE87
:101EE000010A80ED000AFFE7FFE72D98FEF782FF69
:101EF00019982D9942F26C62885018982D9942F2E7
:101F00007062885017982D9942F274628850159823
:101F10002D9942F2786288509DF837002D9942F24F
:101F2000AD628854FFE72EB080BD00BF9A99193E7C
:101F3000000000006F12033B6F12033A0AD7A33C64
:101F4000BD3786355F708930CDCC4CBECDCC4C3E94
:101F50006666E63E3333B33E0050C347ACC5A7B810
:101F6000ACC5A7389A99193F80B586B08DED050AA2
:101F7000CDED040A8DED031A9DED050AFEF72AFE4C
:101F80008DED020A9DED040AFEF724FE8DED010A97
:101F90009DED030AFEF71EFE8DED000A9DED010A80
:101FA0009DED021AB4EE410AF1EE10FA03DDFFE7EF
:101FB00001980290FFE79DED000A9DED021AB4EE34
:101FC000410AF1EE10FA03DDFFE700980290FFE707
:101FD0009DED020A06B080BD80B586B005908DEDFE
:101FE000040A0598002801D1FFE748E0002003908B
:101FF000FFE7039832283CD8FFE705989DED030AD8
:10200000B8EE400A90ED021A90ED032A20EE020A83
:1020100031EE000A8DED020A9DED020A9FED191ABC
:1020200020EE010A8DED010A9DED010A9DED041AD5
:1020300020EE010A8DED000A9DED000A07F0DEF8A2
:102040000598039900EB810000F5506080ED000ACF
:102050009DED000A07F07AF90598039900EB8100DD
:1020600000F6CC5080ED000AFFE7039801300390A2
:10207000BFE70498059942F258628850FFE706B01E
:1020800080BD00BFDB0FC94080B584B08DED030A71
:10209000CDED020A8DED011A9DED030A20EE000A36
:1020A0009DED021A21EE011A30EE010A9DED011A92
:1020B00021EE011A30EE010A9FED031A20EE010A0B
:1020C00007F00CFA04B080BDABAAAA3E80B586B07A
:1020D00005900491059890ED000A9FED301A30EEBE
:1020E000011A80EE010A8DED020A9DED020ADFED74
:1020F0002C0AB7EE001AFFF70FFB8DED020A002045
:102100000390FFE70398022845D8FFE7059842F2BD
:102110005C614058022817D3FFE70498039900EB4D
:10212000810090ED000A059800EB810141F28432B4
:10213000114491ED001A30EE410A90ED001A80EE44
:10214000010A8DED010A02E000200190FFE70598E9
:10215000039900EB810041F29031084490ED000AB0
:102160009DED021A9DED012A32EE402A21EE021A5F
:1021700030EE010A80ED000A0498039950F821001E
:10218000059A02EB810141F284328850FFE70398FF
:1021900001300390B6E706B080BD00BF17B75139D4
:1021A0000000000080B58EB005AA0D900C910C982F
:1021B00090ED000AD0ED010A90ED021A0392FFF7AC
:1021C00063FF039880ED060A0C9991ED000AD1EDAA
:1021D000010A91ED021AFFF7C7FE039880ED050A88
:1021E0000D9941F29032114491ED000AD1ED010AAE
:1021F00091ED021AFFF748FF039880ED040A0D994C
:1022000091ED000A9FED961A30EE011A80EE010A58
:1022100080ED030A90ED030ADFED920AB7EE001A93
:10222000FFF77AFA039880ED030A0D9901F5195129
:1022300091ED000A90ED031A90ED062A32EE402A45
:1022400021EE021A30EE010A81ED000A0D9942F2E8
:102250004462114491ED000A90ED031A90ED052AB5
:1022600032EE402A21EE021A30EE010A81ED000A18
:102270000D9942F24863194491ED000A90ED031A5A
:1022800090ED042A32EE402A21EE021A30EE010AC5
:1022900081ED000A00218DF813100D99114491ED84
:1022A000000AB1EE061AB4EE410AF1EE10FA11DDA1
:1022B000FFE70D9800F5195090ED000AB0EE0C1AEA
:1022C000B4EE410AF1EE10FA04DDFFE701208DF8CB
:1022D0001300FFE70D9842F24461084490ED000AB4
:1022E0009FED611AB4EE410AF1EE10FA12DDFFE73C
:1022F0000D9842F24861084490ED000A9FED5B1A88
:10230000B4EE410AF1EE10FA04DDFFE701208DF88A
:102310001300FFE700208DF812000D9842F244618F
:10232000084490ED000AB0EE0C1AB4EE410AF1EE4A
:1023300010FA1FDAFFE70D9800F5195090ED000A2A
:102340009FED4B1AB4EE410AF1EE10FA12DAFFE7F4
:102350000D9842F24861084490ED000A9FED451A3D
:10236000B4EE410AF1EE10FA04DAFFE701208DF82D
:102370001200FFE79DF81300002804D0FFE74FF09C
:102380007E5007900EE09DF81200002803D0FFE772
:102390000020079005E00D9842F2506140580790E8
:1023A000FFE7FFE7039890ED020A0D9942F25062B1
:1023B000114491ED001AB4EE410AF1EE10FA06DD77
:1023C000FFE74BF21770C3F65120069005E04CF67C
:1023D000CD40C3F6CC400690FFE70D9890ED000A83
:1023E000039890ED011A31EE001A80EE010A80ED9B
:1023F000000A90ED000A9FED1B1AB7EE002AF0EEDE
:10240000410A8DED021AB0EE421A8DED012AFFF756
:1024100083F9039880ED000A0D9942F2506211444D
:1024200091ED000A90ED001A90ED022A32EE402A5A
:1024300021EE021A30EE010A81ED000A0D991144D5
:1024400091ED000ADDED020A9DED011A0092FFF701
:1024500063F90D980099084480ED000A0EB080BD24
:102460006F12033B00000000CDCC8C40000096446E
:10247000CDCC0C400000164480B584B002A9039076
:1024800081ED000A03980028009101D1FFE732E0B6
:1024900000208DF80700039842F25C614058012843
:1024A00004D8FFE701208DF80700FFE7009890EDC2
:1024B000000A039942F25862114491ED001A30EE7D
:1024C000410AFEF787FB9FED0D1AB4EE410AF1EECB
:1024D00010FA04DDFFE701208DF80700FFE79DF803
:1024E0000700002807D0FFE70398009991ED000A44
:1024F000FFF772FDFFE704B080BD00BFBD370635B2
:1025000087B0069000200590FFE7059832287ED816
:10251000FFE70698059900EB8100D0F8D0090490F8
:102520000698059900EB8100D0F89C0A03909DED78
:10253000040A0698059900EB810000F6683191EDD8
:10254000001A20EE010A9DED031A00F6344090EDCA
:10255000002A21EE021A30EE410A8DED020A9DEDAD
:10256000030A0698059900EB810000F6683191EDA9
:10257000001A20EE010A9DED041A00F6344090ED99
:10258000002A21EE021A30EE010A8DED010A0698AA
:1025900042F25C61405C4006002825D1FFE79DEDDA
:1025A000020A20EE000A9DED011A21EE011A30EE1A
:1025B000010ABEEE001A20EE010AB7EE081A30EE4C
:1025C000010A8DED000A9DED000A9DED021A21EE33
:1025D000000A8DED020A9DED000A9DED011A21EE23
:1025E000000A8DED010AFFE702980699059A01EBB2
:1025F0008201C1F8D00901980699059A01EB820180
:10260000C1F89C0AFFE70598013005907DE707B007
:102610007047000081B000900098002801D1FFE7CA
:1026200085E0009890ED000AB5EE400AF1EE10FA50
:1026300007DCFFE700984BF21771C3F65101016008
:10264000FFE7009890ED010AB5EE400AF1EE10FAAE
:1026500004DAFFE7009800214160FFE7009890ED61
:10266000020AB5EE400AF1EE10FA06DCFFE7009828
:102670000021C4F2C8118160FFE7009890ED030AC1
:10268000B5EE400AF1EE10FA05DCFFE700984FF0D6
:102690007E51C160FFE7009890ED040AB5EE400A54
:1026A000F1EE10FA06DCFFE700980021C4F2A02149
:1026B0000161FFE7009890ED050AB5EE400AF1EEE2
:1026C00010FA04DAFFE7009800214161FFE7009863
:1026D00090ED060AB5EE400AF1EE10FA06DCFFE7CF
:1026E00000980021C4F2C8218161FFE7009890EDB5
:1026F000070AB5EE400AF1EE10FA07DCFFE7009892
:102700004CF67741C3F22B21C161FFE7009890EDB1
:10271000070A90ED081AB4EE401AF1EE10FA06DC42
:10272000FFE700980021C4F2FA310162FFE701B02F
:10273000704700007047000082B0009000980028A9
:1027400003D1FFE70020019005E0009842F26461A8
:1027500008440190FFE7019802B0704781B00090F3
:102760000098002801D1FFE737E000984BF217717D
:10277000C3F651010160009843F6BD21C3F647112D
:10278000416000980021C4F2C811816000984FF0A8
:102790007E51C16000980021C4F2A021016100981F
:1027A0004CF28F21C3F6F541416100980021C4F23B
:1027B000C821816100984CF67741C3F22B21C16199
:1027C00000980021C4F2FA3101620098012180F8DA
:1027D0002410009880F82510FFE701B07047000032
:1027E00010B594B0139012911398002801D1FFE70F
:1027F0002DE108A8FFF7B2FF129800281AD0FFE7D2
:102800001298016842688368D0F80CC0D0F810E0D4
:1028100044690D94CDF830E0CDF82CC00A930992AC
:1028200008918169C269036A406A119010930F92FE
:102830000E91FFE708A8FFF7EDFE139842F2B06192
:10284000FDF740FD13980899099A0A9BDDF82CC002
:10285000DDF830E00D9C4461C0F810E0C0F80CC019
:102860008360426001600E990F9A109BDDF844C0AE
:10287000C0F824C00362C26181611398D0ED000AE0
:1028800090ED010A01207E210190FEF7F5FE1399DB
:1028900042F21E6288521398D0ED000A90ED050AAC
:1028A0004EF660210198FEF7E7FE139942F220628E
:1028B0008852139842F21C6100224252139842F24D
:1028C00024614FF07F534350139842F228614CF635
:1028D000CD43C3F64C634350139842F22C6143F24C
:1028E000BD7CC3F2865C40F801C0139842F23061AF
:1028F0004350139842F250614250139842F254618F
:1029000042500792FFE70798022826D8FFE70020E9
:102910000690FFE7069866281AD8FFE713980799EC
:102920004FF4CE7201FB0200069900EB81000021FA
:10293000816213988169079B03FB0200069A00EBF2
:102940008200C0F8FC14FFE7069801300690E1E72A
:10295000FFE7079801300790D5E700200590FFE7D3
:10296000059832284CD8FFE713989DED050AB8EE7C
:10297000400A90ED021A90ED032A20EE020A31EE91
:10298000000A8DED040A9DED040A9FED321A20EE37
:10299000010A8DED030A9DED030A139890ED001ACC
:1029A00020EE010A8DED020A1398059900EB8100D3
:1029B0004FF07E51C0F8D0191398059900EB8100B3
:1029C0000021C0F89C1A9DED020A06F017FC13982E
:1029D000059900EB810000F6683080ED000A9DED5E
:1029E000020A06F0B3FC1398059900EB810000F68B
:1029F000344080ED000AFFE7059801300590AFE70D
:102A0000139842F258610022CBF68072425013981C
:102A100090ED010A42F22C61014491ED001A30EE72
:102A2000010AFFF7D9FA139842F21E61415A42F2A5
:102A300068628152139842F22061415A42F26A62FE
:102A40008152139842F2606101224254FFE714B0B0
:102A500010BD00BFDB0FC94080B59CB00DF1200C4C
:102A60001B908CED120ACCED110A8CED101A179107
:102A7000169215931B980028CDF814C007D0FFE7D5
:102A80001B9842F26061405C002819D1FFE717985B
:102A9000002804D0FFE71A9817990860FFE71698F6
:102AA000002804D0FFE7199816990860FFE71598E9
:102AB000002804D0FFE7189815990860FFE74FE158
:102AC0001B9842F25C614258013242501A981290AF
:102AD00019981390189814901B9812AA04911146F3
:102AE0000392FFF7F3FA1B980399FFF75BFB1B9820
:102AF0000399FEF739FE1B98694609AA0A600FA9D7
:102B00000CAB039A02911146029AFEF7B5FA1B9894
:102B10000399029AFEF778F81B980299FEF7DCF900
:102B20008DF81B001B980499425842F22063C05A4A
:102B3000824215D2FFE71B9842F25C61014491ED9D
:102B4000000AB8EE400A42F22061405A01EE100A33
:102B5000B8EE411A80EE010A059880ED000A03E004
:102B60004FF07E500890FFE700200790FFE707989E
:102B7000022812D8FFE7059890ED000A07990FAADE
:102B800002EB810191ED001A21EE000A81ED000AAD
:102B9000FFE7079801300790E9E700200790FFE77B
:102BA000079802282ED8FFE707980FA951F82010A0
:102BB0001B9A02EB402042F21C63D25A00EB8200C7
:102BC00041F29C32815007980CA951F820101B9AB1
:102BD00002EB4020D25A00EB820041F69C12815059
:102BE000079809A951F820101B9A02EB4020D25AED
:102BF00000EB820041F69C728150FFE7079801309C
:102C00000790CDE79DF81B001B9942F21C628B5A7E
:102C1000194442F29C53C8541B98815A0131815285
:102C20001B98805A802806D3FFE71B9842F21C614C
:102C300000224252FFE71B9842F25C61415842F287
:102C4000646281501B9842F21E61415A42F26862EE
:102C500081521B9842F22061415A42F26A628152CB
:102C60001B9842F22461415842F27C6281501B98C9
:102C700042F2286141584FF41A5281501B9842F297
:102C80002C61415842F2846281501B9842F23061BB
:102C9000415842F2886281501B9842F2506142587A
:102CA00042F28C63C2501B9842F25462825842F244
:102CB0009063C2501B984FF41952825842F29463A9
:102CC000C2501B9842F24462825842F29863C2504A
:102CD0001B9842F24862825842F29C63C2500F989D
:102CE0001B9A42F2A063D05010981B9A42F2A46340
:102CF000D05011981B9A42F2A863D0509DF81B0047
:102D00001B9A42F2AE63D0541B98014491ED000A25
:102D10009FED141A0021B4EE410AF1EE10FAC8BF7B
:102D2000012142F2AF6281541798002804D0FFE7D6
:102D30000F9817990860FFE71698002804D0FFE75E
:102D4000109816990860FFE71598002804D0FFE74F
:102D5000119815990860FFE71B98FFF7D1FBFFE773
:102D60001CB080BD9A99193E82B0019000910198E3
:102D7000002804D0FFE70098002801D1FFE719E000
:102D800000980068019908600098406801994860BF
:102D900000988068019988600098C0680199C860AF
:102DA000009800690199086101980021416101982A
:102DB0008161FFE702B0704780B584B00A46039096
:102DC0008DF80B100398002801D1FFE732E09DF841
:102DD0000B00002804D0FFE700208DF80B00FFE770
:102DE0009DF80B0049F21871C0F6000101EB0010CC
:102DF000019003980199C96800F01EF803985C30AF
:102E00000199C96800F018F80398B8300199C968A9
:102E100000F012F801980078039981F814010198E4
:102E200040680399C1F81801019880680399C1F8B6
:102E30001C01FFE704B080BD80B584B0039002910F
:102E40000398002804D0FFE70298002801D1FFE78B
:102E50001EE000200190FFE70198022812D8FFE74A
:102E600003980199C1EBC10200EB8200029A01EBC9
:102E7000810102EB8101FFF777FFFFE70198013045
:102E80000190E9E703980021416503988165FFE718
:102E900004B080BD81B0EFF3108072B60090FFE700
:102EA000FEE7000080B586B00490039100200190F9
:102EB000FFE7049890F85800012804D1FFE70220AA
:102EC0008DF817005CE00498012180F85810FFE7A6
:102ED000FFE70498FDF7C0FC8DF80B009DF80B0090
:102EE00000283CD1FFE70498C06D40F0020020F4B8
:102EF00088500499C86504980068039904F06CF838
:102F0000FFE70498006803F035FF00281ED0FFE7B4
:102F100001980130019001984DF60261C0F2040160
:102F2000884212D3FFE70498C06D40F0100020F0F3
:102F300002000499C865FFE70498002180F8581042
:102F4000FFE701208DF817001AE0DAE70498C06D5A
:102F500040F0010020F002000499C86505E00498E3
:102F6000C16D41F01001C165FFE7FFE70498002142
:102F700080F85810FFE79DF80B008DF81700FFE769
:102F80009DF8170006B080BD80B5CEB02E902D9173
:102F900000208DF8B30029902D98C0680021C4F25C
:102FA0007F01884201D0FFE700E0FFE7FFE72E98AE
:102FB00090F85800012805D1FFE702208DF8BF00E6
:102FC00000F096BC2E98012180F85810FFE7FFE72B
:102FD0002E98006803F0F6FE002840F07584FFE7A5
:102FE0002E9800682D990A68496803F0FFFE2E9814
:102FF000006803F0E7FE28902E98006803F0A4FE16
:1030000027902898002840F0D281FFE727980028D1
:1030100040F0CD81FFE72D988068B0F1004F0ED1D0
:10302000FFE72E9800682D990968002203F018FF29
:103030002E9800684FF0004103F0C0FF0FE02E987B
:1030400000682D990A68896826911146269A03F02E
:1030500007FF2E980068002103F0B0FFFFE72D98CE
:1030600040692E990968C96801F0180189088840EB
:103070002B902D980069042822D0FFE72E98006835
:103080002D990A6809692B9B03F03EFF2E98006872
:103090002D990A69896925911146259A03F066FFE1
:1030A0002E9800682D990A69097F0139B1FA81F1DA
:1030B0004909490624911146249A03F043FF75E11A
:1030C0002E980068002103F02FFE4003002809D14C
:1030D000FFE72E980068002103F026FEC0F384600D
:1030E000239019E02E980068002103F01DFE90FA4D
:1030F000A0F030903098002804D1FFE720208DF810
:10310000C70005E03098B0FA80F08DF8C700FFE7FF
:103110009DF8C7002390FFE723982D99096849037C
:103120000029229006D1FFE72D980068C0F3846043
:10313000219016E02D98006890FAA0F03290329815
:10314000002804D1FFE720208DF8CF0005E0329859
:10315000B0FA80F08DF8CF00FFE79DF8CF00219006
:10316000FFE721982299814208D1FFE72E98006855
:1031700000212091209A03F00DFFFFE72E980068B0
:10318000012103F0D1FD4003002809D1FFE72E986B
:103190000068012103F0C8FDC0F384601F9019E0AE
:1031A0002E980068012103F0BFFD90FAA0F0349042
:1031B0003498002804D1FFE720208DF8D70005E0DF
:1031C0003498B0FA80F08DF8D700FFE79DF8D7006B
:1031D0001F90FFE71F982D990968490300291E9049
:1031E00006D1FFE72D980068C0F384601D9016E0BB
:1031F0002D98006890FAA0F036903698002804D1F7
:10320000FFE720208DF8DF0005E03698B0FA80F067
:103210008DF8DF00FFE79DF8DF001D90FFE71D98A8
:103220001E99814207D1FFE72E98006801210022F4
:1032300003F0B0FEFFE72E980068022103F074FD52
:103240004003002809D1FFE72E980068022103F00F
:103250006BFDC0F384601C9019E02E980068022179
:1032600003F062FD90FAA0F038903898002804D15D
:10327000FFE720208DF8E70005E03898B0FA80F0ED
:103280008DF8E700FFE79DF8E7001C90FFE71C982A
:103290002D990968490300291B9006D1FFE72D9855
:1032A0000068C0F384601A9016E02D98006890FAC8
:1032B000A0F03A903A98002804D1FFE720208DF83A
:1032C000EF0005E03A98B0FA80F08DF8EF00FFE7E4
:1032D0009DF8EF001A90FFE71A981B99814207D1D9
:1032E000FFE72E9800680221002203F053FEFFE75B
:1032F0002E980068032103F017FD4003002809D130
:10330000FFE72E980068032103F00EFDC0F38460F0
:10331000199019E02E980068032103F005FD90FA3A
:10332000A0F04A904A98002804D1FFE720208DF8A9
:103330002F0105E04A98B0FA80F08DF82F01FFE7E1
:103340009DF82F011990FFE719982D9909684903F5
:103350000029189006D1FFE72D980068C0F384601B
:10336000179016E02D98006890FAA0F04C904C98B9
:10337000002804D1FFE720208DF8370105E04C98A4
:10338000B0FA80F08DF83701FFE79DF8370117900C
:10339000FFE717981899814207D1FFE72E98006838
:1033A0000321002203F0F6FDFFE7FFE7FFE72E9879
:1033B000006803F0F7FC002840F05B81FFE72E98DF
:1033C00000682D990A68C96816911146169A03F08B
:1033D00063FD2D98C0680021C4F27F01884240F04F
:1033E0004781FFE72E9800682D9909684903002955
:1033F000159006D1FFE72D980068C0F38460149003
:1034000016E02D98006890FAA0F04890489800289F
:1034100004D1FFE720208DF8270105E04898B0FA95
:1034200080F08DF82701FFE79DF827011490FFE752
:103430001498013000F01F00092800F28580FFE792
:103440002D9800684003002806D1FFE72D980068FA
:10345000C0F38460139016E02D98006890FAA0F0F5
:1034600046904698002804D1FFE720208DF81F01E0
:1034700005E04698B0FA80F08DF81F01FFE79DF84F
:103480001F011390FFE71398013000F01F00800622
:103490002D99096849030029129006D1FFE72D985C
:1034A0000068C0F38460119016E02D98006890FACF
:1034B000A0F044904498002804D1FFE720208DF824
:1034C000170105E04498B0FA80F08DF81701FFE786
:1034D0009DF817011190FFE71198013000F01F00CF
:1034E000012101FA00F0129908432D9A1268520343
:1034F000002A109006D1FFE72D980068C0F3846081
:103500000F9016E02D98006890FAA0F04290429833
:10351000002804D1FFE720208DF80F0105E0429834
:10352000B0FA80F08DF80F01FFE79DF80F010F90C2
:10353000FFE70F98013000F01F0000EB40001099EA
:1035400041EA00500E9089E02D9800684003002861
:1035500006D1FFE72D980068C0F384600D9016E057
:103560002D98006890FAA0F040904098002804D16F
:10357000FFE720208DF8070105E04098B0FA80F0C1
:103580008DF80701FFE79DF807010D90FFE70D9803
:10359000013000F01F0080062D99096849030029B9
:1035A0000C9006D1FFE72D980068C0F384600B9063
:1035B00016E02D98006890FAA0F03E903E98002802
:1035C00004D1FFE720208DF8FF0005E03E98B0FA17
:1035D00080F08DF8FF00FFE79DF8FF000B90FFE7FC
:1035E0000B98013000F01F00012101FA00F00C9946
:1035F00008432D9A12685203002A0A9006D1FFE769
:103600002D980068C0F38460099016E02D9800683A
:1036100090FAA0F03C903C98002804D1FFE72020CD
:103620008DF8F70005E03C98B0FA80F08DF8F700CF
:10363000FFE79DF8F7000990FFE70998013000F0D7
:103640001F0000EB40000021CFF6206101EB00508D
:103650000A99084340F000700E90FFE70E982D99EC
:103660008A68159908900846089903F0F9FBFFE766
:10367000FFE72D98408848F20801084200F02381B6
:10368000FFE72E9800680121B0F1A04F07910CD000
:10369000FFE72E9800684FF60071CAF6FF710844E4
:1036A000B0FA80F040090790FFE70798C00740F2A2
:1036B0000071C5F2000100281CBF40F20031C5F2C4
:1036C0000001084603F020FB2A902D98006840F284
:1036D0000001CCF22131884208D0FFE72D98006824
:1036E0001021C9F2C00188425ED1FFE79DF8AA000F
:1036F0000006002858D4FFE72E980068B0F1A04FCC
:1037000009D0FFE72E98006840F20061C5F2000181
:10371000884248D1FFE72E9800680121B0F1A04F00
:1037200006910CD0FFE72E9800684FF60071CAF69C
:10373000FF710844B0FA80F040090690FFE7069850
:10374000C00740F20071C5F2000100281CBF40F222
:103750000031C5F200012A9840F4000005900846A7
:10376000059903F0C3FB40F20000C2F200000068BC
:103770004FEA901042F66351C0F23E51A0FB0101A6
:103780004FEA911101EB41014FF00C0202EB810174
:103790002991FFE72998002804D0FFE729980138EC
:1037A0002990F7E7FFE78DE02D9800680021CCF223
:1037B0005271884242D1FFE79DF8AB00C007002854
:1037C0003CD1FFE72E98006840F20011C5F20001DD
:1037D000884232D0FFE72E98006840F20051C5F2CF
:1037E0000001884229D0FFE72E9800680121B0F13E
:1037F000A04F04910CD0FFE72E9800684FF600719F
:10380000CAF6FF710844B0FA80F040090490FFE75F
:103810000498C00740F20071C5F2000100281CBFE7
:1038200040F20031C5F200012A9840F08070039008
:103830000846039903F05AFBFFE742E02D98006821
:103840000021CCF68431884239D1FFE79DF8AA00E7
:103850004006002833D4FFE72E98006840F200119C
:10386000C5F20001884229D0FFE72E9800680121A7
:10387000B0F1A04F02910CD0FFE72E9800684FF6F0
:103880000071CAF6FF710844B0FA80F04009029056
:10389000FFE70298C00740F20071C5F2000100285E
:1038A0001CBF40F20031C5F200012A9840F48000AC
:1038B00001900846019903F019FBFFE700E0FFE7DC
:1038C000FFE7FFE7FFE708E02E98C16D41F0200118
:1038D000C16501208DF8B300FFE7FFE72E980021B6
:1038E00080F85810FFE79DF8B3008DF8BF00FFE7A0
:1038F0009DF8BF004EB080BD80B582B001900198A8
:10390000006840F20051C5F20001884203D1FFE790
:1039100005F05EF8FFE702B080BD000081B00090C6
:1039200001B0704781B0009001B0704780B58EB093
:103930000C9000208DF82F0007900C98002804D1DF
:10394000FFE701208DF83700E8E10C984069002876
:1039500008D0FFE70C9890F82400012801D1FFE778
:10396000FFE7FFE70C98C06D00280AD1FFE70C982D
:1039700000F0D8F90C98002101660C9880F85810D6
:10398000FFE70C98006803F0FDF9002805D0FFE779
:103990000C98006803F08EF9FFE70C98006803F0BC
:1039A00009FA00281FD1FFE70C98006803F09CF982
:1039B00040F20000C2F200000068800942F6635144
:1039C000C0F23E51A0FB01018909022202EB410134
:1039D0000791FFE70798002804D0FFE70798013810
:1039E0000790F7E7FFE70C98006803F0E3F9002879
:1039F0000ED1FFE70C98C16D41F01001C1650C9824
:103A0000016E41F00101016601208DF82F00FFE7F2
:103A10000C98006803F0D6F909900C98C06DC006A8
:103A2000002800F16D81FFE70998002840F06881C7
:103A3000FFE70C98C06D40F0020020F480700C99F4
:103A4000C8650C98006803F0ADF9002840F081804B
:103A5000FFE70C9800680121B0F1A04F06910CD04F
:103A6000FFE70C9800684FF60071CAF6FF71084432
:103A7000B0FA80F040090690FFE70698C00740F2D0
:103A80000071C5F2000100281CBF40F20031C5F2F0
:103A9000000140F20030C5F20000814210D1FFE782
:103AA0004FF0A04003F07EF940F20011C5F2000192
:103AB0000590084603F076F90599084304901BE049
:103AC00040F20040C5F2000003F06CF940F20051F2
:103AD000C5F200010390084603F064F90399084316
:103AE00040F20062C5F200020290104603F05AF95B
:103AF000029908430490FFE70498002828D1FFE7C3
:103B00000C9800680121B0F1A04F01910CD0FFE7A3
:103B10000C9800684FF60071CAF6FF710844B0FABD
:103B200080F040090190FFE70198C00740F2007162
:103B3000C5F2000100281CBF40F20031C5F20001AF
:103B40000C98406800900846009903F0C1F9FFE71F
:103B5000FFE70C98417FC26B42EA41318268C3683B
:103B60001943114390F8240041EA00400A900C9850
:103B700090F8240001280BD1FFE70C98806A0021FF
:103B8000CFF6FE7101EB40400A9908430A90FFE727
:103B90000C98C06A00280AD0FFE70C98C16A006B35
:103BA00001F4787108430A9908430A90FFE70C98DA
:103BB0000068C06844F20701CFF6F07108400A9926
:103BC00008430C990968C8600C980068006920F0E7
:103BD00040600C990A68496B084310610C980068B2
:103BE00003F0B2F808900998002868D1FFE7089818
:103BF000002864D1FFE70C98017F90F83800890312
:103C000041EA40000A900C980068C06844F2020142
:103C100088430A9908430C990968C8600C980069A0
:103C2000002814D0FFE70C980068016941F4803146
:103C300001610C980068D0F8C00043F6FF7188431A
:103C40000C990A6809690843C2F8C00011E00C9891
:103C50000068016921F4803101610C980068D0F896
:103C6000C00043F6FF7188430C990968C1F8C00091
:103C7000FFE70C9890F84000012818D1FFE70C9856
:103C80000068006940F2FD7188430C990A684B6C2A
:103C9000D1F848C0D1F84CE043EA0C0343EA0E03E4
:103CA000096D1943084340F00100106106E00C98CB
:103CB0000068016921F001010161FFE7FFE70C984D
:103CC000406901280CD1FFE70C980068006B20F0D8
:103CD0000F000C990A68096A01390843106306E06D
:103CE0000C980068016B21F00F010163FFE70C984D
:103CF000C06D40F0010020F002000C99C86508E09A
:103D00000C98C16D41F01001C16501208DF82F00A4
:103D1000FFE79DF82F008DF83700FFE79DF837008B
:103D20000EB080BD80B5A2B02190002020901F90E1
:103D30001E901D901C9007A85421FCF7C3FA2198EF
:103D4000006840F20051C5F20001884240F08980CD
:103D5000FFE74FF4803007904FF00040199007A81C
:103D600000F03EFF002803D0FFE7FFF793F8FFE7DE
:103D7000FFE741F24C00C4F20200016841F48041C7
:103D80000160006800F4804006900698FFE7FFE7B6
:103D900041F24C00C4F20200016841F010010160E0
:103DA000006800F0100005900598FFE7FFE741F27A
:103DB0004C00C4F20200016841F002010160006899
:103DC00000F0020004900498FFE74FF441401C907B
:103DD00003201D9000211E9141F20002C4F6000252
:103DE0001CAB0390104602911946019300F068FB4A
:103DF0004FF450401C9003981D9002991E9140F280
:103E00000040C4F60000019900F05AFB42F6F010A1
:103E1000C2F200000821C4F20201016026214160C3
:103E200002998160C160802202614FF48072426118
:103E30004FF4806282612022C261016200F010FAB8
:103E4000002803D0FFE7FFF725F8FFE7FFE72198F9
:103E500042F6F011C2F20001416521988862FFE745
:103E6000FFE722B080BD000080B58AB008900791BE
:103E70000692089800680121B0F1A04F03910CD080
:103E8000FFE7089800684FF60071CAF6FF71084412
:103E9000B0FA80F040090390FFE70398C00740F2B2
:103EA0000071C5F2000100281CBF40F20031C5F2CC
:103EB0000001084602F030FF04900898006802F004
:103EC00081FF002840F0CC80FFE7FFE7089890F8DA
:103ED0005800012804D1FFE702208DF82700C8E030
:103EE0000898012180F85810FFE7FFE7089800685C
:103EF00040F20061C5F2000188420DD0FFE704984E
:103F0000002809D0FFE70498052805D0FFE70498AA
:103F1000092840F09A80FFE70898FCF701FD8DF82A
:103F200017009DF81700002840F08780FFE70898E9
:103F3000C06D40F4807040F6016188430899C865FF
:103F40000898006840F20011C5F20001884204D1CF
:103F5000FFE74FF0A040029015E00898006840F29B
:103F60000051C5F20001884206D1FFE740F200404F
:103F7000C5F20000019003E0089800680190FFE797
:103F800001980290FFE7029808990968884204D0D6
:103F9000FFE70498002806D1FFE70898C16D21F4D7
:103FA0008011C165FFE70898C06DC004002806D5E0
:103FB000FFE70898016E21F00601016603E008980A
:103FC00000210166FFE70898406D40F23971C0F6A4
:103FD0000001C1620898406D40F64101C0F6000141
:103FE00001630898406D40F61501C0F60001416379
:103FF000089800681C210160FFE70898002180F8FC
:104000005810FFE708980068416841F010014160CE
:1040100008980068C16841F00101C1600898016812
:10402000406D4031079A069B00F0CAF98DF81700E1
:104030000898006802F0F8FE06E0FFE70898002103
:1040400080F85810FFE7FFE709E001208DF817001E
:10405000FFE70898002180F85810FFE7FFE703E02A
:1040600002208DF81700FFE79DF817008DF8270054
:10407000FFE79DF827000AB080BD000080B584B03E
:104080000290FFE7029890F85800012804D1FFE75A
:1040900002208DF80F002FE00298012180F85810BF
:1040A000FFE7FFE702980321FCF778FA8DF8070095
:1040B0009DF80700002814D1FFE70298FCF7CCFB1D
:1040C0008DF807009DF80700002809D1FFE7029846
:1040D000C06D40F0010020F488500299C865FFE7E8
:1040E000FFE7FFE70298002180F85810FFE79DF8EE
:1040F00007008DF80F00FFE79DF80F0004B080BDAA
:1041000080B584B003900398006C00680290039817
:1041100000680068019002980399496C01F01F0142
:10412000C8404007002827D5FFE79DF80400400756
:10413000002821D5FFE70398006800688006002862
:1041400007D4FFE703980068016821F004010160CB
:10415000FFE70398016C406C00F01F00042202FA94
:1041600000F048600398006B002804D0FFE7039834
:10417000016B8847FFE771E002980399496C01F0F1
:104180001F01C8408007002831D5FFE79DF80400D3
:10419000800700282BD5FFE7039800680068800699
:1041A00000280BD4FFE703980068016821F00A019A
:1041B00001600398012180F82510FFE70398016C46
:1041C000406C00F01F00022202FA00F04860FFE796
:1041D0000398002180F82410FFE70398C06A0028A4
:1041E00004D0FFE70398C16A8847FFE735E00298EB
:1041F0000399496C01F01F01C840000700282AD527
:10420000FFE79DF804000007002824D5FFE7039886
:104210000068016821F00E0101600398016C406C98
:1042200000F01F00012202FA00F048600398C26308
:10423000039880F82520FFE70398002180F82410D8
:10424000FFE70398406B002804D0FFE70398416B19
:104250008847FFE700E0FFE7FFE7FFE704B080BD26
:1042600080B584B002900298002804D1FFE70120B5
:104270008DF80F009FE00298006840F20741C4F2F9
:104280000201884218D8FFE7029801684FF6F872D9
:10429000CBF6FD7211444CF6CD42CCF6CC42A1FBDC
:1042A00002126FF0030303EA9202426402980022B2
:1042B000C4F20202026418E0029801684FF6F83274
:1042C000CBF6FD7211444CF6CD42CCF6CC42A1FBAC
:1042D00002126FF0030303EA92024264029840F272
:1042E0000042C4F202020264FFE70298022180F851
:1042F00025100298006800680190019847F6F07157
:104300008843019002988168C2680369D0F814C09C
:104310001143194341EA0C0182691143C2691143F7
:10432000006A0843019908430190019802990968BD
:1043300008600298FCF7AAFB02988068B0F5804FED
:1043400004D1FFE7029800214160FFE7029841682D
:10435000806C01F07F0101600298C16C006D4860C3
:1043600002984068002811D0FFE7029840680428AE
:104370000CD8FFE70298FCF7D1FB0298406D0021B2
:1043800001600298816DC06D486007E002980021CD
:104390004165029881650298C165FFE70298002196
:1043A000C1630298012280F82520029880F8241029
:1043B0008DF80F10FFE79DF80F0004B080BD0000DE
:1043C00080B586B0049003910292019300208DF88D
:1043D0000300FFE7049890F82400012804D1FFE7C8
:1043E00002208DF8170067E00498012180F824105E
:1043F000FFE7FFE7049890F8250001284DD1FFE77B
:104400000498022180F8251004980021C1630498C3
:104410000068016821F00101016004980399029A83
:10442000019BFCF79DFB0498006B002807D0FFE779
:1044300004980068016841F00E0101600CE00498E6
:104440000068016821F004010160049800680168B7
:1044500041F00A010160FFE70498806C0068C00326
:10446000002807D5FFE70498806C016841F480714B
:104470000160FFE70498406D002807D0FFE704982B
:10448000406D016841F480710160FFE704980068A5
:10449000016841F00101016009E0FFE70498002193
:1044A00080F82410FFE702208DF80300FFE79DF855
:1044B00003008DF81700FFE79DF8170006B080BDD8
:1044C0008BB00A90099100200890FFE709980068D6
:1044D0000899C840002800F0B781FFE709980068F4
:1044E0000899012202FA01F1084007900798002874
:1044F00000F0A681FFE70998406800F0030001285A
:1045000007D0FFE70998406800F0030002282FD188
:10451000FFE70A988068069008984000032101FA96
:1045200000F0069921EA000006900998C0680899F1
:104530004900884006990843069006980A998860C1
:104540000A98406806900898012101FA00F006993F
:1045500021EA0000069009984068C0F3001008990D
:10456000884006990843069006980A994860FFE734
:104570000998406800F0030003280CD1FFE7099870
:10458000406800F0030003281DD1FFE70998806808
:10459000012818D0FFE70A98C068069008984000E4
:1045A000032101FA00F0069921EA0000069009981B
:1045B0008068089949008840069908430690069843
:1045C0000A99C860FFE70998406800F003000228D4
:1045D00026D1FFE70A9808996FF0030202EA510119
:1045E0000844006A0690089800F0070080000F2138
:1045F00001FA00F0069921EA000006900998006986
:10460000089901F00701890088400699084306903F
:1046100006980A99089B02EA530211440862FFE7D0
:104620000A980068069008984000032101FA00F0FB
:10463000069921EA000006900998406800F00300FE
:1046400008994900884006990843069006980A99F7
:104650000860099880798007002800F0F080FFE763
:10466000FFE741F26000C4F20200016841F001017D
:104670000160006800F0010005900598FFE70898C8
:1046800020F003000821C4F2010140580690089868
:1046900000F0030080000F2101FA00F0069921EAE2
:1046A000000006900A98B0F1904F03D1FFE7002078
:1046B000049042E00A9840F20041C4F600018842AA
:1046C00003D1FFE70120039034E00A9840F600018F
:1046D000C4F60001884203D1FFE70220029026E0E1
:1046E0000A9840F60041C4F60001884203D1FFE772
:1046F0000320019018E00A9841F20001C4F600017D
:10470000884203D1FFE7042000900AE00A9841F2B2
:104710000041C4F600010622884208BF052200922B
:10472000FFE700980190FFE701980290FFE70298E9
:104730000390FFE703980490FFE70498089901F0BD
:104740000301890088400699084306900698089955
:1047500021F003010822C4F20102885040F208400F
:10476000C4F20100006806900798069921EA00004B
:10477000069009988079C006002805D5FFE70798BC
:10478000069908430690FFE7069840F20841C4F2F4
:104790000101086040F20C40C4F20100006806907C
:1047A0000798069921EA000006900998807980060A
:1047B000002805D5FFE70798069908430690FFE70C
:1047C000069840F20C41C4F20101086040F2044036
:1047D000C4F20100006806900798069921EA0000DB
:1047E0000690099880798007002805D5FFE707988B
:1047F000069908430690FFE7069840F20441C4F288
:104800000101086040F20040C4F201000068069017
:104810000798069921EA0000069009988079C00758
:10482000002805D0FFE70798069908430690FFE7A0
:10483000069840F20041C4F201010860FFE7FFE77B
:1048400008980130089041E60BB0704782B01346DB
:104850008C460190ADF802108DF801209DF8010002
:10486000002805D0FFE7BDF802000199886104E047
:10487000BDF8020001998862FFE702B070470000AE
:1048800042F61040C2F200000068704740F2240077
:10489000C2F20000006842F61041C2F200010A684C
:1048A000104408607047000080B582B000208DF889
:1048B0000700032000F0A6F80F2000F00FF80028F2
:1048C00004D0FFE701208DF8070002E000F04CF86B
:1048D000FFE79DF8070002B080BD000080B582B000
:1048E000019000208DF8030040F22400C2F2000085
:1048F0000068002830D0FFE740F20000C2F200005C
:10490000006840F22401C2F2000109684FF47A7293
:10491000B2FBF1F1B0FBF1F001F0EEF9002816D195
:10492000FFE701980F280DD8FFE701994FF0FF30FE
:10493000002200F049F8019840F22801C2F200017B
:10494000086003E001208DF80300FFE703E0012089
:104950008DF80300FFE703E001208DF80300FFE777
:104960009DF8030002B080BD80B582B0FFE741F240
:104970006000C4F20200016841F0010101600068BA
:1049800000F0010001900198FFE7FFE741F25800B5
:10499000C4F20200016841F080510160006800F03B
:1049A000805000900098FFE700F010F902B080BD41
:1049B00080B582B001468DF807009DF9070000918F
:1049C00003F0F0FD02B080BD80B588B003468DF8DD
:1049D0001F0006910592039303F0FEFD04909DF9DC
:1049E0001F000499069A059B0290084611461A4634
:1049F00002F054FD029901900846019903F0F4FD7C
:104A000008B080BD80B582B00190019803F00EFE21
:104A100002B080BD85B00390039800285FD1FFE706
:104A200047F20000C4F20000006800F4C060B0F576
:104A3000806F4AD1FFE747F28000C4F200000168AE
:104A400021F48071016047F20000C4F200000168A7
:104A5000012262F34A21016040F20000C2F200002C
:104A60000068322148434DF68361C4F21B31A0FB3C
:104A7000010102EB91410291FFE747F21400C4F2F9
:104A800000000068002140050028019106D5FFE7DD
:104A90000298002818BF01200190FFE70198C00785
:104AA000002804D0FFE7029801380290E5E747F2BA
:104AB0001400C4F2000000684005002804D5FFE798
:104AC00003208DF813007DE008E047F28000C4F277
:104AD0000000016821F480710160FFE76EE0039837
:104AE000B0F5007F5FD1FFE747F20000C4F200009D
:104AF000006800F4C060B0F5806F4AD1FFE747F26C
:104B00008000C4F20000016841F48071016047F246
:104B10000000C4F200000168012262F34A21016032
:104B200040F20000C2F200000068322148434DF616
:104B30008361C4F21B31A0FB010102EB91410291A0
:104B4000FFE747F21400C4F20000006800214005AE
:104B50000028009106D5FFE70298002818BF012021
:104B60000090FFE70098C007002804D0FFE70298F4
:104B700001380290E5E747F21400C4F20000006833
:104B80004005002804D5FFE703208DF8130019E045
:104B900008E047F28000C4F20000016841F480712F
:104BA0000160FFE709E047F20000C4F2000001687D
:104BB000022262F34A210160FFE7FFE700208DF83F
:104BC0001300FFE79DF8130005B0704747F2080097
:104BD000C4F20000016841F48041016070470000A8
:104BE00080B586B0059000208DF80B008DF80A0086
:104BF000059880780007002840F1B880FFE7002082
:104C00008DF8090041F25800C4F202000068C000AB
:104C1000002813D4FFE7FFE741F25800C4F2020076
:104C2000016841F080510160006800F080500190FF
:104C30000198FFE701208DF80900FFE747F2000027
:104C4000C4F20000016841F480710160FFF718FEB2
:104C50000390FFE747F20000C4F200000068C005BF
:104C600000280CD4FFE7FFF70BFE0399401A032836
:104C700004D3FFE703208DF80B0000E0EAE79DF87E
:104C80000B0000285ED1FFE741F29000C4F2020061
:104C9000006800F4407004900498002819D0FFE7E1
:104CA00004980599096D884213D0FFE741F29000FE
:104CB000C4F20200016821F440710491016841F4DA
:104CC00080310160016821F4803101600499016044
:104CD000FFE79DF81000C00700281CD0FFE7FFF792
:104CE000CFFD0390FFE741F29000C4F2020000689C
:104CF000800700280ED4FFE7FFF7C2FD0399401A92
:104D000041F28931884204D3FFE703208DF80B007C
:104D100000E0E8E7FFE79DF80B0000280CD1FFE773
:104D200041F29000C4F20200016821F44071059A3A
:104D3000126D1143016004E09DF80B008DF80A002C
:104D4000FFE704E09DF80B008DF80A00FFE79DF8EF
:104D50000900012809D1FFE741F25800C4F202001E
:104D6000016821F080510160FFE7FFE705980078B6
:104D7000C00700280CD0FFE741F28800C4F202000F
:104D8000016821F00301059A526811430160FFE7B1
:104D900005980078800700280CD5FFE741F28800CD
:104DA000C4F20200016821F00C01059A92681143D7
:104DB0000160FFE705980078400700280CD5FFE761
:104DC00041F28800C4F20200016821F03001059A26
:104DD000D26811430160FFE70598007800070028BA
:104DE0000CD5FFE741F28800C4F20200016821F00F
:104DF000C001059A126911430160FFE70598007828
:104E0000C00600280CD5FFE741F28800C4F202007A
:104E1000016821F44071059A526911430160FFE76E
:104E200005980078800600280CD5FFE741F288003D
:104E3000C4F20200016821F44061059A92691143AD
:104E40000160FFE705980078400600280CD5FFE7D1
:104E500041F28800C4F20200016821F44051059A31
:104E6000D26911430160FFE7059800780006002829
:104E70000CD5FFE741F28800C4F20200016821F47A
:104E80004041059A126A11430160FFE70598407896
:104E9000C00700280CD0FFE741F28800C4F20200EE
:104EA000016821F44031059A526A11430160FFE71D
:104EB00005988078800700280CD5FFE741F29C0018
:104EC000C4F20200016821F00301059A926A1143BD
:104ED0000160FFE705984078800700280CD5FFE7C0
:104EE00041F28800C4F20200016821F44021059AD1
:104EF000D26A11430160FFE7059840784007002817
:104F00001BD5FFE741F28800C4F20200016821F4DA
:104F10004011059A126B114301600598006BB0F5C2
:104F2000801F09D1FFE741F20C00C4F202000168C2
:104F300041F480110160FFE7FFE705984078000722
:104F400000281BD5FFE741F28800C4F20200016887
:104F500021F44001059A526B114301600598406BA2
:104F6000B0F5800F09D1FFE741F20C00C4F2020056
:104F7000016841F480110160FFE7FFE70598407880
:104F8000C00600281BD5FFE741F28800C4F20200EA
:104F9000016821F04071059A926B114301600598F8
:104FA000806BB0F1807F09D1FFE741F20C00C4F2C1
:104FB0000200016841F480110160FFE7FFE70598F6
:104FC0004078800600281BD5FFE741F28800C4F234
:104FD0000200016821F04061059AD26B1143016023
:104FE0000598C06BB0F1006F09D1FFE741F20C00EA
:104FF000C4F20200016841F480110160FFE7FFE79D
:1050000005984078400600281BD5FFE741F288004C
:10501000C4F20200016821F04061059A126C11434C
:1050200001600598006CB0F1006F09D1FFE741F213
:105030000C00C4F20200016841F480110160FFE736
:10504000FFE705984078000600281BD5FFE741F2EE
:105050008800C4F20200016821F04051059A526CA8
:10506000114301600598406CB0F1805F09D1FFE702
:1050700041F20C00C4F20200016841F48031016089
:10508000FFE7FFE705988078C00700281BD0FFE7FF
:1050900041F28800C4F20200016821F04041059A03
:1050A000926C114301600598806CB0F1804F09D17A
:1050B000FFE741F20C00C4F20200016841F48031C4
:1050C0000160FFE7FFE705988078400700281BD5BF
:1050D000FFE741F29C00C4F20200016821F4401194
:1050E000059AD26C114301600598C06CB0F5001FA1
:1050F00009D1FFE741F20C00C4F20200016841F45B
:1051000080110160FFE7FFE79DF80A0006B080BD4F
:1051100080B586B004900391002000900498002888
:1051200004D1FFE701208DF8170082E1039842F2D5
:105130000001C4F20201096801F00F01884216D98A
:10514000FFE742F20000C4F20200016821F00F0103
:10515000039A11430160006800F00F000399884230
:1051600004D0FFE701208DF8170062E1FFE7049803
:105170000078C007002800F0A480FFE7049840688A
:1051800003283AD1FFE741F20000C4F202000068B0
:105190008001002804D4FFE701208DF8170048E1C2
:1051A00002F002FA019001984BF20141C0F2C441B1
:1051B000884221D3FFE741F20800C4F202000068F0
:1051C00010F0F00F0BD0FFE704980078800700285C
:1051D00011D5FFE70498806800280CD1FFE741F261
:1051E0000800C4F202000168082262F3071101609E
:1051F00080200090FFE7FFE738E00498406802282D
:105200000ED1FFE741F20000C4F202000068800303
:10521000002804D4FFE701208DF8170009E10DE014
:1052200041F20000C4F2020000684005002804D4E6
:10523000FFE701208DF81700FBE0FFE700F0FEF824
:10524000019001984BF20141C0F2C44188420CD355
:10525000FFE741F20800C4F202000168082262F38D
:105260000711016080200090FFE7FFE741F208008E
:10527000C4F20200016821F00301049A526811434C
:105280000160FFF7FDFA0290FFE741F20800C4F267
:105290000200006800F00C0004994968B0EB810F2F
:1052A0000ED0FFE7FFF7ECFA0299401A41F289317C
:1052B000884204D3FFE703208DF81700B9E0E4E744
:1052C000FFE704980078800700282CD5FFE70498B2
:1052D00000784007002809D5FFE741F20800C4F232
:1052E0000200016841F4E0610160FFE70498007882
:1052F000000700280BD5FFE741F20800C4F20200C6
:10530000016841F4E06121F460510160FFE741F27E
:105310000800C4F20200016821F0F001049A9268CA
:10532000114301600DE00098802809D1FFE741F2A8
:105330000800C4F20200016821F0F0010160FFE7FB
:10534000FFE7039842F20001C4F20201096801F08C
:105350000F01884228D2FFE742F20000C4F20200A7
:10536000016821F00F01039A11430160FFF788FAE9
:105370000290FFE742F20000C4F20200006800F071
:105380000F00039988420ED0FFE7FFF779FA0299E0
:10539000401A41F28931884204D3FFE703208DF897
:1053A000170046E0E6E7FFE704980078400700288A
:1053B0000CD5FFE741F20800C4F20200016821F4B5
:1053C000E061049AD26811430160FFE70498007815
:1053D000000700280DD5FFE741F20800C4F20200E3
:1053E000016821F46051049A126941EAC201016026
:1053F000FFE700F023F841F20801C4F20201096856
:10540000C9B2090949F2CC62C0F60002515C01F050
:105410001F01C84040F20001C2F20001086040F2E2
:105420002800C2F200000068FFF758FA8DF8170054
:10543000FFE79DF8170006B080BD000086B041F27E
:105440000800C4F20200006800F00C00042806D135
:10545000FFE742F20040C0F2F400019069E041F23F
:105460000800C4F20200006800F00C00082806D111
:10547000FFE742F20040C0F2F400019058E041F230
:105480000800C4F20200006800F00C000C284BD1A8
:10549000FFE741F20C00C4F20200016801F00301D1
:1054A00004910068C0B2012101EB10100290049831
:1054B0000228009015D0FFE70098032812D1FFE7DB
:1054C000029842F20041C0F2F401B1FBF0F041F267
:1054D0000C01C4F202010968C1F30621484305909A
:1054E00011E0FFE7029842F20041C0F2F401B1FB83
:1054F000F0F041F20C01C4F202010968C1F3062187
:1055000048430590FFE741F20C00C4F20200006836
:1055100000F0C060022101EB106003900598039930
:10552000B0FBF1F0019002E000200190FFE7FFE7FF
:10553000FFE7019806B07047B0B588B006900698AE
:10554000002804D1FFE701208DF81F00D0E3069862
:105550000078C007002800F09D80FFE741F20800B6
:10556000C4F20200006800F00C00049041F20C004C
:10557000C4F20200006800F00300039004980C28B5
:1055800004D1FFE70398032804D0FFE70498082814
:1055900013D1FFE741F20000C4F20200006880036B
:1055A000002809D5FFE706984068002804D1FFE7E6
:1055B00001208DF81F009BE36BE0FFE70698406831
:1055C000B0F5803F09D1FFE741F20000C4F20200CC
:1055D000016841F48031016020E006984068B0F530
:1055E000A02F0DD1FFE741F20000C4F202000168D4
:1055F00041F480210160016841F4803101600CE0D8
:1056000041F20000C4F20200016821F4803101601F
:10561000016821F480210160FFE7FFE7FFE70698BA
:10562000406800281AD0FFE7FFF72AF90590FFE746
:1056300041F20000C4F202000068800300280CD48C
:10564000FFE7FFF71DF90599401A652804D3FFE726
:1056500003208DF81F004BE3EAE719E0FFF710F98C
:105660000590FFE741F20000C4F2020000688003E9
:1056700000280CD5FFE7FFF703F90599401A6528C4
:1056800004D3FFE703208DF81F0031E3EAE7FFE7CB
:10569000FFE7FFE7069800788007002840F1A28026
:1056A000FFE741F20800C4F20200006800F00C00BD
:1056B000049041F20C00C4F20200006800F0030004
:1056C000039004980C2804D1FFE70398022804D023
:1056D000FFE7049804282ED1FFE741F20000C4F24E
:1056E000020000684005002809D5FFE70698C06859
:1056F000002804D1FFE701208DF81F00F8E241F2F5
:105700000400C4F20200016821F0FE41069A126909
:1057100041EA0261016040F22800C2F20000006824
:10572000FFF7DCF8002804D0FFE701208DF81F0008
:10573000DEE2FFE755E00698C06800282ED0FFE7BC
:1057400041F20000C4F20200016841F4807101607E
:10575000FFF796F80590FFE741F20000C4F202005F
:105760000068400500280CD4FFE7FFF789F8059989
:10577000401A032804D3FFE703208DF81F00B7E287
:10578000EAE741F20400C4F20200016821F0FE41A0
:10579000069A126941EA0261016021E041F20000CB
:1057A000C4F20200016821F480710160FFF768F81B
:1057B0000590FFE741F20000C4F2020000684005D6
:1057C00000280CD5FFE7FFF75BF80599401A03287E
:1057D00004D3FFE703208DF81F0089E2EAE7FFE723
:1057E000FFE7FFE706980078000700284AD5FFE7A3
:1057F00006984069002822D0FFE741F29400C4F2E5
:105800000200016841F001010160FFF739F80590DD
:10581000FFE741F29400C4F202000068800700280C
:105820000CD4FFE7FFF72CF80599401A032804D39E
:10583000FFE703208DF81F005AE2EAE721E041F27A
:105840009400C4F20200016821F001010160FFF739
:1058500017F80590FFE741F29400C4F202000068D7
:10586000800700280CD5FFE7FFF70AF80599401AD2
:10587000032804D3FFE703208DF81F0038E2EAE78E
:10588000FFE7FFE7069800784007002840F1C7804F
:10589000FFE700208DF80B0041F25800C4F202002F
:1058A0000068C000002813D4FFE7FFE741F258006A
:1058B000C4F20200016841F080510160006800F00C
:1058C000805001900198FFE701208DF80B00FFE761
:1058D00047F20000C4F200000068C005002822D48E
:1058E000FFE747F20000C4F20000016841F4807154
:1058F0000160FEF7C5FF0590FFE747F20000C4F224
:1059000000000068C00500280CD4FFE7FEF7B8FFD0
:105910000599401A032804D3FFE703208DF81F00E0
:10592000E6E1EAE7FFE7FFE706988068012809D18A
:10593000FFE741F29000C4F20200016841F001016A
:1059400001601FE00698806805280DD1FFE741F24D
:105950009000C4F20200016841F004010160016896
:1059600041F0010101600CE041F29000C4F202003C
:10597000016821F001010160016821F0040101606A
:10598000FFE7FFE7FFE70698806800281CD0FFE7E5
:10599000FEF776FF0590FFE741F29000C4F20200A7
:1059A0000068800700280ED4FFE7FEF769FF05991D
:1059B000401A41F28931884204D3FFE703208DF871
:1059C0001F0095E1E8E71BE0FEF75AFF0590FFE7AF
:1059D00041F29000C4F202000068800700280ED552
:1059E000FFE7FEF74DFF0599401A41F289318842E1
:1059F00004D3FFE703208DF81F0079E1E8E7FFE714
:105A00009DF80B00012809D1FFE741F25800C4F2CC
:105A10000200016821F080510160FFE7FFE706986E
:105A20000078800600284AD5FFE70698806900289C
:105A300022D0FFE741F29800C4F20200016841F071
:105A400001010160FEF71CFF0590FFE741F298009D
:105A5000C4F202000068800700280CD4FFE7FEF7BC
:105A60000FFF0599401A032804D3FFE703208DF8A0
:105A70001F003DE1EAE721E041F29800C4F2020094
:105A8000016821F001010160FEF7FAFE0590FFE7D1
:105A900041F29800C4F202000068800700280CD58B
:105AA000FFE7FEF7EDFE0599401A032804D3FFE750
:105AB00003208DF81F001BE1EAE7FFE7FFE70698E8
:105AC000C069002800F01081FFE741F20800C4F22D
:105AD0000200006800F00C000C2800F0AC80FFE72A
